:020000040800F2
:1000000000000120216C0008756C0008796C000864
:100010007D6C0008816C0008856C00080000000001
:10002000000000000000000000000000896C0008D3
:100030008D6C000800000000916C0008956C0008B1
:10004000716C0008716C0008716C0008716C00081C
:10005000716C0008716C0008716C0008716C00080C
:10006000716C0008716C0008716C0008716C0008FC
:10007000716C0008716C0008716C0008716C0008EC
:10008000716C0008716C0008716C0008716C0008DC
:10009000716C0008716C0008716C0008716C0008CC
:1000A000716C0008716C0008716C0008716C0008BC
:1000B000716C0008716C0008716C0008716C0008AC
:1000C000716C0008716C0008716C0008716C00089C
:1000D000716C0008716C0008716C0008716C00088C
:1000E000716C0008716C0008716C0008716C00087C
:1000F000716C0008716C0008716C0008716C00086C
:10010000716C0008716C0008716C0008716C00085B
:10011000716C0008716C0008716C0008716C00084B
:10012000716C0008716C0008716C0008716C00083B
:10013000716C0008716C0008716C0008716C00082B
:10014000716C0008716C0008716C0008716C00081B
:10015000716C0008716C0008716C0008716C00080B
:10016000716C0008716C0008716C0008716C0008FB
:10017000716C0008716C0008716C0008716C0008EB
:10018000716C0008716C0008716C0008716C0008DB
:10019000716C0008716C0008716C0008716C0008CB
:1001A000716C0008716C0008716C0008716C0008BB
:1001B000716C0008716C0008716C0008716C0008AB
:0801C000716C0008716C00086D
:1002000010B5054C237833B9044B13B10448AFF350
:1002100000800123237010BDB00900200000000001
:10022000D0C40008084B10B51BB108490848AFF30B
:1002300000800848036803B910BD074B002BFBD0B2
:10024000BDE81040184700BF00000000B4090020BE
:10025000D0C40008B00900200000000081F0004177
:1002600002E000BF83F0004330B54FEA41044FEA9B
:10027000430594EA050F08BF90EA020F1FBF54EA36
:10028000000C55EA020C7FEA645C7FEA655C00F0D2
:10029000E2804FEA5454D4EB5555B8BF6D420CDDA3
:1002A0002C4480EA020281EA030382EA000083EA26
:1002B000010180EA020281EA0303362D88BF30BDC6
:1002C00011F0004F4FEA01314FF4801C4CEA11311C
:1002D00002D0404261EB410113F0004F4FEA03337B
:1002E0004CEA133302D0524263EB430394EA050F06
:1002F00000F0A780A4F10104D5F1200E0DDB02FA75
:100300000EFC22FA05F2801841F1000103FA0EF208
:10031000801843FA05F359410EE0A5F120050EF1CE
:10032000200E012A03FA0EFC28BF4CF0020C43FAFF
:1003300005F3C01851EBE37101F0004507D54FF00C
:10034000000EDCF1000C7EEB00006EEB0101B1F55C
:10035000801F1BD3B1F5001F0CD349085FEA3000A2
:100360004FEA3C0C04F101044FEA445212F5800FAD
:1003700080F09A80BCF1004F08BF5FEA500C50F14A
:10038000000041EB045141EA050130BD5FEA4C0C2D
:10039000404141EB010111F4801FA4F10104E9D1B6
:1003A00091F0000F04BF01460020B1FA81F308BFAD
:1003B0002033A3F10B03B3F120020CDA0C3208DD79
:1003C00002F1140CC2F10C0201FA0CF021FA02F154
:1003D0000CE002F11402D8BFC2F1200C01FA02F1C4
:1003E00020FA0CFCDCBF41EA0C019040E41AA2BFE9
:1003F00001EB0451294330BD6FEA04041F3C1CDAB1
:100400000C340EDC04F11404C4F1200220FA04F0D0
:1004100001FA02F340EA030021FA04F345EA03017A
:1004200030BDC4F10C04C4F1200220FA02F001FA3C
:1004300004F340EA0300294630BD21FA04F02946BE
:1004400030BD94F0000F83F4801306BF81F4801157
:100450000134013D4EE77FEA645C18BF7FEA655CCA
:1004600029D094EA050F08BF90EA020F05D054EA9C
:10047000000C04BF1946104630BD91EA030F1EBFA1
:100480000021002030BD5FEA545C05D140004941A5
:1004900028BF41F0004130BD14F580043CBF01F598
:1004A000801130BD01F0004545F0FE4141F470017E
:1004B0004FF0000030BD7FEA645C1ABF1946104659
:1004C0007FEA655C1CBF0B46024650EA013406BF5A
:1004D00052EA033591EA030F41F4002130BD00BF19
:1004E00090F0000F04BF0021704730B54FF48064D6
:1004F00004F132044FF000054FF0000150E700BF57
:1005000090F0000F04BF0021704730B54FF48064B5
:1005100004F1320410F0004548BF40424FF00001A2
:100520003EE700BF42004FEAE2014FEA31014FEAE5
:1005300002701FBF12F07F4393F07F4F81F0605134
:10054000704792F0000F14BF93F07F4F704730B5A3
:100550004FF4607401F0004521F0004120E700BF36
:1005600050EA010208BF704730B54FF000050AE0BD
:1005700050EA010208BF704730B511F0004502D5BE
:10058000404261EB41014FF4806404F132045FEAC0
:10059000915C3FF4DCAE4FF003025FEADC0C18BF65
:1005A00003325FEADC0C18BF033202EBDC02C2F15B
:1005B000200300FA03FC20FA02F001FA03FE40EAED
:1005C0000E0021FA02F11444C1E600BF70B54FF0ED
:1005D000FF0C4CF4E06C1CEA11541DBF1CEA1355CF
:1005E00094EA0C0F95EA0C0F00F0DEF82C4481EA37
:1005F000030621EA4C5123EA4C5350EA013518BF57
:1006000052EA033541F4801143F4801338D0A0FB43
:1006100002CE4FF00005E1FB02E506F00042E0FBF0
:1006200003E54FF00006E1FB03569CF0000F18BFF6
:100630004EF0010EA4F1FF04B6F5007F64F540749E
:1006400004D25FEA4E0E6D4146EB060642EAC62131
:1006500041EA55514FEAC52040EA5E504FEACE2E9E
:10066000B4F1FD0C88BFBCF5E06F1ED8BEF1004FA1
:1006700008BF5FEA500E50F1000041EB045170BD1D
:1006800006F0004646EA010140EA020081EA030161
:10069000B4EB5C04C2BFD4EB0C0541EA045170BD5D
:1006A00041F480114FF0000E013C00F3AB8014F1D7
:1006B000360FDEBF002001F0004170BDC4F1000420
:1006C000203C35DA0C341BDC04F11404C4F12005A1
:1006D00000FA05F320FA04F001FA05F240EA0200FC
:1006E00001F0004221F0004110EBD37021FA04F632
:1006F00042EB06015EEA430E08BF20EAD37070BDEC
:10070000C4F10C04C4F1200500FA04F320FA05F04A
:1007100001FA04F240EA020001F0004110EBD3704C
:1007200041F100015EEA430E08BF20EAD37070BDBC
:10073000C4F1200500FA05F24EEA020E20FA04F395
:1007400001FA05F243EA020321FA04F001F0004144
:1007500021FA04F220EA020000EBD3705EEA430EB5
:1007600008BF20EAD37070BD94F0000F0FD101F0E4
:100770000046400041EB010111F4801F08BF013C1D
:10078000F7D041EA060195F0000F18BF704703F05B
:100790000046520043EB030313F4801F08BF013DE2
:1007A000F7D043EA0603704794EA0C0F0CEA13559E
:1007B00018BF95EA0C0F0CD050EA410618BF52EA58
:1007C0004306D1D181EA030101F000414FF000005E
:1007D00070BD50EA410606BF1046194652EA43066C
:1007E00019D094EA0C0F02D150EA013613D195EAE0
:1007F0000C0F05D152EA03361CBF104619460AD128
:1008000081EA030101F0004141F0FE4141F4700131
:100810004FF0000070BD41F0FE4141F4780170BD21
:1008200070B54FF0FF0C4CF4E06C1CEA11541DBF86
:100830001CEA135594EA0C0F95EA0C0F00F0A7F888
:10084000A4EB050481EA030E52EA03354FEA0131B5
:1008500000F088804FEA03334FF0805545EA1313C8
:1008600043EA12634FEA022245EA111545EA106590
:100870004FEA00260EF000419D4208BF964244F127
:10088000FD0404F5407402D25B084FEA3202B61A46
:1008900065EB03055B084FEA32024FF480104FF41A
:1008A000002CB6EB020E75EB030E22BFB61A75468E
:1008B00040EA0C005B084FEA3202B6EB020E75EB21
:1008C000030E22BFB61A754640EA5C005B084FEA89
:1008D0003202B6EB020E75EB030E22BFB61A754656
:1008E00040EA9C005B084FEA3202B6EB020E75EB61
:1008F000030E22BFB61A754640EADC0055EA060E22
:1009000018D04FEA051545EA16754FEA06164FEA64
:10091000C30343EA52734FEAC2025FEA1C1CC0D110
:1009200011F4801F0BD141EA00014FF000004FF09D
:10093000004CB6E711F4801F04BF01430020B4F15E
:10094000FD0C88BFBCF5E06F3FF6AFAEB5EB030C16
:1009500004BFB6EB020C5FEA500C50F1000041EB13
:10096000045170BD0EF0004E4EEA113114EB5C04E0
:10097000C2BFD4EB0C0541EA045170BD41F48011B3
:100980004FF0000E013C90E645EA060E8DE60CEABB
:10099000135594EA0C0F08BF95EA0C0F3FF43BAFD8
:1009A00094EA0C0F0AD150EA01347FF434AF95EA8F
:1009B0000C0F7FF425AF104619462CE795EA0C0F73
:1009C00006D152EA03353FF4FDAE1046194622E740
:1009D00050EA410618BF52EA43067FF4C5AE50EA1A
:1009E00041047FF40DAF52EA43057FF4EBAE12E70A
:1009F0004FEA4102B2F1E04324BFB3F5001CDCF141
:100A0000FE5C0DD901F0004C4FEAC0024CEA507078
:100A1000B2F1004F40EB830008BF20F001007047A7
:100A200011F0804F21D113F13872BCBF01F00040AA
:100A3000704741F480114FEA5252C2F11802C2F1DC
:100A4000200C10FA0CF320FA02F018BF40F001005D
:100A50004FEAC1234FEAD32303FA0CFC40EA0C000F
:100A600023FA02F34FEA4303CCE77FEA625307D14C
:100A700050EA01331EBF4FF0FE4040F44000704783
:100A800001F0004040F0FE4040F40000704700BF1D
:100A900001F0FF01102A2BDB10F0070F08D010F82F
:100AA000013B013A8B422DD010F0070F42B3F6D133
:100AB000F0B441EA012141EA014122F007047FF04C
:100AC00000070023F0E80256083C85EA010586EAA3
:100AD000010685FA47F5A3FA87F586FA47F6A5FADF
:100AE00087F68EB9EED1F0BC01F0FF0102F00702EB
:100AF00032B110F8013B013A83EA010313B1F8D196
:100B00000020704701387047002D06BF3546033876
:100B1000073815F0010F07D1013015F4807F02BFAF
:100B2000013015F4C03F0130F0BC0138704700BF00
:100B3000844641EA000313F003036DD1403A41D3E8
:100B400051F8043B40F8043B51F8043B40F8043BA7
:100B500051F8043B40F8043B51F8043B40F8043B97
:100B600051F8043B40F8043B51F8043B40F8043B87
:100B700051F8043B40F8043B51F8043B40F8043B77
:100B800051F8043B40F8043B51F8043B40F8043B67
:100B900051F8043B40F8043B51F8043B40F8043B57
:100BA00051F8043B40F8043B51F8043B40F8043B47
:100BB00051F8043B40F8043B51F8043B40F8043B37
:100BC000403ABDD2303211D351F8043B40F8043BD7
:100BD00051F8043B40F8043B51F8043B40F8043B17
:100BE00051F8043B40F8043B103AEDD20C3205D3E7
:100BF00051F8043B40F8043B043AF9D2043208D0DF
:100C0000D2071CBF11F8013B00F8013B01D30B8850
:100C100003806046704700BF082A13D38B078DD02E
:100C200010F003038AD0C3F10403D21ADB071CBF00
:100C300011F8013B00F8013B80D331F8023B20F86A
:100C4000023B7BE7043AD9D3013A11F8013B00F8A3
:100C5000013BF9D20B7803704B7843708B7883702B
:100C60006046704700000000000000000000000027
:100C70000000000000000000000000000000000074
:100C800090F800F06DE9024520F007016FF0000CCC
:100C900010F0070491F820F040F049804FF0000474
:100CA0006FF00700D1E9002391F840F000F108004F
:100CB00082FA4CF2A4FA8CF283FA4CF3A2FA8CF387
:100CC0004BBBD1E9022382FA4CF200F10800A4FAEE
:100CD0008CF283FA4CF3A2FA8CF3E3B9D1E9042342
:100CE00082FA4CF200F10800A4FA8CF283FA4CF379
:100CF000A2FA8CF37BB9D1E9062301F1200182FA33
:100D00004CF200F10800A4FA8CF283FA4CF3A2FA38
:100D10008CF3002BC6D0002A04BF04301A4612BA46
:100D2000B2FA82F2FDE8024500EBD2007047D1E949
:100D3000002304F00305C4F100004FEAC50514F0D8
:100D4000040F91F840F00CFA05F562EA05021CBFA9
:100D500063EA050362464FF00004A9E74FF0FF3C49
:100D600006E000BF4FF0010C02E000BF4FF0010CA5
:100D70004DF804CD4FEA410C7FEA6C5C4FEA430C1E
:100D800018BF7FEA6C5C1BD001B050EA410C0CBF6D
:100D900052EA430C91EA030F02BF90EA020F0020CF
:100DA000704710F1000F91EA030F58BF994208BF36
:100DB00090422CBFD8176FEAE37040F001007047F3
:100DC0004FEA410C7FEA6C5C02D150EA013C07D14A
:100DD0004FEA430C7FEA6C5CD6D152EA033CD3D095
:100DE0005DF8040B704700BF8446104662468C468F
:100DF0001946634600E000BF01B5FFF7B7FF0028C2
:100E000048BF10F1000F01BD4DF808EDFFF7F4FFEA
:100E10000CBF012000205DF808FB00BF4DF808ED75
:100E2000FFF7EAFF34BF012000205DF808FB00BF98
:100E30004DF808EDFFF7E0FF94BF012000205DF8BA
:100E400008FB00BF4DF808EDFFF7CEFF94BF01206F
:100E500000205DF808FB00BF4DF808EDFFF7C4FF68
:100E600034BF012000205DF808FB00BF4FEA410CB1
:100E70007FEA6C5C02D150EA013C0AD14FEA430C94
:100E80007FEA6C5C02D152EA033C02D14FF00000D1
:100E900070474FF0010070474FEA410212F500120F
:100EA00015D211D56FF47873B3EB625212D94FEAB1
:100EB000C12343F0004343EA505311F0004F23FA9B
:100EC00002F018BF404270474FF00000704750EAF0
:100ED000013005D111F0004008BF6FF000407047AD
:100EE0004FF00000704700BF53B94AB9002908BF4E
:100EF00000281CBF4FF0FF314FF0FF3000F07EB9EB
:100F0000ADF1080C6DE904CE00F006F8DDF804E060
:100F1000DDE9022304B070472DE9F0478C460E4608
:100F20000446089D002B50D18A4217466CD9B2FA6C
:100F300082FEBEF1000F0BD0CEF1200420FA04F4A3
:100F400001FA0EF644EA060C02FA0EF700FA0EF465
:100F50004FEA1749220CBCFBF9F01FFA87F809FB8E
:100F600010C642EA064600FB08F3B34209D9F61957
:100F700000F1FF3280F02281B34240F21F8102383B
:100F80003E44F61AA2B2B6FBF9F309FB136642EA35
:100F9000064403FB08F8A04509D9E41903F1FF3220
:100FA00080F00A81A04540F20781023B3C44C8EB37
:100FB000040443EA00400021002D62D024FA0EF41C
:100FC00000232C606B60BDE8F0878B4207D9002DB1
:100FD00055D0002185E841000846BDE8F087B3FA06
:100FE00083F1002940F09080B34202D3824200F2A4
:100FF000F880841A66EB03060120B446002D40D029
:1010000085E81010BDE8F08712B90127B7FBF2F7A9
:10101000B7FA87FEBEF1000F35D1F31B4FEA174830
:101020001FFA87FC0121B3FBF8F0220C08FB1036F5
:1010300042EA06460CFB00F3B34207D9F61900F169
:10104000FF3202D2B34200F2CE801046F61AA2B2AC
:10105000B6FBF8F308FB136642EA06440CFB03FCFC
:10106000A44507D9E41903F1FF3202D2A44500F2E6
:10107000B5801346CCEB040443EA00409CE72946C4
:101080002846BDE8F087CEF1200106FA0EF307FAF4
:101090000EF720FA01F94FEA1748CE4049EA030952
:1010A000B6FBF8FA4FEA194408FB1A661FFA87FCE8
:1010B00044EA06430AFB0CF29A4200FA0EF40AD9FB
:1010C000DB190AF1FF3180F087809A4240F2848078
:1010D000AAF1020A3B449B1A1FFA89F9B3FBF8F103
:1010E00008FB113349EA034301FB0CF69E4207D982
:1010F000DB1901F1FF326BD29E4269D902393B44C0
:101100009B1B41EA0A418EE7C1F1200E22FA0EF440
:101110008B40234320FA0EF706FA01F44FEA134CF2
:1011200026FA0EF63C43B6FBFCF9270C0CFB1966BD
:101130001FFA83F847EA064609FB08F7B74202FAA6
:1011400001F200FA01FA08D9F61809F1FF3041D28C
:10115000B7423FD9A9F102091E44F61BA0B2B6FB63
:10116000FCF40CFB146640EA064704FB08F8B8459B
:1011700007D9FF1804F1FF3028D2B84526D9023C20
:101180001F4444EA0940C8EB0707A0FB02894F450A
:1011900044464E4614D329D065B3BAEB040367EB3B
:1011A000060707FA0EFECB40CF404EEA030385E860
:1011B00088000021BDE8F0871346F8E61046E0E617
:1011C000B8EB020469EB03060138E5E70446D8E70B
:1011D000114695E78146C0E78A467CE7023B3C44DE
:1011E00048E708460AE702383E442FE7C245E7D3FE
:1011F0003E46D1E72946BDE8F08700BF704700BFF3
:10120000034620B9044AFA20136000F0AFBC024B39
:1012100001221A6000F0D2BC401300200B2802D833
:10122000014B43F820107047280A00200B2803D8F0
:10123000024B53F82000704700207047280A002016
:101240000130F0B4082827D8DFE810F02800420069
:10125000570065007B009000A600B40009005F4BBA
:101260004FF4F9605E4984255E4A40F2C936186041
:1012700043F24534596040F20F10DA60D9211D6104
:101280006FF07F42584F594D5F619E611D625C62F5
:101290009862D9629A60DA61F0BC70474F4B40F2B5
:1012A0002B4243F21C07524E524D27246FF07F41D0
:1012B00004201A6000225F60DE605D619C62D8627B
:1012C0009960D9611A619A611A625A62F0BC7047DA
:1012D00040F22B44414B43F21C0045491C609722CD
:1012E000444F0026444D40F6286458602720D960BA
:1012F00004211A616FF07F42C6E740F22B44374B5E
:1013000043F21C003D491C603C223A4F00263C4DF4
:1013100041F6AF24E9E7314B40F2AE7039498525FB
:10132000394A4FF46C76186040F6874459604FF4A0
:101330008B70DA60D9211D616FF07F42334F344DDD
:10134000A2E7264B40F2AE7032498522324D40F280
:10135000A736186040F68744596040F20B10DD60F4
:10136000D9211A612D4F2E4D2E4A8DE71B4B40F28D
:10137000AE7024493E252C4A4FF46C76186040F636
:10138000874459604FF48B70DA60D9211D616FF08A
:101390007F421E4F254D77E740F22B440F4B43F21F
:1013A0001C0016491C603C22124F0026144D44F6C6
:1013B000F3249AE7094B362009498425094A062671
:1013C000186047F2C95459603320DA6003211D6167
:1013D0006FF07F42164F174D56E700BF280A0020D6
:1013E0008CE91000F57F7C0056B904004C340300F2
:1013F000D42355004A8606003D850400D3235500BA
:101400005FA80800035C1100D1E27A00C8730200F3
:10141000C7210300B0541100C6037B00BF73020054
:10142000BC21030060E2FF00D2E27A00DC56070034
:10143000AB6D02008B5C07002DE9F047DFF84C93A1
:101440004FF00208CF4F802509F1300ACE4C79E1E8
:10145000A7F80880022000F02BFC0220258100F074
:1014600027FC6581022000F023FC710240F1BA8163
:10147000A7F80880022000F01BFC0220258100F064
:1014800017FC6581022000F013FCB20240F1A78135
:10149000A7F80880022000F00BFC0220258100F054
:1014A00007FC6581022000F003FCF30240F1948107
:1014B000A7F80880022000F0FBFB0220258100F045
:1014C000F7FB0220658100F0F3FB300340F18181DE
:1014D000A7F80880022000F0EBFB0220258100F035
:1014E000E7FB6581022000F0E3FB710340F16E81B0
:1014F000A7F80880022000F0DBFB0220258100F025
:10150000D7FB6581022000F0D3FBB20340F15B8181
:10151000A7F80880022000F0CBFB0220258100F014
:10152000C7FB6581022000F0C3FBF30340F1488153
:10153000A7F80880022000F0BBFB0220258100F004
:10154000B7FB0220658100F0B3FB300440F1358128
:10155000A7F80880022000F0ABFB0220258100F0F4
:10156000A7FB6581022000F0A3FB710440F12281FA
:10157000A7F80880022000F09BFB0220258100F0E4
:1015800097FB6581022000F093FBB20440F10F81CC
:10159000A7F80880022000F08BFB0220258100F0D4
:1015A00087FB6581022000F083FBF30440F1FC809F
:1015B000A7F80880022000F07BFB0220258100F0C4
:1015C00077FB0220658100F073FB300540F1E98074
:1015D000A7F80880022000F06BFB0220258100F0B4
:1015E00067FB6581022000F063FB710540F1D68046
:1015F000A7F80880022000F05BFB0220258100F0A4
:1016000057FB6581022000F053FBB20540F1C38017
:10161000A7F80880022000F04BFB0220258100F093
:1016200047FB6581022000F043FBF30540F1B080E9
:10163000A7F80880022000F03BFB0220258100F083
:1016400037FB0220658100F033FB300640F19780C4
:10165000A7F80880022000F02BFB0220258100F073
:1016600027FB6581022000F023FB710640F1848096
:10167000A7F80880022000F01BFB0220258100F063
:1016800017FB6581022000F013FBB20671D5A7F8A5
:101690000880022000F00CFB0220258100F008FBEE
:1016A0006581022000F004FBF3065FD5A7F80880EF
:1016B000022000F0FDFA0220258100F0F9FA022054
:1016C000658100F0F5FA30074DD5A7F808800220B3
:1016D00000F0EEFA0220258100F0EAFA658102208E
:1016E00000F0E6FA71073BD5A7F80880022000F069
:1016F000DFFA0220258100F0DBFA6581022000F08C
:10170000D7FAB20729D5A7F80880022000F0D0FA4E
:101710000220258100F0CCFA6581022000F0C8FA91
:10172000F30717D5A7F808800220802600F0C0FA3A
:101730000220258100F0BCFA6581022000F0B8FA91
:10174000D14552D059F8046B30023FF581AEA7F86D
:101750000A807FE6A7F80A80E6E7A7F80A80D4E7C0
:10176000A7F80A80C2E7A7F80A80B0E7A7F80A80BE
:101770009EE7A7F80A808CE7A7F80A807AE7A7F81F
:101780000A8067E71004024010000240280A002087
:10179000A7F80A804EE7A7F80A803BE7A7F80A8077
:1017A00028E7A7F80A8015E7A7F80A8002E7A7F854
:1017B0000A80EFE6A7F80A80DCE6A7F80A80C9E607
:1017C000A7F80A80B6E6A7F80A80A3E6A7F80A8079
:1017D00090E6A7F80A807DE6A7F80A806AE6A7F8EF
:1017E0000A8057E6A7F80A8044E6084B0222084C14
:1017F0000A205A8100F05CFA66810A2000F058FA4B
:1018000026810A20BDE8F04700F052BA10040240D9
:10181000101002402DE9F04FB54D01278DB0B54AAB
:10182000296B002401924FF0030B41EA0703B24EEB
:101830004FF40049DFF82C832B6310462B6B4FF0DD
:10184000800A776031463B40B460C6F80CB0039321
:10185000039B2B6B43F002032B632B6B03F0020300
:101860000493049B2B6B43F004032B632B6B03F05B
:1018700004030593059B2B6B43F010032B632B6B29
:1018800003F010030693069B2B6B43F480732B63CA
:101890002B6BC6F8009003F480730793079B05F049
:1018A0004BFCA8F80A9031469448C6F800A005F011
:1018B00043FC93483146A0F808A09248C6F800A01F
:1018C00005F03AFC904B3146019AA3F80AA0022396
:1018D00010464FF4006A336005F02EFC4FF002030F
:1018E0004FF6FF7231468948A8F80A307460B46038
:1018F000C6F80CB0326005F01FFC08220223314606
:10190000834873603260B460C6F80CB0C6F810B09B
:1019100005F012FCA8F80A900A2000F0D3F9A8F804
:1019200008900A20362600F0CDF97A4A84207A49B8
:101930007A4B4FF0060E1061A8F580387848166093
:1019400047F2C95651603321D3606FF07F43506135
:10195000A8F110087348C2F818E0C2F82CB04FF490
:10196000807B56622026106291629360D361FFF7FC
:1019700063FD6D4B48F274006C4A4FF060611C606F
:101980006B4B146048F234021C606B6CDFF8D8912A
:1019900043F002036B646B6C03F002030893089B33
:1019A000C8F80040C8F80460C8F80800C8F8244027
:1019B000C8F82840C8F81840C8F81C40C8F82040AB
:1019C000C8F814702B6C5B4E43F004032B642B6C33
:1019D00003F004030993099BC9F80040C9F80440C7
:1019E000C9F808204FF40052C9F82440C9F828402B
:1019F000C9F81840C9F81C40C9F82040C9F814704B
:101A00002B6B43F480032B632B6BB46003F48003D4
:101A1000F46074620A93484B0A98304633604FF47E
:101A20008063F46233614FF4403334637160B261B8
:101A3000C6F814A0C6F81CB0336205F0B1FA2B6BDF
:101A40004FF480603D4A4FF4804E43F400134FF052
:101A500080612B632B6B4FF480551061104603F4AB
:101A60000013C2F818E094600B930B9B4FF44033C3
:101A7000D4601362324BC2F81CB05462D462146357
:101A8000136051605561019205F08AFA019A53463C
:101A90002C4910462C4A05F01FFB534630462B4A72
:101AA0002B4905F019FBD8F80C302A49FA2043EAF3
:101AB0000B03294A294EC8F80C30D9F80C30284DB0
:101AC00043EA0B03C9F80C30D8F800303B43C8F8A0
:101AD0000030D9F800303B43C9F8003034602C6046
:101AE0000F60176000F042F80DB0BDE8F08F00BF46
:101AF0000038024000040240C00A002000100240EA
:101B00001010024000000240100002400008024095
:101B100000200240280A00208CE91000F57F7C009C
:101B2000AB6D02008B5C07003C1300201C0A0020F8
:101B3000D4120020580A002028640240D812002045
:101B4000A06002402400004000C0042000E0042007
:101B50001008024048130020BC0A00204013002057
:101B600044130020100402400008004010B4054B4C
:101B70004FF08041044C00224C63D8625DF8044B66
:101B80005A6270470000014000400060014BD86A73
:101B900080B270470000014010B4064B4FF0804007
:101BA000054C642100224463D9625DF8044B5A62FB
:101BB000704700BF000001400040002010B4064BF9
:101BC0004FF0C0444FF08040642100224463D9624A
:101BD0005DF8044B5A627047000001402DE9F04364
:101BE0002C4E89B000254FF4C04E336B03220127E1
:101BF00003A943F040032848284C4FF4007933638D
:101C00004FF0C048336BCDF80CE003F0400304976D
:101C100006924FF080470193019B0595079505F0CB
:101C20008BFA336B4FF04062A5604FF4806E43F443
:101C30008003256265624FF4006C33634FF40051FA
:101C4000336B62604FF4807203F48003C4F810E0D9
:101C5000C4F814C00293124B029820462360A1617D
:101C6000E261E5622563C4F80C9005F099F920461D
:101C7000C7F8348002230B4A0B4905F02DFA0B4BB1
:101C80006422C3F80C90C7F83480DA625D6209B050
:101C9000BDE8F08300380240001802404C130020D9
:101CA000586402401818024034000040000001400F
:101CB00038B100228C2300BF013BFCD1013290429D
:101CC000F8D1704738B10022034B00BF013BFCD173
:101CD00001329042F8D1704717A901003A4B40F207
:101CE0007A601A6B42F01002F0B51A638FB01B6B6A
:101CF00000250224032703F01003344E049004A9A6
:101D000001933348019B059508950694079705F0C4
:101D100013FA336803F4CC63B3F5CC6F4AD02D4D7E
:101D20002B6823B9336803F01803182B36D040F220
:101D30007A630024032604A9254804930594069495
:101D40000894079605F0F8F92B682BB31E4B4FF457
:101D50006045214809A91A6B42F001021A631A6B07
:101D600002F001020292029A1A6B42F002021A6316
:101D70001B6B0A9403F002030B940C960393039BD2
:101D8000099505F0D9F9182309A914480A940B9468
:101D90000C96099305F0D0F90FB0F0BD012304A90A
:101DA0000B48069305F0C8F9336813F0420F08BFDB
:101DB0002C60BCE70124074D04A90548069405F0F2
:101DC000BBF933682C60B2E70038024010100240C3
:101DD00000100240D0090020000002400004024030
:101DE00030B585B0032405F089F824490022012389
:101DF0000820C1F3080501918DF800308DF80C30F2
:101E00008DF80F308DF80B408DF80A208DF80E20DC
:101E10008DF80D208DF809208DF801208DF808002F
:101E20003DB31D46164B01200B21C3F30B0201935A
:101E30008DF801008DF80810B2B1124B02200C2170
:101E4000C3F30C0201938DF801008DF808103AB12C
:101E500044F00404042005F061F8204605B030BDCC
:101E6000684605F06DF8F5E768462C4605F068F819
:101E7000E3E76846022405F063F8D3E700F60420A0
:101E800000E0042000C00420014B024ADA60FEE7B3
:101E900000ED00E00400FA05284B29481A6B42F0D7
:101EA0000102F0B51A6389B01A6B002403254FF4C0
:101EB000604602F0010203A94FF400470192019A23
:101EC0001A6B42F002021A631B6B0396012603F0A1
:101ED0000203049405940293029B069505F02CF9E5
:101EE000182303A91748039304940594069505F055
:101EF00023F903A91348059406950397049605F062
:101F00001BF9114A4FF4805303A90E4857810393DC
:101F100006950494059605F00FF90C4B1C605C6067
:101F20009C6086F3108840F20003C1F6F0731B68D2
:101F300083F30888064B1B689847FEE70038024089
:101F400000000240000402401004024010E000E0E3
:101F50000400F01F054A1F28136828BF1F2023F024
:101F6000F80343EAC0001060704700BF0038024029
:101F7000024B1868C0F3C400704700BF003802402D
:101F8000424A434B116C434841F08051F0B5116413
:101F9000B5B0126C022701260B2502F080523E4C90
:101FA0000092009A1A6842F440421A601B68079730
:101FB00003F440430A960B950193019B23688342E7
:101FC0003DD0354A354B12689A4249D0022300244D
:101FD0000821D82207A80D93119312930E940F9104
:101FE000109205F005FA10B12D4B01221A6005F090
:101FF000C3F910B12A4B01221A600F2602250024D2
:102000004FF4A0524FF48053072102A80296039583
:1020100004940592069305F0C3FB10B1204B0122F6
:102020001A604FF48072102313A81392269305F0C0
:1020300031FD10B11A4B01221A6035B0F0BD194ABA
:10204000194B12689A42BCD103F19F63174A03F5FA
:10205000FC23126829339A42B3D10A230B93B0E7C9
:1020600003F14C530F4AA3F5B5231268A3F22E7364
:102070009A42ABD103F13E730C4A03F53A3312682E
:1020800032339A42A2D10B230B939FE700380240D0
:10209000007000403A00410020F4F01F30003B0087
:1020A000D409002024F4F01F0F51343228F4F01F1B
:1020B000A24A2DE9F041566F86B016F0005640F066
:1020C00037819F4B40F249411B68C3F30B038B429E
:1020D00040F0FD809B4CFFF783FE2060BFF34F8FE5
:1020E000BFF36F8F984DC5F85062BFF34F8FBFF3AA
:1020F0006F8FBFF34F8FBFF36F8FC5F850626B695F
:1021000043F400336B61BFF34F8FBFF36F8FC5F89C
:102110008460BFF34F8FD5F88070C7F34E36C7F396
:10212000C907720143F6E0703B46104040EA8371F4
:10213000013B854AC5F86012591CF7D116F1FF36EC
:10214000EFD2BFF34F8FBFF36F8F0023C2F88430FD
:10215000BFF34F8FD2F88070C7F34E36C7F3C9076D
:10216000710143F6E0703B46084040EA8371013B51
:10217000754DC2F86012591CF7D116F1FF36EFD237
:10218000BFF34F8F6B6943F480336B61BFF34F8FA5
:10219000BFF36F8F04F044FE6C4A03206C4F13684A
:1021A000DFF8E88143F40073136004F041FE00227D
:1021B0006FF00B00114604F04FFE00226FF00A0092
:1021C000114604F049FE00226FF00900114604F0A8
:1021D00043FE00226FF00300114604F03DFE002292
:1021E0003046114604F038FEFFF778FDFFF7C8FED1
:1021F00004F0B0FD574B00221A6001F0FBF9FFF725
:10220000EDFC04F003FDFFF705FB3A680A21531CBF
:1022100008F80210C3F30A033B6001F02FFD4E489B
:1022200006214E4A102311602B61C3684C4943F0CC
:1022300001034C4AC3600B6843F020030B60136832
:1022400043F01003136001F007FB474B1B68002BA2
:1022500039D123683B4C5BB3444801F02DFD3D6808
:102260002368691C4248C3F30332C3F30326C1F356
:102270000A01C3F3031410F802C003F00F034A1C51
:1022800010F806E0065DC2F30A02C45C08F805C057
:10229000531C08F801E008F80260C3F30A0335484C
:1022A0005A1C08F80340C2F30A033B6001F004FD26
:1022B000314801F001FD03F06FFD00F069F80020E6
:1022C00006B0BDE8F0812D4801F0F6FCC1E7136BC4
:1022D00003254FF4C044012743F0400301A92848D7
:1022E0001363136B039603F04003059604954FF4B4
:1022F000804600934FF400550194009B029704F030
:102300001BFF14211F4A0420568115811E4B00BF5C
:10231000013BFCD10138F9D1042054811A4B00BF94
:10232000013BFCD10138F9D10139ECD1FFF7B4FD03
:10233000536F43F080735367FFF7AEFD00380240E0
:10234000002004E0D809002000ED00E0003C02403D
:10235000E820002010E000E000040140AC13002061
:102360000048004058600240D409002004C500081D
:10237000B8D300082CC5000834C50008E8C400081C
:10238000001802401018024017A9010000F80420AC
:10239000B44B2DE9F04F1B688FB0DFF844930893DE
:1023A000B14B0C93B14BB2485968B24BB24C1A685E
:1023B000AF4B11441B684942C1F30A019942AF4B2C
:1023C0002160D3F800C088BF0160BCF1000F00F0AD
:1023D000F286002900F0948000230CF001004FF0F9
:1023E000010A02910A9304930CF0040309900693E6
:1023F0000CF00803A2480793A24BD0F800E00CF0C1
:1024000002001B68059003939F4B53F822809F4B5B
:1024100033F812309BB29809C3F3411603F01F053D
:1024200003F0800700F4FE701C460AFA05F5BFB2FF
:102430003043974E56F8206015EA060B18BF4FF050
:10244000800BBB4500F0BA82002F00F0BE822E4305
:102450008CEA030B48F280078D490BEA070741F825
:1024600020607FB30EF1010E8A49CEF30C0E41F8C5
:102470002E80059929B1DE4323F07F0306F07F0407
:102480001C43069B3BB1E64348F2FF0306F4FE46BD
:10249000234046EA0304079B53B12702C4F30626F0
:1024A00048F2800307F4FE47234047EA06041C4332
:1024B000A3B2794921F81E30039B9E4500F0378373
:1024C00001230493029B0132013BC2F30A020293EF
:1024D0009AD11946714B1860714B1D60654B1A609B
:1024E000654B1960049B002B41F01B800A9B13B1C4
:1024F000644B039A1A606B4BC3F800806A4B1C60F4
:102500006A4B089A5B681344694A5B42C3F3080349
:102510001360002B40F0BC86664B1A68664B1B6844
:102520009A4204D0654B5B68002B00F01C87554B2A
:10253000534A1B68126853489A4200F0AD865E4ABF
:1025400015685C4A14685D4A291B5268C943C1F387
:102550000A018A1A0D91B2F5007FC0F0DC86584A54
:102560000133D2F800B0C3F30C034A4A036052F8B7
:1025700023204C4811460492474A016032F8132048
:1025800093B2494A1360BBF1000F00F0FB824D4A41
:1025900003F07F01C3F3062012688D1A1144841AD8
:1025A000024425EAE5767F29474DA8BF7F217F2A8F
:1025B000286024EAE470A8BF7F228E420790434837
:1025C0000A910660029200F21281344903F08002FF
:1025D0000023D1F800E01FFA82FC31491A460B9320
:1025E000D1F800A03A49096809915946B3460E4608
:1025F000079902980D46814200F2E0804FEA0B23D2
:10260000059608932C02012244EA0B0A4FEA9A131A
:10261000CAF3411E0AF01F0A03F4FE7302FA0AFA13
:1026200043EA0E0E2B4B53F82E201AEA020318BF72
:102630008023634500F0BA80BCF1000F00F01782E0
:102640004AEA02004BEAC513234A224E52F82320DD
:1026500046F82E0004982149821A1140002940F0C2
:102660000C823FE05C200020A0140020A06002400B
:10267000B4130020D4120020C413002044130020FF
:102680001C0A00203C13002000C0042000E00420AD
:10269000D40A00200040012000000120C8130020BF
:1026A000B0130020D0130020BC130020286002408B
:1026B0005420002050200020E820002058600240D4
:1026C00064150020941E0020B8130020C0130020C1
:1026D000981E0020681500200040022000C0FFFF67
:1026E000A01E00201FFA82F801460392B84A03EBAD
:1026F0004307B84842F82310B64B03EB47035A8808
:1027000099889A800E4630F8170003995880014442
:10271000B04B0696114423F8178077186FF448766B
:10272000BB1003EB060842F6BE36B04500F27A81D4
:10273000FF11039EC7EB03084645C8BF4045CCBF09
:10274000012600264245D4BF002606F00106002ED1
:1027500000F06881069E464540F3648103EB07085C
:10276000039E4045B8BF46453746B4BF0127002702
:102770004245ACBF002707F00107002F00F052814F
:10278000069E464580F24E81022203929248002125
:10279000059E50F8042B9A4204D259F821209A42FF
:1027A00000F2718101318E42F3D105960135029B11
:1027B0009D427FF627AF0123059E1A460BF1010BC0
:1027C0000A998B457FF614AF31465E468B468349A6
:1027D0000D6083490E600B99002940F0728612B19A
:1027E000804AC2F800E013B17F4BC3F800A07F4BD2
:1027F00004991B687D4ACB1AB3F5804F80F0BF85E2
:102800007B4B1A68002A00F0BD817A4B1B68C91AFD
:102810008A4280F0B7810BB1D3180493754B049AA8
:102820001A60754B0D9A5B68D31AB3EB0B1F40F21D
:10283000A981724B002472491B6809680293714B8D
:1028400004911A682346DFF8C8812CE0511C4FF030
:102850004600C1F30A0108F802004A1C08F801000A
:10286000C2F30A0298006849684E4158501CDDF8CE
:1028700010B0C1F3031501F00F04C0F30A0063495F
:10288000345D4D5D411C624EC1F30A01B5544FF0F9
:102890000A053454012475540A19C2F30A0201339B
:1028A0005B4580F069810298511C03F1300720FAE2
:1028B00003F5C1F30A01574815F0010F4FEA8305EC
:1028C00001F101060395EAD0514C4FF02D054FF070
:1028D000540CA554C6F30A044F4A661C4C4D52F8DA
:1028E00023E0C6F30A064D4A52F8232005F801C03A
:1028F000CEF3034C2F55711C444DCEF30324CEF37D
:102900000337CEF3031E15F804B0C1F30A0115F81E
:102910000EA0C2F3034E15F80CC04C1CEF5D3C4DED
:10292000C4F30A0405F806C0C2F30326374D15F8B0
:102930000EC0C2F3033E364D6F54671CC2F3031141
:10294000324A324D12F80EE0C7F30A02AF5D6E5CF8
:10295000511C2F4DC1F30A0105F804B005F802A07F
:102960002F4A52F823404A1C05F801C0C2F30A025C
:1029700020404FEA143BC4F3032A511C05F802E03F
:10298000C1F30A02511CAF54C1F30A014A1C6E5430
:10299000C2F30A0200287FF459AF1C491B4811F802
:1029A0000B40511C10F80A00C1F30A0108F802405C
:1029B0004A1C08F80100C2F30A0253E709990029EA
:1029C0007FF480AD002F7FF442AD26EA05063FE597
:1029D0000040022000400320001F0020B813002008
:1029E000C0130020C8130020B0130020701F002067
:1029F0006C1F0020641F002058600240981E0020B9
:102A000064150020E82000206C1D0020B8D30008C9
:102A100000F804200000FFFF00150020D01D00205A
:102A2000DC130020494B83FB016342F6BE36A3EB67
:102A3000E1716FF44873CB18B3423FF6B7AE8F1114
:102A4000039ECB1B9E42C8BF98427FF7AFAE9A420F
:102A50007FF7ACAE0F44B842B8BFBE42BFF6A6AED9
:102A6000BA42BFF6A3AE01220B4603928EE622EADB
:102A70000A02374B43F82E2098E643F6FF780146CA
:102A8000CDF80C8032E6334B334A53F821800123D2
:102A900052F821008B40099AC8EB040705961A43A7
:102AA000089B07FB07F70C9E09921A1A56F821306B
:102AB00002FB0272294F013357F82170121246F8B7
:102AC0002130BA420AD80122254B0B9253F821300B
:102AD000039A1344224A42F8213067E6D71B214B60
:102AE000012653F82120BF081F4B02FB07F253F8C1
:102AF000213032440B969B04B3FBF2F3B3F5807F95
:102B000028BF4FF4807303FB04F2C3F58057089C81
:102B100007FB082203FB04F3120B07FB00330D48ED
:102B20001B0B40F821200C4A42F821303EE60EF102
:102B3000010301210D4EC827C3F30C030A917762EC
:102B4000039304910A4B0B499961BBE456555555C3
:102B50006815002000150020D01D0020DC13002087
:102B60007C1F00206C1D0020341E0020000001404E
:102B70000018024000200040002C40F00F85002388
:102B8000BB4A1360BB4B1E68002E00F0B480BA4BEA
:102B9000BA4A1B681268C3F30624B94DC2EB02306F
:102BA000B84A03F07F03116822032B601B03B64D64
:102BB0001044C1EB01312C60000BB44C1944121AC3
:102BC0002568090B2746AD4C206014115A1AAD4BED
:102BD00004FB04F41960131103FB0343C5EB232327
:102BE000002B40F32D84B3EB151FA84B34BF2035C9
:102BF00001351D60A64B1A68A64B1B68D41AA64265
:102C000079D203B1F218A44BA24D1C68A34B2A60E1
:102C10001B68A34AE31A5268DB43C3F30A039B1AF7
:102C20000E2B68D9631C9F4F020CC0F30336C3F30D
:102C30000A03C0F3032017F802802D255A1C17F849
:102C400000E09948C2F30A0217F806C0055554205F
:102C5000541C954E0D0CF054C4F30A04C1F3033612
:102C60007D5D631CC1F30321BF5D2E208D4EC3F338
:102C70000A0316F801A08C4988545A1C30788A49F6
:102C8000C2F30A02884E085501F80380531C01F86C
:102C900002C0C3F30A037D4A844C591C06F803E0C2
:102CA0001268C1F30A0114404B1C70543046C3F340
:102CB0000A03591CF5547B4DC1F30A014B1C775490
:102CC000C3F30A0306F803A00133C3F30A03002C7D
:102CD00000F0C6835A1C4621C2F30A02F154531C69
:102CE000B154C3F30A035A1C0A216F48C2F30A0203
:102CF000C154694B1A606E4B1D68002D00F0638152
:102D00005D4B614A186800F07F06C0F30620B31ED1
:102D10000236871E10607F2E23EAE37300F1020063
:102D200027EAE77700F223837F2888BF7F20544A71
:102D3000B3429E4613601CD807EBC3145D4B03EBF4
:102D40004404023C874200F2DD8221463A4631F8D3
:102D5000023F0132013382420B80F8D90EF1010E9D
:102D600004F58074B645EDD9474B1A60444BC3F85F
:102D700000E0474B50481A684F4B1B68D11A8D42F0
:102D800080F02181002B00F067832B440022036038
:102D90004A4B1A60494B0025D3F800C0AE46484B59
:102DA000A8462946AA461F68AB46464B1E68464BB6
:102DB000029302980C46002330F8022F9142A0F8AB
:102DC00000B038BF1146A24288BF1E4603F101037E
:102DD00081BF94464FF0010857464FF0010E88BF5F
:102DE0000125802B0C46E7D1029B0AF1010A03F56D
:102DF0008073BAF1800F0293DBD1B8F1000F40F07D
:102E00009583BEF1000F01D02D4B1F600DB12D4BEE
:102E10001E602E4B80262B4C1A68294B2468C2EB6F
:102E2000021218682A4B24050705DFF86CB01B68EE
:102E300007EB0222144FC3EB0310174B3E60170B36
:102E40001D6804EB0020154B0D4C1B682660040B1D
:102E50001E4EEB1A3760DB431D4EC3F30A0334608A
:102E60000F4C64681B1B0E2B40F2AD8032E000BF9C
:102E7000981E0020CC1D0020BC1300209C1E0020AA
:102E8000C01300203C140020B8130020D8130020E9
:102E9000D013002060150020E820002050200020E2
:102EA00058600240B8D3000800F804200000F8FF82
:102EB000741F002000C00120301E0020601F002071
:102EC000D4130020781F0020FEBF0120681F0020BF
:102ED000681D00206F1C040FC0F30353C0F3036E82
:102EE000C7F30A07BC484FF02D0ABB4E10F804C0C8
:102EF0007C1C10F80380C4F30A04B84B10F80EE0F1
:102F000003F805A0601C150F5423C0F30A00C2F398
:102F1000036A755DC2F30352B04EF355431CAE4EC7
:102F20002A27C3F30A03B25C16F80AA0AB4E375542
:102F30005F1CA94CC7F30A0724783454781C06F8A0
:102F400003C00B0B06F807E0C0F30A00A24EC1F362
:102F5000032CC1F3031E01F00F01F75C431C16F8AC
:102F60000CC0C3F30A0316F80EE0715C9B4E06F822
:102F70000080581CF454C0F30A040A20631C355521
:102F8000C3F30A035C1C06F803A0C4F30A04631C21
:102F90003255C3F30A035A1CF754C2F30A02531CF6
:102FA00006F802C0C3F30A035A1C06F803E0C2F392
:102FB0000A02531CB154C3F30A035A1CF054C2F35F
:102FC0000A03CBF80030864B1B68002B34D0854BAE
:102FD00084491B68013B0B60002B2DD1824B834839
:102FE0001A68834B00681B680860D31A8149DB4369
:102FF0004968C3F30A035B1AB3F5007F1CD37E4B09
:103000001B68062B18D8DFE803F08961411CAC9ED1
:1030100004007A4B1A687A4B02F07F011868C2F3F9
:1030200006230091C2F3C01201907649764805F05C
:10303000F5FB754800F040FE744B1B680893FFF7E2
:10304000B1B96E4B511C654E1D68C1F30A016C4B42
:103050002C0A18684B1C64F07F04C3F30A03B454B1
:10306000040C75545A1CF454010A684BC2F30A024A
:103070001B68B1540893531CC3F30A035A1CF05441
:10308000C2F30A03584A1360FFF78CB9531C5B491B
:10309000524E0D68C3F30A035949280A0C68591C9B
:1030A00060F07F00C1F30A01B054220AF5544B1CB2
:1030B0007254C3F30A0355485A1C0068F454C2F30F
:1030C0000A03494A08901360FFF76CB94C4B50490A
:1030D0001868504B1B68C31A7F2B0B6000F2CE811F
:1030E000541C464963F07F073C4B0E68C4F30A0446
:1030F000350A611C65F07F05C1F30A019D541E5518
:103100004B1C364AC3F30A035754374A1360414BEA
:1031100018603E4B1B680893FFF744B93749531CAE
:103120002E4D0C68C3F30A033849200A096860F081
:103130007F000891591CA854C1F30A01EC542A4B92
:103140001960FFF72FB92D4B33491A682E4802F04A
:103150007F04C2F30623C2F3C012009405F05EFBA5
:1031600067E72649531C1D4E0D68C3F30A03244923
:103170002C0A581C096864F07F04C0F30A00B45498
:103180000A0EF554431C32540C0C204AC3F30A03B4
:10319000080A1268F45408925A1CC2F30A02531C1B
:1031A000B054C3F30A035A1CF154C2F30A030E4A83
:1031B0001360FFF7F7B800293FF4A2A9174B654643
:1031C00017484FF0C80C1B680468DFF85CE0154F27
:1031D000DFF858A02EE000BFB8D3000800F80420A4
:1031E00040130020BC0A0020E820002048130020E3
:1031F0005020002058600240AC130020BC13002077
:10320000D01300204CC50008C02000205C20002006
:10321000DC090020E00900203CC500081C0A002051
:103220003C13002000180240000001400020004034
:10323000013920D00133BF48BF4E02F1010850F8D8
:103240002200C3F30C0346F82300A342BB48BC4E44
:1032500030F81200C8F30A0280B226F81300E7D152
:103260005C1C0139CEF824C04FF00105C4F30C04F6
:10327000C7F818A0DED1B3480260B34A1160B34A60
:103280001360002D3FF43CA9B14B1C60FFF738B927
:1032900003F0C8FAFFF740B9AE4BAF4A5B6812685B
:1032A00013440892AD4A5B42C3F308031360002B3A
:1032B0007FF478A8AA4AAB490B61D2F8843143F471
:1032C0008043C2F88431D2F8843143F08003C2F8DD
:1032D0008431A54B1968A54B1B6899420FD0A449AE
:1032E0008B6843F000638B60D2F8803143F48043F5
:1032F000C2F880319F4B5B68002B3FF453A820BF7E
:10330000FFF750B80EF1010E3A4604F58074B64549
:103310007FF618AD28E5924B0021924AA542116133
:10332000D3F8842142F48042C3F88421D3F8842165
:1033300042F08002C3F884210FD08D498A6842F0A0
:1033400000628A60D3F8802142F48042C3F8802171
:10335000884B5B68002B3FF46FAE20BF7E4B1B6831
:103360000893FFF71FB801F061FCFFF7E0B87F2872
:103370004FF07F067FF6DBAC9E463046DCE4002350
:103380007D4F11607D4ABC46CDF808B01C460C97B5
:103390009846D2F800A09B46DFF8FCE17848794EC9
:1033A000794D0EE049104FF0010B29600134029B6A
:1033B0004CF8048B0430A34246F8048B05F1040555
:1033C0002FD057F8043B5EF8041B026801FB03F1A1
:1033D000C2EB911102EB2112B2F5806F98BF4FF44E
:1033E000806202601BB13268D201B2FBF3F32A683B
:1033F000991A0029DAD04FF0010B0BFA04FB4AEAC4
:103400000B0A07DD002ACDD002EB21124FF0010B91
:103410002A60CBE773B902EBA1024FF0010B2A60DF
:10342000C4E75B46002B3FF4ADAB544BC3F800A0A0
:10343000FFF7A8BB02EBA1124FF0010B2A60B5E722
:103440003FF4D8AB2A0952429A4234BF203D05F1DD
:10345000FF353D60FFF7CEBB02604C4A136099E434
:10346000591CD40BC2F3C322C1F30A012E5DAC5C1C
:103470004A1CC6544454C2F30A0334E4B3F5804FE3
:1034800024D24349541CDF0963F07F06D1F800E0E1
:10349000C4F30A043F4B4FEA1E25611C65F07F050B
:1034A000C1F30A019D5403F804E04A1C5F543949F2
:1034B000C2F30A02531C8E542C4AC3F30A0313604E
:1034C00025E62E4909980860FFF789B9B3F5001F72
:1034D00002F101052E4965D20E68C5F30A052D4F8C
:1034E0004FEA933E310A6C1CC3F3C61C61F07F01A6
:1034F000C4F30A04B954611C63F07F07254BC1F380
:103500000A015E554A1C03F804E003F801C0C2F347
:103510000A022049531C8F54144AC3F30A03136050
:10352000F5E50A4BC3F800E0FEF7E0BF174BC3F820
:1035300000C066E400C004200040012000E0042038
:1035400000000120D4120020C41300201C0A002017
:103550003C130020286002405C2000205420002002
:1035600000E100E00004014050200020E82000209D
:103570000060024058600240A0140020981E002005
:10358000DC1300207C1F00206C1D0020601F002029
:10359000BC13002000F80420341E0020134B1A60D6
:1035A000FFF7EDBAD1F800C0C5F30A05104EC3F31A
:1035B000465E4FEA1C216C1CC3F38638C3F3C61762
:1035C00061F07F01C4F30A04B154621C63F07F060A
:1035D000074BC2F30A0203F805C0511C03F804E0CC
:1035E00003F80280C1F30A015FE700BFE820002072
:1035F00000F804203D4A00233D494FF0200C4FF0D5
:1036000080402DE9F043146B012587B04FF004088A
:103610002C436B26272740F2E73E14634FF017092F
:10362000146B2C400194019C146C44F0020414644B
:10363000146C04F002040294029CC1F800804FF064
:103640001008C1F804C04FF6FF7C4B628B62CE625B
:103650008B61CB610B624D61146C2C431464146C50
:103660002C400394039C0360436043628362876041
:103670008361C36103624561146C44F008041464FF
:10368000166C1C4C06F008060496049E23606360CA
:103690006362C4F828E0C4F80890A361E361236280
:1036A0006561566C2E435664566CA2F59C322E40D2
:1036B0000596059EC2F800805360C2F824C0C2F887
:1036C00028E097609361D3611362556113682B43BF
:1036D000136023682B43236003682B4303600B684C
:1036E0002B430B6007B0BDE8F08300BF00380240F9
:1036F00000040040000C00404FF0804358627047C7
:103700004FF08043586A7047F0B58BB00024012514
:1037100003266946124803963027009501940294C7
:10372000049403F009FD0223402205A90D480896E0
:103730004FF08046059206930793099303F0FCFC33
:10374000094B0A499D611A6A09482A431A625F6057
:1037500074624C624368AB4200D14B610BB0F0BD68
:10376000000402400000024000040040000001404C
:10377000886402402DE9F0418AB000230225012728
:103780004FF00308064669461B481C4C02930097FD
:1037900001950495CDF80C8003F0CEFC7023E36115
:1037A000236A43F48073236226B13523E3630AB0AE
:1037B000BDE8F0816C22402305A91148E26306951B
:1037C0000795099530250593CDF8208003F0B4FCCA
:1037D000A7614FF08040236A0A4A43F001030A4977
:1037E00023626560466256624B68012BDFD15361EC
:1037F0000AB0BDE8F08100BF0004024000040040B0
:1038000000000240000001408864024030B587B0EB
:1038100000244023032501A90C480193029403943A
:103820000594049503F088FC012301A9084801933D
:10383000029403940495059403F07EFC054B20222A
:103840005A609C61DC611C6207B030BD0000024020
:103850000004024000040040F8B50024334B344D0E
:103860006022344E214634481C602C60346004F0E1
:103870003DFF21466022314804F038FF2146602296
:103880002F4804F033FF214660222E4804F02EFF1B
:10389000214660222C4804F029FF214660222B4853
:1038A00004F024FF2A4B2B484FF4804103F16005BC
:1038B000294A4FF4806443F8041FAB424FF480461A
:1038C00040F8041F4FF4806742F8044FF3D16022A0
:1038D0000021224804F00AFF002321482149036007
:1038E000214A22480B60136003602149214A224C7F
:1038F00022480B6004F5004513602149214A03600A
:10390000214B0E6016601F60204604F580744FF452
:103910008072002104F0EAFEAC42F5D100231B487E
:103920001B491C4A03600B601360F8BD641F002034
:10393000701F00206C1F0020341E00204014002047
:10394000001F0020A01E0020A01400207C1F0020CB
:10395000CC1D0020FC140020D81300206C1D00207A
:1039600064150020981E0020941E0020CC1D00200D
:1039700060150020741F002000C00120301E0020B0
:103980003C1400209C1E0020D8130020601F002043
:10399000781F0020D41300202DE9F04FA4482DED0E
:1039A000028B9DB000F088F9A24800F085F9A2488A
:1039B00000F082F9A14800F07FF902F0EDF907204C
:1039C000FDF73EFCFDF738FD3220FEF77BF94FF4A2
:1039D000006200219A4804F089FE4FF480320021F1
:1039E000984804F083FE984B002203F5C03143F859
:1039F0000C2C0C3343F8142C43F8102C9942F6D1BC
:103A0000924C934DA368DFF86CA223F04003A360AF
:103A10006B68C3F50063CAF80030FEF7B7F8019091
:103A20006420FEF7A3F8E36913F0200340F0D5808B
:103A300099469FED888A0095009BDAF800405D6802
:103A400025446D42C5F30A05002D00F0BF80DFF864
:103A5000F0B14F4678E04FEA530C0A4303F07F037E
:103A60007D480CF47E514BF82E200B437B499A0085
:103A70001144D1F83819711A0840002840F0C98063
:103A800088B203EB430CDFF8F0E1744B42F6BE382A
:103A90001A440EEB4C03B3F8B0EAB3F8B2CAC2F85A
:103AA000386901EB0E02B3F8B49A6244A3F8B00A85
:103AB000A3F8B2EAA3F8B4CA02EB09036FF44872A0
:103AC00098108218424534D85B12C21A03449142BE
:103AD0002FDD99422DDA96452BDD9E4529DA944556
:103AE00027DD9C4525DA914523DD994521DA07EE4E
:103AF000900AF8EEE77A17EE900AFCF713FD48A358
:103B0000D3E90023FCF762FD8046894618EE100ACF
:103B1000FCF708FD44A3D3E90023FCF757FD024658
:103B20000B4640464946FCF79FFBFCF761FF08EE59
:103B3000100A4B4B3B449E4231D80134013DC4F343
:103B40000A04CAF8004040D0464B4FF0010C53F82D
:103B50002460454B33F814309BB29909C3F3411EDE
:103B600003F01F0203F0800001F4FE710CFA02F270
:103B700080B241EA0E0E5BF82E1012EA010C18BF5B
:103B80004FF0800C8445D4D000287FF464AF344BD0
:103B900021EA02023B444BF82E209E42CDD9FCEE96
:103BA000C87A324903A8374617EE902A04F036FE49
:103BB00003A800F081F8DAF80040013D04F10104A7
:103BC000C4F30A04CAF80040BED1B94601F078F83F
:103BD0001E4BDB699B067FF52FAF1C4A0198536A89
:103BE000DBB28DF80B309DF80B300133DBB28DF872
:103BF0000B30936843F040039360FDF7B7FF1C4818
:103C000000F05AF802F0C8F81DB0BDEC028BBDE818
:103C1000F08F43F6FF70014633E700BFAFF300803B
:103C20007B14AE47E17A843FAE47E17A14AEEF3FB2
:103C300060C5000890C50008CCC5000818C600087B
:103C400068150020004002200C400320004800407E
:103C5000A06002400000000000C0FFFFC836022044
:103C600040420F0000C0042000E0042058C60008B5
:103C700038C60008D41200205035032010B509487A
:103C80000A2400F019F8084800F016F8074800F078
:103C900013F8074A074811684B1C4454C3F30A033E
:103CA000136010BD68C6000874C6000878C6000816
:103CB000E820002000F8042003787BB1084930B4E4
:103CC0000B68084D5A1C0A6010F8014BEC54C2F303
:103CD0000A030B600278002AF4D130BC704700BFA1
:103CE000E820002000F80420F0B5964E93B07378D9
:103CF000423B322B00F29380DFE803F07991914F41
:103D00009191919191912A919191919191911A9181
:103D10009191919191919191919191917991914FED
:103D20009191919191912A919191919191911A00F2
:103D3000B278844B2E2A00F01F812A2A00F02E81AF
:103D400002F0DF014D2940F09581FFF725FE22E0CA
:103D5000B6787C4A2D2E00F0E8812B2E00F0DD8213
:103D6000D3783D2B00F0B682FA202E2E00F0E782A9
:103D700075492D22754B764C764D48629C6176498B
:103D8000764C2B68E254013311F8012FC3F30A0378
:103D9000002AF7D12B6013B0F0BDB278694B02F066
:103DA000DF01542900F09A80462940F03781D97804
:103DB00001F0DF02582A00F0C981592A40F0D08270
:103DC0001B792D22664E634D2B2B31682B6800F03A
:103DD0003C8421F00400614C62493060E2540133BC
:103DE00011F8012FC3F30A03002AF7D1D2E7B17803
:103DF000544B01F0DF02462A1FD1564D2D225A495D
:103E00002B68564CE254013311F8012FC3F30A0317
:103E1000002AF7D12B60FDF70FFB13B0F0BD4D4D1D
:103E2000532252492B684D4CE254013311F8012FB3
:103E3000C3F30A03002AF7D1ACE7442A00F0DA8082
:103E4000A1F13002092A00F241820233002202EB82
:103E5000820201EB420213F8011FA1F13000303A57
:103E60000928F4D90B2A144640F3678200252C4612
:103E700059785A1CA1F13003092B00F2AB830023BF
:103E800003EB830301EB430312F8011FA1F13000A0
:103E9000303B0928F4D96FF07F419942A8BF1946F9
:103EA0002846334FFDF7BAF92846FDF7BFF92246F9
:103EB00003463049384604F0B1FC3A78002A3FF412
:103EC0006AAF244D3846254C2B68E254013310F874
:103ED000012FC3F30A03002AF7D15BE7DA78A2F1D6
:103EE00049032A2B00F2D481DFE813F0FA00D20153
:103EF000D201D2010A01D201D201D201D201D201F2
:103F0000EA00D201D201D201D201D201D201D20102
:103F1000D201D201D201D201D201D201D201D20109
:103F2000D201D201D201D201D201D201FA00D201D2
:103F3000D201D2010A01D201D201D201D201D201B1
:103F4000EA0000BF4C2100200000014000180240A0
:103F500000200040E820002060C7000800F804208E
:103F60004413002008C70008A0C60008C4C8000801
:103F7000C0200020E0C80008DA783D2A00F0178150
:103F8000AD4D7522AD492B68AD4CE254013311F8AB
:103F9000012FC3F30A03002AF7D1FBE6DA783D2AA2
:103FA000EED11A79A2F13001092900F28883043395
:103FB000002404EB840402EB440413F8012FA2F163
:103FC0003001303C0929F4D99E4900229E4B0C60F7
:103FD0001A60002C40F01B83974D2D229B492B68C3
:103FE000974CE254013311F8012FC3F30A03002A5E
:103FF000F7D1CFE6DA78A2F13003092B40F2008145
:104000008D4D532292492B688D4CE254013311F8A7
:10401000012FC3F30A03002AF7D1BBE6502900F0B1
:10402000AC80532940F0B381DA782B2A00F01C834E
:1040300002F0DF02582A40F049821A7902F0DF02CA
:10404000592A40F043825B792D22824E7A4D2B2BE8
:1040500031682B6800F0438321F00800784C7E49DA
:104060003060E254013311F8012FC3F30A03002A30
:10407000F7D18FE6422940F04183DA786E4DA2F104
:104080003006F1B2092900F2398174482D222B68DB
:1040900073496B4C0660E254013311F8012FC3F3EE
:1040A0000A036748002AF6D15A1C30360A21C2F3A7
:1040B0000A02C654531C8154C3F30A032B606AE6F8
:1040C0005D4DFFF721FB5E4C2D222B686549E254C4
:1040D000013311F8012FC3F30A03002AF7D159E67F
:1040E000554DFFF793FB564C2D222B685E49E25449
:1040F000013311F8012FC3F30A03002AF7D149E66F
:1041000033794D4D302B00F0AF8101204C4CFFF73F
:1041100031FB2B682D225549E254013311F8012F50
:10412000C3F30A03002AF7D134E6434DFDF746FDF9
:10413000434C33462A684E49A354013211F8013FDB
:10414000C2F30A02002BF7D12A6024E61B792D2244
:10415000404E394D2B2B31682B6800F0A98121F09E
:104160000200374C43493060E254013311F8012F0B
:10417000C3F30A03002AF7D10CE6DA78354E2B2A6E
:1041800000F082812D2A00F0E78131682D222A4D2E
:1041900021F400402A4C2B6837493060E254013347
:1041A00011F8012FC3F30A03002AF7D1F2E51A79B7
:1041B000A2F13001092900F288820433002404EBC3
:1041C000840402EB440413F8012FA2F13001303CC7
:1041D0000929F4D929490022294B0C601A60002CC6
:1041E00040F0FA81144D2D2226492B68144CE254DC
:1041F000013311F8012FC3F30A03002AF7D1C9E5EF
:10420000214F2249384604F009FB3A7862B10A4D41
:1042100038460B4C2B68E254013310F8012FC3F3DE
:104220000A03002AF7D12B60F0783038FDF708F840
:10423000FDF702F9AFE500BFE8200020A4C80008A0
:1042400000F80420741F0020301E002078C70008EA
:10425000A8C600084413002040C70008941E002090
:1042600088C70008D0C60008E8C60008E0C60008F5
:1042700048C70008F8C6000830C70008CC1D002059
:104280006015002068C70008C0200020D8C80008BA
:104290003D2A00F0D5800024B84F2046FFF72CFAC5
:1042A00022463846B64904F0B9FA3A78002A3FF473
:1042B00072ADB44D3846B44C2B68E254013310F85B
:1042C000012FC3F30A03002AF7D163E50025023367
:1042D0002C46CDE51379A3F13001092900F2B28112
:1042E0000432002000EB800003EB400012F8013F95
:1042F000A3F1300130380929F4D936E53D2A7ED0C2
:104300005422A2492B68A04CE254013311F8012F2A
:10431000C3F30A03002AF7D13CE59A4DFDF73CFCB4
:10432000994C2D222B689A49E254013311F8012F40
:10433000C3F30A03002AF7D12CE5154698E5914D01
:1043400080B2FDF713FC904C2B682D229149E2546A
:10435000013311F8012FC3F30A03002AF7D119E53D
:104360008D4E2B29874D4FF02D0231682B6800F0C0
:104370008F8121F00100844C88493060E254013380
:1043800011F8012FC3F30A03002AF7D102E54429EB
:1043900040F0AF80D9783D290CBF13F8041F0333D8
:1043A000A1F13002092A00F28281002202EB82028E
:1043B00001EB420213F8011FA1F13000303A092845
:1043C000F4D9774B1A60002A00F072816B4F0124F8
:1043D000744B384674491C6004F020FA3A78002A7D
:1043E0003FF4D9AC674D3846674C2B68E254013333
:1043F00010F8012FC3F30A03002AF7D1CAE4187991
:104400003038C3B2092B3FF67BAF684E2D222B68A4
:1044100067495D4C3060E254013311F8012FC3F35A
:104420000A03594E002AF6D15A1C30300A21C2F331
:104430000A02F054531CB154C3F30A032B60AAE4DC
:104440003379A3F13002092A3FF625AF594A0024F7
:1044500004EB840403EB440412F8013FA3F13001A0
:10446000303C0929F4D917E70020474CFFF782F9BF
:104470002B682D225049E254013311F8012FC3F368
:104480000A03002AF7D185E431682D223D4D21F041
:1044900080003D4C2B6840F4004048493060E254B5
:1044A000013311F8012FC3F30A03002AF7D171E495
:1044B00041F00200344C42493060E254013311F8BB
:1044C000012FC3F30A03002AF7D163E4324E2D22F1
:1044D0002C4D31682B6821F008002B4C3949306095
:1044E000E254013311F8012FC3F30A03002AF7D174
:1044F00050E43D2A0CBF13F8032F0233A2F1300120
:10450000092900F2E880002101EB810102EB410161
:1045100013F8012FA2F1300030390928F4D9062907
:1045200040F2C980062328491A460B60134F2749D9
:10453000384604F073F93A78002A3FF42CAC114D58
:104540003846114C2B68E254013310F8012FC3F3A5
:104550000A03002AF7D11DE4316848F28000094DB2
:104560000843094C2B681A493060E254013311F8B2
:10457000012FC3F30A03002AF7D10BE4C020002067
:10458000ECC80008E820002000F804208CC70008D0
:1045900050C7000858C700084413002018C7000877
:1045A00048130020BC0A0020F8C80008941E002010
:1045B00088C7000850210020D8C6000820C700087E
:1045C000F0C6000840C70008AC13002004C900086A
:1045D00028C70008002163E4AF4B2246AF4902A878
:1045E000B3FBF4F304F01AF99DF80820002A3FF415
:1045F000D2ABAB4D02A9AB4C2B68E254013311F89E
:10460000012FC3F30A03002AF7D1FFF7C3BBA24B64
:104610002246A54902A8B3FBF4F304F0FFF89DF885
:104620000820002A3FF4B7AB9D4D02A99D4C2B6892
:10463000E254013311F8012FC3F30A03002AF7D122
:10464000FFF7A8BB0020FFF790BB41F00400954C9A
:1046500096493060E254013311F8012FC3F30A0385
:10466000002AF7D1FFF796BB914E2D228C4D316871
:104670002B6841F008008B4C8E493060E2540133C6
:1046800011F8012FC3F30A03002AF7D1FFF782BB09
:1046900041F00100834C88493060E254013311F845
:1046A000012FC3F30A03002AF7D1FFF773BB834B33
:1046B00001221A608AE6824B0A46196036E7002317
:1046C0008049814A0B60136086E400237F49804A59
:1046D0000B60136086E57A4B00221A6026E741F0F2
:1046E0000800704C73493060E254013311F8012F17
:1046F000C3F30A03002AF7D1FFF74CBB2B2A2FD0B4
:104700002D2A00F09E806F2A00F00281442940F09B
:104710000281DA78A2F13001C8B2172803D81B79D8
:104720003D2B00F0738102F0DF024D2A09D132796E
:104730006849303AD3B2172B03D84B793D2B00F0A0
:10474000DA81574D652264492B68564CE254013397
:1047500011F8012FC3F30A03002AF7D1FFF71ABBA0
:10476000D9783D290CBF13F8041F0333A1F130029F
:10477000092A00F2E680002202EB820201EB4202EB
:1047800013F8011FA1F13000303A0928F4D9534E33
:104790003264002A00F0D6802C2900F0E080520913
:1047A0004F4C1021112022648D0056F821202C44FA
:1047B0005309354403EB43030139A2EB03024FEAEB
:1047C000521345F8042D44F8043DF3D1454B182805
:1047D000334D1860334C07D08200002106EB800077
:1047E000C2F1600203F082FF3F49404F01F1600CCB
:1047F0003F4E404851F8043F5A098C45C2EB030E26
:10480000134447F8042F46F804EF40F8043FF1D171
:1048100039490022394B44F6206607201A600E60A1
:10482000FCF70EFDFCF708FE2B6843223449E254E6
:10483000013311F8012FC3F30A03002AF7D1FFF760
:10484000A9BA00262D4B2C4C6022314623481E600D
:10485000266003F04BFF31466022214803F046FFFB
:104860000F4D31466022274803F040FF3146602259
:10487000254803F03BFF0B4C1A482D222B68234997
:104880000660E254013311F8012FC3F30A03002A32
:10489000F7D1FFF77FBA00BF40420F000CC90008F4
:1048A000E820002000F8042020C9000800C7000804
:1048B0004413002038C7000810C700084813002020
:1048C000AC130020741F0020301E0020CC1D0020DF
:1048D000601500204C2100203CC80008341E002038
:1048E0004014002064150020301E00203C140020DD
:1048F000FC1E00209C1E00206C1F0020641F002056
:10490000FCC70008001F0020A01E002034C80008BB
:10491000DA78662A1BD052297FF432ABF378AF499C
:104920003D2B49D0AE4D6522AE492B68AE4CE254CA
:10493000013311F8012FC3F30A03002AF7D1FFF75F
:1049400029BAAA4E41F27073BB22336428E71B795F
:10495000662B3FF476AF5229E4D0FFF711BB5A78AB
:104960000133A2F13001092900F22681002000EB79
:10497000800002EB400113F8012FA2F13004A1F1F5
:104980003000092CF3D9182840F29480944D41222C
:1049900097492B68944CE254013311F8012FC3F36B
:1049A0000A03002AF7D131681046924F49092B605B
:1049B000914B39601A600FE70A79A2F13003092B95
:1049C00000F204810431002303EB830302EB430371
:1049D00011F8012FA2F13000303B0928F4D98748A3
:1049E0000021874A03601160002B40F0C4807C4D99
:1049F0002D2284492B687C4CE254013311F8012F9D
:104A0000C3F30A03002AF7D1FFF7C4B97379A3F1FE
:104A10003002092A59D800247B4A04EB840403EBB2
:104A2000440412F8013FA3F13000303C0928F4D9C6
:104A30006309704E754D46F82130E71A1819744A0B
:104A40006A4E45F8217042F8210046F82140002CBA
:104A500048D0704D01F130020093234602AFD2B22C
:104A60006D493846B5FBF4F4019403F0D7FE9DF888
:104A7000082062B15A4D39465B4C2B68E254013331
:104A800011F8012FC3F30A03002AF7D12B6000228B
:104A9000594C33682260002B3FF47DA9534A01230F
:104AA00000E0034652F8041F581C0029F9D1236086
:104AB000FFF771B931394F4C56F821305B0944F892
:104AC000213000297FF470AE80E60023474E494C28
:104AD0004E484F4A46F8213044F8213040F8213002
:104AE00042F8213001F1300202AF4C49D2B23846CF
:104AF00003F094FEBBE78879A0F13003092B6BD853
:104B00000631002303EB830300EB430311F8010F8D
:104B1000A0F13004303B092CF4D934493B4E51F814
:104B200022403B48E71AE518324946F8227040F81F
:104B3000225041F82230002C38D0364D02AF00937D
:104B4000234638463649B5FBF4F4019403F066FE7B
:104B50009DF8081000293FF41EA9214D3A46224C29
:104B60002B68E154013312F8011FC3F30A03002933
:104B7000F7D1FFF70FB9274C1A462A4902A8B4FB10
:104B8000F3F303F04BFE9DF8081000293FF403A94E
:104B9000134D02AA144C2B68E154013312F8011F83
:104BA000C3F30A030029F7D1FFF7F4B802AF1E4997
:104BB000384603F033FECBE756F8043C4FF0FF31A4
:104BC0000C4C00205B0944F8043CEDE500230B4944
:104BD0000B4A0B6013600AE700239EE74C2100207C
:104BE000E820002070C8000800F80420341E0020CF
:104BF000B4C7000840140020641500206C1F00207A
:104C0000641F002060C8000851210020001F002000
:104C1000A01E002040420F0034C9000854C90008FB
:104C200068C900089CC9000888C9000870B41E4AF9
:104C30001E4D14682B681E4EE41A1E44C4F30A0469
:104C40001A19B2F5006F26F01F0288BFC3F5006481
:104C5000BFF34F8F04F11F03002B0EDD04F11E0183
:104C600002F12003134821F01F0119449942C0F8B2
:104C700068221A4603F12003F8D1BFF34F8FBFF328
:104C80006F8F0D490D4B8A6842F074628A605C60D8
:104C9000DE601A6842F001021A602B681C44C4F3FB
:104CA0000A042C6070BC7047E820002050200020CF
:104CB00000F8042000ED00E000600240586002406F
:104CC000284A294B51681B68284A0B445B42C3F3AE
:104CD000080370B51360002B41D1254E254A336877
:104CE0001268934202D02449496801B170BDD21ABA
:104CF000224CC2F30A051C445A19B2F5006F24F085
:104D00001F0288BFC3F50065BFF34F8F05F11F0376
:104D1000002B0EDD05F11E0102F12003184821F0E1
:104D20001F0119448B42C0F868221A4603F1200380
:104D3000F8D1BFF34F8FBFF36F8F12490E4B8A68C4
:104D400042F074628A605D60DC601A6842F00102C1
:104D50001A6032682A44C2F30A02326070BD01F060
:104D600061FDBAE7286002405C200020542000204A
:104D700050200020E82000205860024000F8042065
:104D800000ED00E000600240F8B5B74CFEF776FF9A
:104D9000636823B1FFF794FF6368002BFAD1B34D2A
:104DA0000A26B34C53232868B249421C2654C2F346
:104DB0000A02A354013211F8013FC2F30A02AC4EB9
:104DC000002BF6D1531C0A272021AB48C3F30A035A
:104DD000B754E154013310F8011FC3F30A0300294B
:104DE000F7D12022A549E254013311F8012FC3F372
:104DF0000A03002AF7D12022A149E254013311F815
:104E0000012FC3F30A03002AF7D120229D49E2545F
:104E1000013311F8012FC3F30A03002AF7D120222E
:104E20009949E254013311F8012FC3F30A03002A10
:104E3000F7D120229549E254013311F8012FC3F331
:104E40000A03002AF7D120229149E254013311F8D4
:104E5000012FC3F30A03002AF7D120228D49E2541F
:104E6000013311F8012FC3F30A03002AF7D12022DE
:104E70008949E254013311F8012FC3F30A03002AD0
:104E8000F7D120228549E254013311F8012FC3F3F1
:104E90000A03002AF7D120228149E254013311F894
:104EA000012FC3F30A03724F002AF6D1581C0A22BD
:104EB0006D4EC0F30A00FA54286073682BB1FFF7F7
:104EC000FFFE7368002BFAD128682023754A23540B
:104ED000013012F8013FC0F30A00002BF7D1202364
:104EE000714A2354013012F8013FC0F30A00002B2D
:104EF000F7D120236D4A2354013012F8013FC0F34B
:104F00000A005B4E002BF6D1431C47275D226849FF
:104F1000C3F30A033754E254013311F8012FC3F3EA
:104F20000A03002AF7D120226249E254013311F822
:104F3000012FC3F30A03002AF7D120225E49E2546D
:104F4000013311F8012FC3F30A03002AF7D12022FD
:104F50005A49E254013311F8012FC3F30A03002A1E
:104F6000F7D120225649E254013311F8012FC3F33F
:104F70000A033F4E002AF6D15A1C0A272021514825
:104F8000C2F30A02F754A154013210F8011FC2F310
:104F90000A020029F7D120234B49A354013211F80A
:104FA000013FC2F30A02002BF7D120234749A35443
:104FB000013211F8013FC2F30A02002BF7D120237E
:104FC0004349A354013211F8013FC2F30A022848B1
:104FD000002BF6D1531C0A21234EC3F30A0381543C
:104FE0002B6072682AB1FFF76BFE7368002BFAD151
:104FF0002B6820223749E254013311F8012FC3F303
:105000000A03002AF7D120223349E254013311F870
:10501000012FC3F30A03002AF7D120222F49E254BB
:10502000013311F8012FC3F30A03002AF7D120221C
:105030002B49E254013311F8012FC3F30A03002A6C
:10504000F7D120222749E254013311F8012FC3F38D
:105050000A030748002AF6D15A1C0A21C2F30A02A1
:10506000C1542A60F8BD00BF58600240E82000200B
:1050700000F80420B0C90008C8C9000818CA000810
:105080005CCA0008B0CA0008E8CA000824CB0008BF
:105090004CCB00088CCB0008C4CB000804CC000823
:1050A00034CC00085CCC0008ACCC0008F4CC000880
:1050B00024CD000844CD000880CD0008C0CD0008F4
:1050C00014CE000868CE0008B4CE0008E4CE000874
:1050D00020CF000854CF000888CF0008A8CF0008D0
:1050E000CCCF0008F8CF000810B5294C636823B175
:1050F000FFF7E6FD6368002BFAD1264C20212648F5
:105100002368264AD154013310F8011FC3F30A0360
:105110000029F7D120212248D154013310F8011F72
:10512000C3F30A030029F7D120211E48D1540133CB
:1051300010F8011FC3F30A030029F7D120211A48F0
:10514000D154013310F8011FC3F30A030029F7D12A
:1051500020211648D154013310F8011FC3F30A036C
:105160000029F7D120211248D154013310F8011F32
:10517000C3F30A030029F7D120210E48D15401338B
:1051800010F8011FC3F30A030029F7D1236010BDF3
:1051900058600240E820002018D0000800F80420E1
:1051A00060D00008A4D00008E8D000082CD1000886
:1051B00070D10008A8D100082DE9F04F874D97B0B5
:1051C0006B783F3B372B00F25783DFE813F03D004D
:1051D00055035503650021015503A70055035503E9
:1051E00055035503550355035503550355035503FF
:1051F0005503550355035503CE0055033800550399
:1052000055035503550355035503550355035503DE
:1052100055035503650021015503A70055035503A8
:1052200055035503550355035503550355035503BE
:105230005503550355035503CE0055033800FEF7BB
:105240001DFD17B0BDE8F08FAB7803F0DF03452BF1
:1052500000F0CC83542B40F0DF8361482D21614C5A
:105260000368614AD154013314F8011FC3F30A03E0
:105270000029F7D1302103604C1CD15401335A4D21
:10528000E1B2C3F30A034829F6D15A1C0A21C2F33A
:105290000A02E9540260D4E7AB780D2B18BF0A2B41
:1052A00000F0848303F0DF02A2F14102B2FA82F23D
:1052B0005209002A40F07A83A3F13001092900F253
:1052C00047834A4902EB820203EB420211F8013F95
:1052D000A3F13000303A0928F4D90B2A144640F3E0
:1052E000328400200446424DFBF7A0FF41490346AB
:1052F0002246284603F092FA29780029A1D038489E
:10530000394A0368D154013315F8011FC3F30A0366
:105310000029F7D1036017B0BDE8F08FAB782F4AB2
:1053200003F0DF03542B00F01683462B40F0B382CA
:10533000D37803F0DF03582B00F0E482592B2E4B77
:1053400027484FF02D011B6840F02B845E0740F189
:105350009C842A4C0368244AD154013314F8011F59
:10536000C3F30A030029F7D1D4E7AB781B4E2E2BE9
:1053700000F009832A2B00F03C8303F0DF03442B69
:1053800040F0A182F1783039CBB2172B00F247837D
:105390001B4B53F82160002E00F03A84194D06ACE7
:1053A000194F0A463346204657F82170174900978F
:1053B000B5FBF6F5019503F031FA9DF818100029B8
:1053C0003FF43FAF0648084A0368D154013314F84C
:1053D000011FC3F30A030029F7D19BE74C210020EA
:1053E000E820002060D2000800F804204E210020B0
:1053F000C0200020E0C800084413002000C70008B7
:10540000341E002040420F004014002068C90008EC
:10541000E04B4421E0481A681D684FEA124E0368C9
:10542000C5F30B07DD4CDE4AD154013314F8011FDC
:10543000C3F30A03DA4E0029F6D103F1010805F09F
:105440000F013C0AD74DC8F30A08C7F3031715F834
:105450000190302108F1010C15F807B0F15420211A
:10546000CCF30A0C15F804A0CF4C0CF1010706F898
:1054700008A006F80CB0C7F30A077B1C06F80790D3
:10548000C3F30A030360D154013314F8011FC3F3BB
:105490000A03C34F0029F6D15C1C4FEA1E31CEF33C
:1054A000032CCEF30316C4F30A0415F8019015F883
:1054B0000C800EF00F0E611C07F8039007F80480B3
:1054C000C1F30A01AE5D15F80EC04FF00A0E4B1C79
:1054D0007E544321B54EC3F30A035C1C07F803C096
:1054E000C4F30A04631C07F804E0C3F30A0303606F
:1054F000D154013316F8011FC3F30A03A84C002945
:10550000F6D1AB4E5F1CAB494FF02E0E0760C7F3D0
:105510000A07D6F800804FF00A0C07F101094FEA9C
:105520001878C0F80090C9F30A0915F8088004F843
:10553000038009F101083368C0F80080C8F30A0845
:10554000C3F30363EB5CE35508F1010733680760BD
:10555000C7F30A07C3F30353EB5C04F8093033685D
:10556000C3F303497B1C15F809900360C3F30A03D6
:1055700004F80890D6F8009003F10108C9F3033944
:10558000C0F80080C8F30A0815F8099004F80790DD
:105590003768C7F3032908F1010715F80990076078
:1055A000C7F30A0704F80390336807F1010AC3F34D
:1055B0000319CAF30A03C0F800A015F8099004F80B
:1055C000089003F101083668C8F30A0806F00F06D0
:1055D00015F8069008F1010604F80790C6F30A09C9
:1055E00004F803E0066009F101060B680660C6F3E3
:1055F0000A061B0FEB5C04F80830731C0F6803608D
:10560000C3F30A03C7F30367EF5D04F8097003F1FE
:1056100001090F68C0F80090C7F30358C9F30A07DF
:1056200015F8088007F1010904F806800E68C0F833
:105630000090C6F30348C9F30A0615F8088006F17E
:10564000010904F803800B68C0F80090C3F3033825
:10565000C9F30A0315F8088003F1010904F807806B
:105660000F68C0F80090C7F30328C9F30A0715F8BC
:10567000088007F1010904F806800E68C0F8009060
:10568000C6F30318C9F30A0615F8088004F8038066
:1056900006F101080B68C8F30A0103F00F08464B36
:1056A00001F1010915F8088004F80780C9F30A0818
:1056B00004F806E04626C0F8009008F101091F68CA
:1056C000C0F800904FEA177EC9F30A0715F80EE0FC
:1056D00007F1010904F801E01968C0F80090C1F36E
:1056E000036EC9F30A0115F80EE004F808E001F1B1
:1056F000010ED3F80080C0F800E0CEF30A0EC8F324
:1057000003580EF1010915F8088004F807801F6896
:10571000C0F80090C7F30348C9F30A0715F80880DA
:1057200007F1010904F801801968C0F80090C1F37D
:105730000338C9F30A0115F8088004F80E8001F156
:10574000010ED3F80080C0F800E0CEF30A0EC8F3D3
:1057500003280EF1010915F8088004F807801F6876
:10576000C0F80090C7F30318C9F30A0715F80880BA
:1057700004F80180791C1B68C1F30A0103F00F08CB
:105780000E4B15F8088004F80E8004F807C001607D
:1057900016E000BF002004E0E8200020F0D100085F
:1057A00000F80420B8D3000808D2000810D200087E
:1057B00020F4F01F24F4F01F28F4F01F20D200087A
:1057C0005654013113F8016FC1F30A019B4C002EAE
:1057D000F6D19B4B4E1C1F88C6F30A06C7F303374E
:1057E00006F1010EEF5DCEF30A0E67540EF10107CC
:1057F0001988C7F30A07C1F30321695CA1557E1C10
:105800001988C6F30A06C1F30311695C04F80E1087
:1058100006F1010E1988CEF30A034FF00A0E01F0CB
:105820000F01036015F801C0502104F807C004F807
:1058300006E0844CD154013314F8011FC3F30A036A
:105840007E4E0029F6D15A1C7F4930240A27C2F324
:105850000A02B1F800E0F454531C0C88C3F30A03A5
:10586000C4F30224591C2C5DC1F30A01B454F7544B
:10587000016017B0BDE8F08F74484721744C03688D
:105880006E4AD154013314F8011FC3F30A030029EF
:10589000F7D103603FE5502B47D0532B40F05681A2
:1058A0006C4B2D2169481B681B0740F1D4816A4C61
:1058B0000368624AD154013314F8011FC3F30A0389
:1058C0000029F7D126E5422B40F0E0805F482D21EA
:1058D000624C0368594AD154013314F8011FC3F3D1
:1058E0000A03564D0029F6D15A1C5D490A26C2F317
:1058F0000A020C68511C3034C1F30A01EC54AE5456
:1059000001609EE4534B2D2150481B689F0740F1D6
:105910005781544C0368494AD154013314F8011F8C
:10592000C3F30A030029F7D1F4E44A4B2D21474879
:105930001B681C0400F125814B4C03683F4AD1547D
:10594000013314F8011FC3F30A030029F7D1E1E47E
:1059500010461446C7E4454DFDF7D2FE44490246C1
:10596000284602F05BFF297800293FF46AAC3748EB
:10597000324A0368D154013315F8011FC3F30A03F7
:105980000029F7D1C6E43B4B1B68002B40F0258172
:105990002E482D21384C0368284AD154013314F87D
:1059A000011FC3F30A030029F7D1B3E400242F4DEC
:1059B000264E2046FBF73AFC224603462F492B4849
:1059C00002F02CFF2A785AB1336828491B48C25488
:1059D000013311F8012FC3F30A03002AF7D1336012
:1059E00001340C2CE5D117B0BDE8F08FFFF77CFB3C
:1059F00027E4234B1B68002B40F0128113482D2114
:105A0000204C03680D4AD154013314F8011FC3F32D
:105A10000A030029F7D17DE4FFF7B6F911E40B483A
:105A20006721194C0368054AD154013314F8011F4A
:105A3000C3F30A030029F7D16CE400BF00F8042087
:105A400042F4F01F2CD20008F07BFF1FE82000205A
:105A500080D200084413002038C7000888C7000817
:105A6000941E0020F0C6000830C70008C0200020A7
:105A7000ECC80008CC1D002068C70008E0C800087A
:105A8000741F002078C700083CD20008A84A176895
:105A9000002F40F01481A7482D24A74D0168A74A84
:105AA0005454013115F8014FC1F30A01002CF7D10C
:105AB0000160522B3FF4C5ABDFF8D0B2DBF8003009
:105AC000002B3FF4BEAB9E4E0025DFF8C49206AC1F
:105AD000DFF8C0829B4FDFF85CA2059659F8043BC3
:105AE00005F1300258F8041B2046974ED2B20093BD
:105AF0000B4657F804EBB6FBF1F1059ECDF808E034
:105B000056F804EB0191CDF80CE09049059602F0AF
:105B100085FE9DF818207AB1DAF8003021468748D2
:105B2000059EC254013311F8012FC3F30A03002A62
:105B3000F7D10596CAF800300135DBF80030AB42EA
:105B4000CCD8FFF77EBB1046FFF7CDBB442B40F00F
:105B5000D2807F4B7F4D80491A68284602F05EFE56
:105B6000297800293FF46DAB7248744A0368D15418
:105B7000013315F8011FC3F30A030029F7D1FFF71A
:105B8000C9BB1A0640F18E80744C03686B4AD1542D
:105B9000013314F8011FC3F30A030029F7D1FFF7FB
:105BA000B9BBDD0764D56E4C0368644AD154013338
:105BB00014F8011FC3F30A030029F7D1FFF7AABBAA
:105BC000684C03685D4AD154013314F8011FC3F3D4
:105BD0000A030029F7D1FFF79DBB5B4C1A466249C7
:105BE00006A8B4FBF3F302F019FE9DF81810002983
:105BF0003FF427AB4F4806AC504A0368D1540133F9
:105C000014F8011FC3F30A030029F7D1FFF782BB81
:105C100006AC0A465549204602F000FEFFF7CDBB10
:105C2000494C1A46504906A8B4FBF3F302F0F6FDBE
:105C30009DF8181000293FF404AB3E4806AC3F4ADB
:105C40000368D154013314F8011FC3F30A03002978
:105C5000F7D1FFF75FBB464C0368384AD154013394
:105C600014F8011FC3F30A030029F7D1FFF752BB51
:105C7000404C0368314AD154013314F8011FC3F377
:105C80000A030029F7D1FFF745BB3B4C03682B4AB9
:105C9000D154013314F8011FC3F30A030029F7D1CB
:105CA000FFF738BB354C0368244AD154013314F84C
:105CB000011FC3F30A030029F7D1FFF72BBB224BC7
:105CC00006AC3A462E492046B3FBF7F302F0A6FD98
:105CD0009DF818303BB31748184A016853540131F6
:105CE00014F8013FC1F30A01002BF7D1AB78016032
:105CF00003F0DF03DDE6234B164D23491A682846DF
:105D000002F08CFD297800293FF49BAA09480B4A30
:105D10000368D154013315F8011FC3F30A030029A6
:105D2000F7D1FFF7F7BAB37803F0DF03C1E600BF9E
:105D30006C1F0020E820002060C8000800F8042044
:105D4000A01E0020001F002040420F0094D2000837
:105D500048130020C0200020F8C8000828C7000809
:105D600010C70008F8C600080CC9000888C9000858
:105D700040C7000818C7000808C7000820C7000867
:105D80009CC90008AC13002004C900086415002059
:105D900040140020341E00202DE9F0473D4EFEF750
:105DA0008FFF3D4F3D4DDFF808A1DFF80891DFF888
:105DB00008813B4C6B68002B4CD1326839688A42B1
:105DC0005BD0DAF80400D9F8003003445B42C3F337
:105DD0000803C8F80030002B4CD16B68002BE9D1C8
:105DE000891AC1F30A018B18B3F5006F2D4B03EB31
:105DF000020E88BFC2F500612EF01F02BFF34F8F65
:105E000001F11F03002B0DDD01F11E0002F1200343
:105E100020F01F0018448342C4F868221A4603F198
:105E20002003F8D1BFF34F8FBFF36F8F1E4A9368E3
:105E300043F0746393606960C5F80CE02B6843F02D
:105E400001032B6033680B44C3F30A0333606B68B0
:105E5000002BB2D0DAF80420D9F8003013445B42AA
:105E6000C3F30803C8F8003023B9326839688A429E
:105E7000B3D19FE700F0D6FCF7E70C4AD369590687
:105E800005D400BFD3695B06FBD5BDE8F087BDE84C
:105E9000F08700BF50200020E8200020586002401A
:105EA00000ED00E000F804200060024000480040DF
:105EB000286002405C200020542000202DE9F84F8B
:105EC000A24E3378213B512B00F2A980DFE813F07A
:105ED0005F00A700A700A700A700A700A700A700D2
:105EE000A700A7005A00A7005500A700A70052016D
:105EF0007E019201A601BA01CE01E201F601A700DE
:105F0000A700A700A700A700B700A7001901A700D6
:105F1000A700A700A700A7005200A700A700A7009E
:105F2000A700A700A700A700A700A700A700A70039
:105F3000A7001D01A700A700A700A700A700A700B2
:105F4000A700A700A700A700A700A700A700A70019
:105F5000A700A7006300A7005200A700A700A700A2
:105F6000A700A700A700A700A700A700A700A200FE
:105F7000A7001D0173782B2B04D00020BDE8F84F3B
:105F8000FBF73EB90120BDE8F84FFBF739B9BDE892
:105F9000F84FFDF7A9BE6D4C10226D49204602F066
:105FA00063FC00283BD1237C3D2B00F0ED833F2B8D
:105FB00040F0E281674D4323674A2E68674CA35542
:105FC000013612F8013FC6F30A06644F002BF6D1E2
:105FD000731CDFF898812B60FBF7CAFF2C68C0F3B5
:105FE0000310C4F30A0418F80020631CBA552B6090
:105FF000FBF7BEFF2B6800F00F000A21C3F30A0372
:1060000018F800005A1C3855F954C2F30A032B60E3
:10601000BDE8F88F73784D4A522B00F063814D4DE7
:106020004E4C2B683F224E49E254013311F8012FA8
:10603000C3F30A03002AF7D12B60BDE8F88F454D62
:106040004423484A2968454C6354013112F8013F02
:10605000C1F30A01414E002BF6D101F1010CDFF82A
:1060600010E1DFF808812020CCF30A0CDEF80030C4
:106070000CF10102C3F30337C3F3032AC3F303197B
:10608000C2F30A0218F807B003F00F0318F80AA0C9
:10609000571C18F8099018F80380C7F30A0706F888
:1060A00001B006F80CA07B1C06F802902E4AC3F340
:1060B0000A0306F807802B60E054013312F8010F41
:1060C000C3F30A0325490028F6D15A1C3024382688
:1060D000CEF80000C2F30A02CC540A20531C8E549E
:1060E000C3F30A035A1CCC54C2F30A02531C8C5447
:1060F000C3F30A035A1CC854C2F30A032B60BDE859
:10610000F88FBDE8F84FFFF757B873780A2B00F007
:1061100020810D2B00F01D81452B80D1B2780B4BD7
:10612000732A7FF47CAFDA78652A7FF478AF1A7926
:10613000742A7FF474AF5B790A2B02D00D2B7FF4A5
:106140006EAFFBF7A1FE034D044C6AE74C21002023
:10615000A4D30008E820002024D3000800F804207D
:10616000A0D30008C4D20008D8D20008B8D30008D1
:10617000B4130020794E4422794D30682B6880F0AA
:1061800001007849784C3060E254013311F8012F56
:10619000C3F30A03744E002AF6D1591CC0F303124C
:1061A000724C00F00F00C1F30A010A2714F802E054
:1061B0004A1C205C06F803E0C2F30A0370545A1C20
:1061C000F754C2F30A032B60BDE8F88F634E4422F4
:1061D000634D30682B6880F002006249624C306089
:1061E000E254013311F8012FC3F30A035E4E002A73
:1061F000F6D1D2E7594E4422594D30682B6880F0D1
:1062000004005849584C3060E254013311F8012F12
:10621000C3F30A03544E002AF6D1BEE74F4E442280
:106220004F4D30682B6880F008004E494E4C30606E
:10623000E254013311F8012FC3F30A034A4E002A36
:10624000F6D1AAE7454E4422454D30682B6880F0D0
:1062500010004449444C3060E254013311F8012FDE
:10626000C3F30A03404E002AF6D196E73B4E442280
:106270003B4D30682B6880F020003A493A4C306042
:10628000E254013311F8012FC3F30A03364E002AFA
:10629000F6D182E7314E4422314D30682B6880F0D0
:1062A00040003049304C3060E254013311F8012F86
:1062B000C3F30A032C4E002AF6D16EE7274E442280
:1062C000274D30682B6880F080002649264C3060CE
:1062D000E254013311F8012FC3F30A03224E002ABE
:1062E000F6D15AE793786F2B7FF499AED378672B6A
:1062F0007FF495AE1379422B00F06982184D1A4C49
:106300000D2B02D00A2B7FF48CAE2B686522184926
:10631000E254013311F8012FC3F30A03002AF7D125
:106320002B604CF6CC44FFF737FD124B012245F2AF
:106330005550FF211C60186059609A60DA681AB1E4
:1063400000BFDA68002AFBD10A4B4AF6AA221A607B
:10635000FEE7FBF799FD7378DEE600BFCC0900206D
:10636000E8200020E0D2000800F80420B8D300089C
:1063700004D3000800300040DF4CFBF7F9FDDFF8E4
:10638000A483814627460826DC4DDFF89CA33046CF
:10639000FBF7E0FD6420FBF795FC2B680A22D84947
:1063A000E254013311F8012FC3F30A03002AF7D195
:1063B0005A1C302118F801CF4FF00A0EC2F30A021E
:1063C000F9542D21501C07F802C0CE4AC0F30A0030
:1063D000431C07F800E0C3F30A03E154013312F849
:1063E000011FC3F30A030029F7D12B60FFF7D4FC88
:1063F000DAF8241042F21072DAF824300A449A4291
:1064000004D900BFDAF824309A42FAD82B682D223A
:10641000BD49E254013311F8012FC3F30A03002AE6
:10642000F7D101362B60FFF7B7FCDFF8D0B20E2EA4
:10643000ADD16420FBF746FCDBF800304322B349C2
:10644000E254013311F8012FC3F30A03002AF7D1F4
:106450004322AF492B60E254013311F8012FC3F3FB
:106460000A03A54E002AF6D1AA4A591CAA4F48464B
:106470002960C1F30A0CD2F800804FF02E0E0CF107
:1064800001014FEA18782960C1F30A0117F8089052
:106490004FF00A0806F803904B1CD2F800902B60CE
:1064A000C3F30A03C9F3036917F8099006F80C90BF
:1064B00003F1010CD2F80090C5F800C0CCF30A0C2F
:1064C000C9F3035917F8099006F801900CF101017E
:1064D000D2F800902960C1F30A01C9F3034917F803
:1064E000099006F803904B1CD2F800902B60C3F380
:1064F0000A03C9F3033917F8099006F80C9003F161
:10650000010CD2F80090C5F800C0CCF30A0CC9F316
:10651000032917F8099006F801900CF10101D2F84F
:1065200000902960C1F30A01C9F3031917F8099013
:1065300006F8039001F101091268C9F30A09774BC3
:1065400002F00F0217F802A009F1010206F80CA0F0
:10655000C2F30A0A06F801E02A600AF1010219688A
:106560002A60C2F30A02090F02F1010C795C06F8F5
:1065700009101968C5F800C0CCF30A0CC1F3036117
:10658000795C06F80A100CF10101D3F8009029603B
:10659000C1F30A01C9F3035917F8099006F80290EC
:1065A0004A1CD3F800902A60C2F30A02C9F30349D7
:1065B00017F8099006F80C9002F1010CD3F800903E
:1065C000C5F800C0CCF30A0CC9F3033917F80990D9
:1065D00006F801900CF10101D3F800902960C1F395
:1065E0000A01C9F3032917F8099006F802904A1C1A
:1065F000D3F800902A60C2F30A02C9F3031917F80E
:10660000099006F80C9002F1010C1B68CCF30A0CFF
:1066100003F00F09424B0CF1010A17F8099006F834
:106620000190CAF30A0906F802E0C5F800A009F1D2
:1066300001011A682960C1F30A0E120F0EF101015F
:10664000BA5C06F80C201A682960C1F30A01C2F38B
:10665000036217F802C04A1C06F809C0D3F800C04C
:106660002A60C2F30A02CCF3035C17F80C9002F123
:10667000010C06F80E90D3F800E0C5F800C0CCF38A
:106680000A0CCEF3034E17F80E900CF1010E06F82B
:1066900001901968C5F800E0CEF30A0EC1F303318A
:1066A00017F801900EF1010106F802901A682960AE
:1066B000C1F30A01C2F3032217F802904A1C06F83C
:1066C0000C90D3F800C02A60C2F30A02CCF3031C7A
:1066D00017F80C9002F1010C06F80E90CCF30A0E9C
:1066E0001B6803F00F03FB5C735406F80280C5F8C7
:1066F00000E0FBF72FFC19E000F80420E820002060
:106700003CD3000850D300085CD3000868D30008CD
:1067100010D2000820F4F01FB8D3000824F4F01FB2
:1067200028F4F01FBFD30008000C00402E6852234D
:10673000374AA355013612F8013FC6F30A06DFF8BF
:10674000D880002BF5D1731C2B60FBF711FC2C6853
:10675000C0F30310C4F30A043A5C631C08F8062073
:106760002B60FBF705FC2B6800F00F000A21C3F338
:106770000A03385C5A1C08F8040008F80310C2F336
:106780000A032B60BDE8F88F627CA2F13003092B6D
:106790000CD804F1110300EB800002EB400013F869
:1067A000012FA2F1300130380929F4D9194DFBF736
:1067B000D1FB194C48232E68184AA355013612F80C
:1067C000013FC6F30A06144F002BF6D100E45379BB
:1067D000104D0A2B02D00D2B7FF422AC7327104AE8
:1067E0002B680D4CE754013312F8017FC3F30A0301
:1067F000002FF7D12B60FFF7CFFA38460137002181
:10680000FAF70CFD0C2FF8D1FAF716FE737977E53D
:106810007CD30008E820002000F804202CD30008D6
:10682000E8D200082DE9F04F654D83B065492B682B
:106830000A68B3F5E07F40F2B280002A40F0AF80F2
:1068400061484FF48044012204810A6033F00F0252
:1068500002D0102213462A605C4C5D4E5D4FFBB1A6
:106860002268013BB15C01322B60C9B2C2F308025D
:10687000A1F1080022600B2872D8DFE800F0457112
:106880001E71711E7171711471063A68524922F0BD
:1068900040623A600A6842F400020A60002BDFD1CD
:1068A00003B0BDE8F08F4C490A6822F440020A6048
:1068B0003A6842F000623A60D1E7484A4FF00A096C
:1068C00047484FF0000E1368DFF81C8100F8039072
:1068D00003F1020C0344D8F80000C2F800C083F8AA
:1068E00001E058B93F48DFF804C1D0F800E00EF1EC
:1068F00001030CF80E10C3F30A03036000231360B6
:10690000FFF7DCFA2B68AAE7344A11680029A6D001
:106910003548006808BBDFF8CCA04FF00809DFF865
:10692000CCC04FF0200BDAF8000000F1010ECEF3DE
:106930000A0E0EF10100C0F30A00019000F10108F7
:10694000DAF80000C8F30A080CF8009001980CF877
:106950000EB0CAF800800CF80090013911607EE793
:106960001E4ADFF884E01068DFF8748000F1010C43
:10697000DEF800E008F80010C2F800C0BEF1000F19
:106980007FF46DAF1748DFF864C0D0F800E00EF177
:1069900001020CF80E10C2F30A0202605FE7B3F5C1
:1069A000C07F2CBF002202F00102002A3FF44EAF4C
:1069B00005484FF48044002244810A6046E700BF46
:1069C0005420002058200020100402405C200020A9
:1069D00000F6042000040240000C0240DC1F0020EE
:1069E0004C210020E82000204013002000F8042063
:1069F000744A2DE9F04F136B4FF002088DB0724EC0
:106A000043EA080301274FF4006907A913633046DE
:106A1000156B0024DFF8E8A14FF4007B05EA0803BA
:106A20006A4D0393039B136B43F008031363136BCB
:106A300003F008030493049B136C43F48023136452
:106A4000136C03F480230593059B136B43F400132D
:106A500013630323126B0A93072302F40012CDF889
:106A60001C900B9306920997069ACDF8208000F0AF
:106A700063FB4FF4005207A93046CDF824800792FB
:106A800000F05AFB07A95046CDF81C904FF48069DE
:106A9000099700F051FBDAF800200C21AC60284681
:106AA00022F440026961EC60CAF800203368484A69
:106AB00043F0006347496A603360DFF848A129600A
:106AC00001912C61EC612C626C62C5F818B001F088
:106AD000F7FB4FF400334FF480703F4ACAF8203080
:106AE0004FF00063CAF81C005046CAF80020CAF8EC
:106AF0000430CAF80840CAF80C40CAF81440CAF872
:106B00001840CAF82440CAF82C40CAF83040CAF8E5
:106B1000109000F045FA01995B4650462F4AD1F893
:106B200008E0DFF8E4B04EF0400EC1F808E02C4970
:106B300000F0D2FA2B4B4FF4803E40214FF0006220
:106B40001846C3F820E05A60DC60C3F810905C611E
:106B50009C61DC615C62DC621C639960C3F800B01C
:106B600000F01EFA2A6807A91F4B30461F4DCBF8CC
:106B700008309368CDF81C9043F08003CDF8208056
:106B80009360032309940A9307230B9300F0D4FA2C
:106B90004FF4804307A93046089707934FF4804786
:106BA00009940B9400F0C8FA11481249124A134B89
:106BB00077832C6004600C6014601C600DB0BDE82D
:106BC000F08F00BF0038024000040240E01F0020A8
:106BD00000127A00004800402860024000F60420BD
:106BE000244800406020002028480040E820002081
:106BF000502000205C20002054200020582000203D
:106C0000000C0240EC2000205860024008B5FFF75D
:106C1000EFFE024B00221A6008BD00BFDC1F0020FF
:106C2000DFF834D0002103E00C4B5B5843500431B3
:106C30000B480C4B42189A42F6D30B4A02E0002351
:106C400042F8043B094B9A42F9D300F05BF801F09B
:106C500025FDFBF72DFA704700000120B4D600088F
:106C600000000020B0090020B0090020B821002059
:106C7000FEE70000704700BFFEE700BFFEE700BF71
:106C8000FEE700BFFEE700BF704700BF704700BFD0
:106C9000704700BF08B500F0B5F8BDE8084000F047
:106CA0007BB900BF0120704708B501F0F1FC162345
:106CB00003604FF0FF3008BD08B501F0E9FC162372
:106CC0000360FEE70C4A38B50346106828B1034458
:106CD00069468B4205D8136038BD084908461160E3
:106CE000F5E7074C04F1190514F8010BAFF3008028
:106CF000AC42F9D101F0C4FCE4090020B821002025
:106D0000C8D300080F4A104BD2F888000F4940F44E
:106D1000700070B4C2F88800002418684FF0006555
:106D20000B4E40F0010018609C601868014019602B
:106D30005E60196821F480211960DC60956070BC88
:106D4000704700BF00ED00E000380240FFFFF6FE94
:106D50001030002410B41B4CA36803F00C03042B68
:106D600025D0082B0CD0184B164A184892681849A1
:106D7000C2F303125DF8044B825CD3400B60704792
:106D8000636861685B0201F03F0212D40E496368D8
:106D9000B1FBF2F1C3F3881301FB03F2094B5B680B
:106DA000C3F3014301335B00B2FBF3F3DCE7094BB0
:106DB000DAE708486368B0FBF2F1C3F3881301FB1C
:106DC00003F2EBE7003802400024F400E4D30008AB
:106DD0000000002040787D01084B10B51B68044678
:106DE0000748A0FB0330800900F070F8214600221C
:106DF0004FF0FF3000F030F8002010BD0000002000
:106E0000D34D6210024A136801331360704700BF0C
:106E1000B0210020014B1868704700BFB02100204E
:106E2000024A136A43F001031362704700380140BD
:106E300007494FF6FF020002064B10B4CC6800F47D
:106E4000E06022405DF8044B13430343CB6070477E
:106E500000ED00E00000FA05194BDB68C3F30223E4
:106E600030B4C3F107051C1D042D28BF0425062CD2
:106E700019D9033B01249C40013C224001240028F5
:106E800004FA05F404F1FF3401EA040101FA03F302
:106E900042EA03020ADB12010A4BD2B2034483F82E
:106EA000002330BC704700221346E7E700F00F00D4
:106EB0001201054BD2B203441A7630BC704700BFB2
:106EC00000ED00E000E100E0FCEC00E00138B0F192
:106ED000807F0DD2074B0022072130B4F025064CED
:106EE0005860104684F823509A60196030BC70478F
:106EF0000120704710E000E000ED00E0BFF35F8F7D
:106F0000044A00200449536A23F4803353624860E2
:106F1000704700BF00ED00E090ED00E0064A40F051
:106F20000100064B5860536A43F480335362BFF349
:106F30004F8FBFF36F8F704700ED00E090ED00E0E2
:106F4000F0B4134E4378B36003781BB9F360336138
:106F5000F0BC70474368F360C47A027B240605786E
:106F6000817A44EA0274427B877B2C43C37B457A57
:106F700044EAC141007A41EA824141EA474242EA99
:106F8000034242EA052343EA40033361F0BC704701
:106F900090ED00E0704700BF08B5FFF7FBFF08BDAC
:106FA000F8B50446FFF736FF002C72D002222368A2
:106FB0000021054684F835201A6884F8341022F040
:106FC00001021A6005E0FFF725FF401B05283DD8A8
:106FD00023681A68D107F6D4A2686568E06815438B
:106FE000226961692843A6691F680243E569206A2E
:106FF0001143354A31433A40676A0D43042F40EA52
:10700000050042EA000228D01A605A6922F00702FD
:1070100047EA0201DAB22D4D5961103A2C48A5FB1E
:107020000212002101251209805C032A294AE06529
:1070300002EA03024FF03F0388BF04328340084650
:10704000A2659360616584F83550F8BD0323202262
:107050001846626584F83530F8BDE56A216BA06A90
:10706000294340F004070A431A605A6922F00702D4
:1070700047EA02017EB9012822D001D30228C9D1F2
:10708000EA01C7D5012340221846626584F83530ED
:10709000F8BD0120F8BDB6F5005F04D00228F1D993
:1070A0000328B7D1ECE70328B4D801A252F820F0A6
:1070B000857000088170000885700008C1700008A4
:1070C000B5F1C07FA6D1DDE73F8010F0ABAAAAAA38
:1070D000FCD3000800FCFFFF70B490F83440012C92
:1070E0000DD0012590F83540AC4280F834500AD0DC
:1070F0000022022380F83420184670BC7047022317
:1071000070BC1846704704680226002580F8356078
:10711000456586682568402E25F4802020606360E0
:1071200007D0A160E2602268002342F001022260E1
:10713000E2E7A260E160F6E72DE9F04FD1F800C088
:1071400083B00026DFF81882DFF81892DFF818E223
:1071500003E00136102E00F0B1800123B34033EA82
:107160000C02F6D14C6824F01005022D40F0A980E5
:10717000F50806F0070A4FF00F0B0A6900EB8505CA
:107180004FEA8A0A2F6A0BFA0AFB02FA0AF24FEA5E
:10719000460A27EA0B074FF0030B3A430BFA0AFBA8
:1071A00004F003072A626FEA0B02056807FA0AF780
:1071B00015403D4305608568C4F3001BCF6815404A
:1071C0000BFA06FB07FA0AF72F438760456825EAA2
:1071D00003054BEA05054560C7688D683A40E7003E
:1071E00005FA0AF542EA0502C260B2D5D8F8447041
:1071F00006F0030226F0030B524D47F4804A92003A
:107200000F275D44C8F844A04845D8F844A007FAC1
:1072100002FB0AF480470197019FAF6827EA0B0B36
:1072200065D0494FB84264D0484FB84266D0484F05
:10723000B84268D0474FB8426AD0474FB8426CD086
:10724000464FB8426ED0DFF824A150456FD0DFF82A
:1072500020A1504570D0DFF81CA150450CBF4FF065
:10726000090A4FF00A0A0AFA02F242EA0B02DF4365
:107270000136AA60E503DEF800204CBF1A433A400D
:10728000A503CEF80020DEF804204CBF1A433A4094
:10729000E502CEF80420DEF808204CBF1A433A403D
:1072A000A402CEF80820DEF80C2054BF07EA02033F
:1072B0001343102ECEF80C307FF44FAF03B0BDE86F
:1072C000F08F4FEA460A03220768013D04EA020BE9
:1072D00002FA0AF2012D6FEA02020BFA0AFB07EA30
:1072E00002074BEA070707603FF676AF63E7002225
:1072F000BBE74FF0010A0AFA02F2B6E74FF0020AC2
:107300000AFA02F2B1E74FF0030A0AFA02F2ACE716
:107310004FF0040A0AFA02F2A7E74FF0050A0AFA48
:1073200002F2A2E74FF0060A0AFA02F29DE74FF0D6
:10733000070A0AFA02F298E74FF0080A0AFA02F27C
:1073400093E700BF003801400004024000080240FB
:10735000000C0240001002400014024000180240DD
:107360000038024000000240003C0140001C024086
:1073700000200240002402401B4A1C4B116C41F0CB
:10738000805130B5116483B0126C1C4602F08052FB
:107390000192019A1A6842F480321A60FFF73AFDAE
:1073A000054605E0FFF736FD401BB0F57A7F18D89B
:1073B00063680E4AD903F5D51368144643F40033C5
:1073C0001360FFF727FD054605E0FFF723FD401B8F
:1073D000B0F57A7F05D863689B03F6D5002003B02B
:1073E00030BD032003B030BD0038024000700040C3
:1073F0000368F0B5DD0783B0044630D5AC498A6830
:1074000002F00C02042A00F0FE808A6802F00C02EE
:10741000082A00F0F4806368B3F5803F00F03A81F9
:10742000002B00F00C81B3F5A02FA14B1A6800F0DF
:107430009F8122F480321A601A6822F480221A6036
:10744000FFF7E8FC9A4D064605E0FFF7E3FC801BDA
:10745000642800F2B0802B689A03F6D523689F0752
:1074600031D5934A916811F00C0F00F0AB80916810
:1074700001F00C01082900F0A180E368002B00F066
:10748000F5808B4B1A681D4642F001021A60FFF727
:10749000C1FC064605E0FFF7BDFC801B022800F298
:1074A0008A802B68824A9807F5D51168F82393FAE9
:1074B000A3F32069B3FA83F321F0F80100FA03F390
:1074C0000B43136023681A0720D4590736D4A269E6
:1074D000CAB1774B996801F00C01082979D0022ACA
:1074E0001A6800F0DD8022F080721C461A60FFF7F7
:1074F00091FC054604E0FFF78DFC401B02285AD89A
:1075000023689B01F7D4002003B0F0BD6369002B12
:1075100062D0674B5A6F1D4642F001025A67FFF76F
:1075200079FC064604E0FFF775FC801B022842D870
:107530006B6F9F07F7D523685907C8D55C4A5D4B29
:10754000116C1D4641F080511164126C02F08052A2
:107550000192019A1A6842F480721A60FFF75AFC8D
:10756000064604E0FFF756FC801B642823D82B68EE
:10757000DA05F7D5A368012B00F00281002B00F09B
:10758000DE80052B4A4B1A6F00F0008122F00102C9
:107590001A671A6F22F004021A67FFF73BFC444D8A
:1075A000074641F288362B6F9B0790D4FFF732FCD9
:1075B000C01BB042F7D9032003B0F0BD5268560299
:1075C0003FF55BAF3A4A1268950726D5E268012A73
:1075D00023D0012003B0F0BD354B5A6F1D4622F079
:1075E00001025A67FFF716FC064604E0FFF712FC9B
:1075F000801B0228DFD86B6F9807F7D49BE74A6897
:1076000050027FF508AF2A4A126891037FF527AF31
:107610006268002A7FF423AFDBE7254DF822296852
:1076200092FAA2F22069B2FA82F221F0F80100FA8D
:1076300002F20A432A601A077FF547AF66E71C4B40
:107640001A681D4622F480321A601A6822F48022D9
:107650001A60FFF7DFFB064604E0FFF7DBFB801B49
:107660006428A8D82B689B03F7D4F7E6104B1A6858
:107670001D4622F001021A60FFF7CCFB064604E02B
:10768000FFF7C8FB801B022895D82B689907F7D411
:10769000236818E7064A136843F480331360CFE683
:1076A00022F080721D461A60FFF7B4FB064609E01F
:1076B0000038024000700040FFF7ACFB801B02283E
:1076C0003FF679AF2B68354A9901F5D447F6C07C6F
:1076D0009CFAACFC4FF44033BCFA8CFC93FAA3F355
:1076E0004FF07060B3FA83F690FAA0F0216AB0FA16
:1076F00080FEA36AE769656A0F435908E06A05FAE4
:107700000CF4013947F0005500FA0EF0254301FA58
:1077100006F314462B4303435360136843F080730E
:107720001360FFF777FB054605E0FFF773FB401B8F
:1077300002283FF640AF23689A01F6D5E3E6174BDF
:1077400041F288371A6F1D4622F001021A671A6F3C
:1077500022F004021A67FFF75DFB06462B6F9807BD
:107760007FF5B5AEFFF756FB801BB842F6D922E78E
:1077700042F480221A601A6842F480321A605FE68E
:10778000064A136F43F00103136706E742F0040251
:107790001A671A6F42F001021A67FEE600380240CB
:1077A000764A136803F00F038B422DE9F0410CD2A7
:1077B000136823F00F030B431360136803F00F03E8
:1077C000994202D00120BDE8F08103689A0706D5EE
:1077D0006B4D8268AC6824F0F0042243AA60DB079A
:1077E00006460C4625D54368654A012B126800F011
:1077F000AF80022B00F0A5809007E3D5604D41F2E9
:107800008838AA6822F003021343AB60FFF702FB3B
:1078100073680746012B71D0022B06D179E0FFF780
:10782000F9FAC01B404500F29080AB6813F00C0FD2
:10783000F5D1524A136803F00F039C4209D2136832
:1078400023F00F0323431360136803F00F039C42DC
:10785000B8D13368590706D54948F268816821F4E0
:10786000E0510A4382601A0759D44548836803F0FF
:107870000C03042B61D0082B61D14368446803F0EA
:107880003F02630268D5436847F6C07595FAA5F5CF
:1078900047F6C0743B48B5FA85F51C40B0FBF2F3DF
:1078A00024FA05F203FB02F235494FF440334868ED
:1078B00093FAA3F3B3FA83F100F44033CB400133DE
:1078C0005B00B2FBF3F12E4BF0229B6892FAA2F21E
:1078D000B2FA82F203F0F0032B4C0020D3402B4A83
:1078E000E35C21FA03F31360FFF776FA0020BDE8AA
:1078F000F081FFF78FFAC01B404526D8AB6803F034
:107900000C03042BF5D194E7FFF784FAC01B404524
:107910001BD8AB6803F00C03082BF5D189E7184A94
:1079200031699368164823F4604343EAC1039360C6
:10793000836803F00C03042B9DD11249C3E714495B
:10794000C1E795013FF55AAF3CE70320BDE8F08160
:1079500097033FF553AF35E7416847F6C07494FA93
:10796000A4F447F6C0700A4BB4FA84F40840B3FBA1
:10797000F2F320FA04F203FB02F295E7003C024026
:107980000038024040787D01E4D300080000002068
:107990000024F40024498B6803F00C03042B2ED040
:1079A000082B2AD14A6810B44C6802F03F036202E7
:1079B00027D44C6847F6C07090FAA0F047F6C07123
:1079C0001A4AB0FA80F02140B2FBF3F221FA00F03B
:1079D00002FB00F3144A4FF44030526890FAA0F0D2
:1079E000B0FA80F002F440325DF8044B22FA00F065
:1079F00001304000B3FBF0F070470C4870470C4872
:107A000070474A6847F6C07090FAA0F047F6C07415
:107A10000749B0FA80F01440B1FBF3F224FA00F009
:107A200002FB00F3D6E700BF003802400024F40058
:107A300040787D01084B4FF4E0529B6892FAA2F225
:107A4000B2FA82F203F4E0530449D340044ACB5C17
:107A50001068D840704700BF00380240F4D30008D7
:107A600000000020084B4FF460429B6892FAA2F29B
:107A7000B2FA82F203F460430449D340044ACB5C77
:107A80001068D840704700BF00380240F4D30008A7
:107A90000000002003682DE9F04F13F0010685B0C7
:107AA00004460BD08D4A916821F400019160466B29
:107AB00091683143B6FA86F67609916013F4002591
:107AC00010D08649E56BD1F88C20B5F5801F22F4E3
:107AD000401242EA0502C1F88C2000F0EA81B5FAB2
:107AE00085F56D09D90210D57C48216CD0F88C2021
:107AF000B1F5800F22F4400242EA0102C0F88C2066
:107B000000F0D581002908BF012513F0807F18BF40
:107B100001269A0600F18381D9060CD56F4AD2F866
:107B20008C1021F08071C2F88C10D2F88C00A16BFF
:107B30000143C2F88C105A0408D56848626ED0F828
:107B4000901021F440310A43C0F890201F0408D55A
:107B50006248A26ED0F8901021F440210A43C0F888
:107B60009020D80308D55D48E26ED0F8901021F43B
:107B700040110A43C0F89020990308D55748226F56
:107B8000D0F8901021F440010A43C0F890205A0622
:107B900008D55248626CD0F8901021F003010A43D6
:107BA000C0F890201F0608D54C48A26CD0F8901061
:107BB00021F00C010A43C0F89020D80508D54748A9
:107BC000E26CD0F8901021F030010A43C0F8902008
:107BD000990508D54148226DD0F8901021F0C001D8
:107BE0000A43C0F890205A0508D53C48626DD0F889
:107BF000901021F440710A43C0F890201F0508D569
:107C00003648A26DD0F8901021F440610A43C0F8C4
:107C10009020D80408D53148E26DD0F8901021F4B6
:107C200040510A43C0F89020990408D52B48226E91
:107C3000D0F8901021F440410A43C0F890205A0235
:107C400008D52648A26FD0F8901021F080610A4331
:107C5000C0F890209F020CD52048E26FD0F8901019
:107C6000B2F1006F21F0006108BF01250A43C0F89E
:107C7000902013F0080F18BF0125580308D51748A6
:107C8000626FD0F8901021F040710A43C0F8902044
:107C900019020BD4B3F1007F16D0F20714D4012DD2
:107CA00000F00A81002005B0BDE8F08F0B48B3F169
:107CB000007FD4F88020D0F8901021F0805142EA63
:107CC0000102C0F89020E8D1044B1A681E4622F049
:107CD00080621A60FFF79EF8074607E0003802400E
:107CE000FFF798F8C01B642800F295803368774A44
:107CF0001B01F5D42368DF0703D5616B002900F071
:107D0000A0811E0304D5E26BB2F5801F00F0EF8165
:107D1000D80204D5226CB2F5800F00F0E881D901B9
:107D20003DD5DFF8A8E14FF07068DEF8847098FA6E
:107D3000A8FB4FF0E04CBBFA8BFBDEF884009CFA0A
:107D4000ACF147F6C076B1FA81F196FAA6F64FF497
:107D50004039B6FA86FA99FAA9F9B9FA89F998FA7E
:107D6000A8F8B8FA88F89CFAACFC226907F07067AA
:107D7000666800F0E04002FA09F927FA0BF706FA04
:107D80000AF6BCFA8CF2C84007FA08F746EA090678
:107D900000FA02F146EA07020A43CEF884209A016B
:107DA00027D547F6C07E9EFAAEFE4FF44031BEFAAC
:107DB0008EFE91FAA1F14FF07062B1FA81F792FA5A
:107DC000A2F24FF0E043B2FA82F693FAA3F36268AC
:107DD000B3FA83F0216902FA0EFEE268B940A368A3
:107DE000B2403A4E4EEA010183400A431343C6F8BB
:107DF0008430364B1A681E4642F080621A60FFF7E4
:107E000009F8074633681B013FF549AFFFF702F851
:107E1000C01B6428F6D9032005B0BDE8F08F2B4ABB
:107E20002B4B116C1F4641F080511164126C02F013
:107E300080520392039A1A6842F480721A60FEF725
:107E4000E9FF804605E0FEF7E5FFC8EB0000642887
:107E5000E1D83B68DB05F6D51C4B1A6F12F4407174
:107E6000226B02F4407011D081420FD0196F1F6F46
:107E700021F4407147F480371F671F6F27F4803764
:107E80001F671967196FCF0700F11C81B0F5407F9C
:107E900000F073810D498B6823F4F8138B600B4954
:107EA000C2F30B020B6F1A430A67236834E60126FC
:107EB0002BE60025012615E6044B1A681D4622F024
:107EC00080521A60FEF7A6FF064608E0003802401E
:107ED00000700040FEF79EFF801B64289BD82B6833
:107EE0009F00F7D423681D0300F1E780D80249D52D
:107EF000226C002A46D1C34D4FF44036D5F8889005
:107F000096FAA6F04FF0E04EB0FA80F0D5F888204F
:107F10009EFAAEF847F6C071B8FA88F891FAA1F166
:107F2000B1FA81F196FAA6F64FF07067B6FA86FCC0
:107F300097FAA7F6B6FA86F79EFAAEFEA66909F496
:107F4000403902F0E042BEFA8EFE019629FA00F0B6
:107F5000666922FA08F200FA0CF006FA01F1019EB5
:107F600002FA0EF2BE40314301430A43C5F88820AD
:107F7000D5F88C20A16A22F4F852013942EA012294
:107F8000C5F88C20990204D5E26FB2F1006F00F0C1
:107F9000FD801A0742D59B4D4FF07060D5F88820C0
:107FA00090FAA0F34FF44037B3FA83F3D5F8881072
:107FB00097FAA7F647F6C07CB6FA86F69CFAACFCB0
:107FC000BCFA8CFC97FAA7F7B7FA87FE90FAA0F0F4
:107FD0004FF0E048B0FA80F798FAA8F001F4403189
:107FE000B0FA80F8E06902F07062F140666900FA68
:107FF00008F022FA03F306FA0CF601FA0EF2BB407F
:1080000046EA00010A431343C5F88830D5F88C20AE
:10801000E36A22F440321343C5F88C30794B1A6876
:108020001C4642F080521A60FEF7F4FE05462368B3
:108030009B003FF537AEFEF7EDFE401B6428F6D9F6
:10804000E9E6D2F884B04FF4403C9CFAACF74FF02C
:108050007066B7FA87F7D2F8840096FAA6F147F669
:10806000C07AB1FA81F19AFAAAFABAFA8AFA9CFAB3
:10807000ACFCBCFA8CF996FAA6F64FF0E04CB6FAD6
:1080800086F89CFAACF60BF4403EB6FA86FCA6687D
:1080900000F070602EFA07FE676806FA0CF620FA08
:1080A00001F107FA0AF70EFA09F001FA08F13E4366
:1080B00030430143C2F8841023E6E26B002A3FF408
:1080C0001AAF13E71F4641F28838FEF7A3FE814638
:1080D00006E0FEF79FFEC9EB000040453FF69BAE71
:1080E0003B6F9807F5D5226B02F44070CEE6454809
:1080F0004FF44036D0F8841096FAA6FA4FF0E04ECE
:10810000BAFA8AFAD0F884209EFAAEF847F6C07719
:10811000B8FA88F897FAA7F7B7FA87F996FAA6F6A1
:108120004FF07067B6FA86FC97FAA7F6B6FA86F6AD
:108130009EFAAEFE676802F0E04B01F44031E2685F
:1081400007FA09F7BEFA8EFE02FA06F621FA0AF1DC
:108150002BFA08F201FA0CF13E4302FA0EF2314317
:108160000A43C0F88420D0F88C20616A22F01F02F4
:1081700001390A43C0F88C20D1E52248224B81689E
:10818000134021F4F8110B43836088E61D4F4FF034
:10819000706CD7F888109CFAACF04FF0E04EB0FA53
:1081A00080F0D7F888209EFAAEF947F6C076B9FA83
:1081B00089F996FAA6F64FF44035B6FA86F695FA9E
:1081C000A5F5B5FA85F89CFAACFCBCFA8CFC9EFAD5
:1081D000AEFE01F07061256A02F0E042BEFA8EFE4A
:1081E00021FA00F0616905FA08F522FA09F2B140B6
:1081F00000FA0CF002FA0EF2294301430A43C7F8D1
:108200008820C6E600380240FFFCFF0F704700BF21
:10821000436ADA0710B406D50468826A616821F4FB
:1082200000310A4362609C0706D50468C26A61682F
:1082300021F480310A436260590706D50468026B55
:10824000616821F480210A4362601A0706D5046838
:10825000426B616821F400410A436260DC0606D586
:108260000468826BA16821F480510A43A2609906D8
:1082700006D50468C26BA16821F400510A43A260CC
:108280005A060AD50168046C4A68B4F5801F22F4C6
:10829000801242EA04024A600BD01B0606D5016830
:1082A000826C4B6823F4002313434B605DF8044B4E
:1082B00070474C68426C24F4C00422434A60ECE7E7
:1082C000002800F00681F8B590F86930044603F004
:1082D000FF02002B49D025682423A16884F8693067
:1082E00023692E681943636926F00106E0690B4390
:1082F000C04A2E602E6843EA0001236A3240E768D4
:10830000BD4E0A43A169B5422A6041EA03016B6888
:1083100023F4405343EA07036B60AB6823F43063F4
:1083200043EA0103AB6000F0A880B44B9D4200F02B
:10833000C780B34B9D4200F0CE80B24B9D4219D016
:10834000B14B9D4227D0B14B9D4200F0E480B04B31
:108350009D4200F03181AF4B9D4200F07781B0F536
:10836000004F00F087810120F8BD80F86820FFF7FA
:108370004DFFB0E703F5F633D3F8903003F0C003B8
:10838000402B00F0D18012D9802B00F00081C02B4F
:1083900000F0B080E3E703F5F433D3F8903003F452
:1083A0004073B3F5807F00F0BF8000F23F81002B67
:1083B000D5D1B0F5004F02D1FFF73CFBB9E0FFF794
:1083C00039FB636800EB5300B0FBF3F39BB2EB6047
:1083D000636A002B40D1236800215A6822F490423E
:1083E0005A609A6822F02A029A601A6842F00102E2
:1083F0001A60E166FEF70EFD236805461A6811074C
:108400000CD41A6852072BD42022002384F8692048
:10841000184684F86A2084F86830F8BD7E4EDA6920
:1084200002F40012002AECD1FEF7F4FC401B236892
:10843000B042F4D91A6820210025032022F4D0721A
:108440001A609A6822F001029A6084F8691084F830
:10845000685084F86A10F8BD2046FFF7D9FEBAE7E5
:108460006D4EDB6903F48003002BCDD1FEF7D2FC07
:10847000401B2368B042F4D9DCE7684B684AD3F864
:10848000903003F00303D35CB0F5004F5DD1082BAF
:1084900000F2F08001A252F823F000BFB983000877
:1084A000ED8500083D860008758600082F850008C8
:1084B000758600087586000875860008FB8400082C
:1084C00003F5FA33574AD3F8903003F00C03D35C2A
:1084D000DAE70120704703F5F833D3F8903003F062
:1084E0003003102B20D07FF662AF202B4FD0302BE3
:1084F0007FF435AFB0F5004F55D16268530803F5EE
:108500008033B3FBF2F39BB223F00F02C3F34203B9
:108510001343EB605CE703F59233D3F8903003F438
:108520004063B3F5806F59D1B0F5004F0AD1FFF722
:1085300031FA62682568530803EB4000B0FBF2F3A0
:108540009BB2E1E7FFF726FA3BE7082B3FF60BAFBC
:1085500001A252F823F000BFBF83000889850008FC
:108560009585000867830008458500086783000833
:108570006783000867830008A7850008002B7FF445
:10858000EEAEB0F5004F31D0FFF76CFA19E7B0F559
:10859000004F53D06268244B51080B44B3FBF2F3F5
:1085A0009BB2EB6014E76268530803F50043B3FB2A
:1085B000F2F39BB2EB600BE703F5E033D3F89030B6
:1085C00003F44053B3F5805FAED07FF6F0AEB3F561
:1085D000005FDCD0B3F5405F8CD0C0E6CED9B3F5F8
:1085E000006FD4D0B3F5406F84D0B8E6FFF73AFA05
:1085F0009FE700BFF369FFEF001001400044004017
:1086000000480040004C0040005000400014014071
:1086100000780040007C0040FEFFFF01003802406F
:1086200004D4000808D400080024F400B3F5007F47
:10863000ADD0B3F5407F3FF45DAF90E662680F4B7D
:1086400051080B44B3FBF2F39BB25DE703F5DE3355
:10865000D3F8903003F44043B3F5804F3FF464AF58
:108660007FF6A5AEB3F5004F91D0B3F5404F3FF480
:1086700041AF74E600230120EB60F8BD0048E8013B
:1086800008B5062000F0ACF80120FEF715FB00BF8E
:10869000014B1868704700BF3004002070B50F4EC2
:1086A0000F4D761BB61018BF002405D0013455F8C5
:1086B000043B9847A642F9D10A4E0B4D761B03F0B6
:1086C00007FFB61018BF002406D0013455F8043B4C
:1086D0009847A642F9D170BD70BD00BFA8D600086A
:1086E000A8D60008B0D60008A8D6000870B4840741
:1086F00046D0541E002A41D0CDB2034602E0621E8D
:10870000E4B3144603F8015B9A07F8D1032C2ED981
:10871000CDB245EA05250F2C45EA054519D903F1E7
:1087200010022646103E0F2E42F8105C42F80C5CF8
:1087300042F8085C42F8045C02F11002F2D8A4F19D
:10874000100222F00F0204F00F041032032C134425
:108750000DD91E462246043A032A46F8045BFAD88D
:10876000221F22F003020432134404F003042CB14C
:10877000C9B21C4403F8011BA342FBD170BC704773
:1087800014460346C2E700BF1F2938B522D8D0F8E7
:10879000DC2205460C469AB152F8213083B1012BF8
:1087A0000CD0591C06D00025204642F8245098478A
:1087B000284638BD16230360012038BD002038BD8F
:1087C000284600F029F8224601462846BDE83840F0
:1087D00000F00EB8162303604FF0FF3038BD00BF25
:1087E000024B01461868FFF7CFBF00BF30040020DE
:1087F00038B50B46074C0546114618460023236042
:10880000FEF752FA431C00D038BD2368002BFBD082
:108810002B6038BDB4210020FEF744BA0EB4F0B589
:108820009CB021AB0F4953F8042B019305466FF020
:108830000044086802954FF402774FF6FF7602A9CC
:108840000695ADF8147004940794ADF8166000F026
:108850005BF8029B00221A701CB0BDE8F04003B028
:10886000704700BF30040020002A41D040EA0103D5
:1088700013F00303F0B425D1032A23D904680D684B
:10888000AC421FD1043A35D0A4F1013525EA0404E5
:1088900014F0803F31D1071D0D1D0DE057F8043B4A
:1088A0000E68A3F10134B34224EA03040AD1043A66
:1088B00020D014F0803F23D1032A2946384605F101
:1088C0000405EBD803780C789C4202F1FF320CD1FE
:1088D00082B114B916E06AB17BB110F8013F11F80A
:1088E000014FA34202F1FF32F5D0181BF0BC7047D4
:1088F000104670471046F0BC70471846F0BC7047F1
:108900000020F3E72046F1E72DE9F04FC1B00C4617
:10891000059115460A93069002F03CFB03681393F9
:108920001846F8F7ADF9A38912901E0603D52369FE
:10893000002B01F031819FEDA67B00238DED107B94
:108940000E932593249315930793DFF890A230ABF1
:1089500023939946A84698F800304446EBB1252B5E
:1089600002D11AE0252B03D014F8013F002BF9D1D6
:10897000C8EB04058DB1249B259AC9F8008001330A
:108980002A44072BC9F804502592249300F3A680AB
:1089900009F10809079B2B4407932378002B00F06B
:1089A000A68000231A468DF86F301946089303936A
:1089B0004FF0FF3B637804F101085D4608F10108C0
:1089C000A3F12000582800F23484DFE810F0A0035F
:1089D00032043204A8033204320432043204320472
:1089E0003204AF03BD0332045D00E200320409012A
:1089F00010011001100110011001100110011001EF
:108A000010013204320432043204320432043204DB
:108A10003204320432042001860232048602320417
:108A2000320432043204D40232043204E502320445
:108A300032043204320432040F03320432043D03A0
:108A40003204320432043204320432043204320476
:108A5000320432047E039103860286028602990361
:108A6000910332043204070432041204A3006400A8
:108A7000C2033204C9033204EA0332043204F203AB
:108A800008980A9340420890039B43F00403039321
:108A900098F8003092E70A98AB46002104688DF8F8
:108AA0006F10071D0398302378228B458DF87030A6
:108AB0004FF000058DF8712040F00203C0F2D6831C
:108AC00020F0800343F00203039354EA05030A975E
:108AD00000F0A2830F460D923F48E6E223AA0599D3
:108AE000069803F045F848B90DF1C00952E7259BF7
:108AF00023B10698059923AA03F03AF8059B9B89B0
:108B000013F0400F079B18BF4FF0FF33184641B0DA
:108B1000BDE8F08F0D93AB46002A41F03382039AF3
:108B200012F0200300F046820A9F073727F0070360
:108B3000002703F10801BB450A91D3E900458DF8F0
:108B40006F70C0F2628722F08003039354EA05033A
:108B500000F0848330AEE20842EA4572E90804F08E
:108B600007030D461446303354EA050206F8013D6A
:108B7000F1D1039AD10740F18F80302B00F08C8027
:108B80003022731E06F8012C30AAD21A09921E4612
:108B900085E098F800302A2B08F1010401F0E48107
:108BA000A3F13000092898BF002501F2868114F84E
:108BB000013B05EB850500EB4505A3F130000928D5
:108BC000F5D945EAE575A046FAE600BFAFF30080A7
:108BD000000000000000000050D400081CD4000871
:108BE000039B43F08003039398F80030E6E6A3F17B
:108BF000300000231C4618F8013B04EB840400EB12
:108C00004404A3F130000928F5D90894D8E60D935F
:108C1000AB46002A41F0C481039B43F01003039349
:108C2000039B9C0640F137850A9F073727F007070B
:108C3000D7E9002307F108010A9114461D46002ACE
:108C400073F10003C0F26285BBF1000F9DF86F70F5
:108C5000C0F23F85039B23F08003039354EA05038E
:108C600000F0E881002D08BF0A2CC0F0E88130AE8A
:108C7000204629460A220023F8F736F9303206F852
:108C8000012D2046294600230A22F8F72DF9044633
:108C90000D4654EA0503EBD130AB9B1B0993099BAE
:108CA0005B45B8BF5B46049300230F9317B1049B49
:108CB00001330493039B13F002030B9302D0049B34
:108CC00002330493039B13F084030C9340F0DB8284
:108CD000089B049A9D1A002D40F3D582102D2599EA
:108CE000249AA84F27DD149648461024B946059EBD
:108CF0002F46069D04E0103F102F00F1080016DDFE
:108D00000132A04B24921031072A259180E81800E7
:108D1000F1DD23AA3146284602F02AFF00287FF41D
:108D2000EDAE103F102F2599249A30A8E8DC149E50
:108D30003D464F46814601326C18072A25942492FD
:108D4000C9F80070C9F8045000F32D849DF86F70C5
:108D500009F1080977B1249B013301340DF16F014A
:108D60000122072B2594249389E8060000F3A583AC
:108D700009F108090B9B6BB1249B013302341CA938
:108D80000222072B2594249389E8060000F3A1838F
:108D900009F108090C9B802B00F0E182099BC3EBD1
:108DA0000B07002F33DD784A249B0B92102F22DD16
:108DB00022464FF0100B069D059C04E0103F102F3B
:108DC00009F1080916DD01331032072B259224938F
:108DD00089E8000CF2DD23AA2146284602F0C8FEED
:108DE00000287FF48BAE103F102F259A249B0DF1A5
:108DF000C009E8DC144601330B9A24933C44072B4A
:108E0000259489E8840000F34C8309F10809039B49
:108E1000DA0500F13A82249B0999C9F80060013310
:108E20000C44072B2594C9F80410249300F32383E2
:108E300009F10809039B59073FD5089B049A9D1A1D
:108E4000002D3ADD102D249B4E4F23DD22461026A7
:108E5000DDF818B0059C04E0103D102D09F108095B
:108E600017DD0133474924931032072B259289E8F7
:108E70004200F1DD23AA2146584602F079FE00287F
:108E80007FF43CAE103D102D259A249B0DF1C009B6
:108E9000E7DC144601332C44072B25942493C9F8AE
:108EA0000070C9F8045008DD23AA0599069802F05D
:108EB0005FFE00287FF422AE259C079B089A049948
:108EC0008A42ACBF9B185B180793002C40F0DF82EE
:108ED000002324930DF1C0093DE50D93AB46002A14
:108EE00041F06280039B0A9F1A0707F1070740F1D0
:108EF000748527F0070393ED007B8DED107B03F164
:108F000008020A92DDE9101222F00043169117932D
:108F1000DDE916454FF0FF32204629461B4BF7F797
:108F2000A5FF002840F0DA844FF0FF32174B2046AF
:108F30002946F7F77DFF002840F0D0840022002367
:108F4000DDE91001F7F76AFF002840F052879DF82D
:108F50006F700F4E0F4B039921F0800103910D9913
:108F600003224FF0000B04924729D8BF1E460992F6
:108F7000CDF83CB09AE6039B43F00803039398F8BE
:108F800000301BE570D400081CD40008FFFFEF7F01
:108F900030D400082CD400080D93AB46002A41F0D1
:108FA0000F80039B43F010030393039A12F02003F6
:108FB0007FF4BAAD039911F0100200F05B840A98B7
:108FC0008DF86F30BBF1000F046800F104074FF01B
:108FD0000005C0F219850A4622F08002039254EA85
:108FE00005020A9700F03A811F46B3E50D93AB46A0
:108FF000002A40F0E187039B43F010030393039A98
:1090000012F0200300F02C830A9F073727F0070394
:10901000002703F10801BB450A91D3E900458DF80B
:109020006F70C0F2568322F08003039354EA050365
:109030007FF418AEBBF1000F00F0F580002440AEC5
:10904000303406F8414D27E60D93AB46002A40F038
:10905000AF87039BAF489D0640F1B5800A9F073755
:1090600027F00703D3E9004503F108020A92039AA7
:1090700012F0010700F0398254EA050300F002857E
:109080009DF834208DF871200027039A8DF86F70B9
:109090003023BB458DF8703042F00203C0F2AE863B
:1090A00022F0800343F00203039330AE230904F05F
:1090B0000F0143EA05732A091C461546435C06F86E
:1090C000013D54EA0503F1D1E6E50A990D930A68DA
:1090D0008DF8982000230A461F468DF86F30043221
:1090E00001230493BB460F970A92099326AEE1E54C
:1090F0000D93AB46002A3FF493AD8DF86F108FE5CA
:10910000039B43F04003039398F8003056E498F82B
:10911000003000297FF452AC012220214EE4039B51
:1091200043F00103039398F8003047E40A9C236856
:10913000089318460028234603F10403FFF6A0AC69
:109140000A9398F8003039E498F8003001222B2176
:1091500034E4039B43F02003039398F800302DE49C
:109160000A9A0D93166800248DF86F40171D002E83
:1091700000F01C86002DC0F261852A46214630464B
:10918000F7F786FC002800F06386831B0993A3464B
:1091900023EAE3730A970493CDF83CB09DF86F700F
:1091A00084E50D93AB46002A3FF429AF8DF86F108C
:1091B00025E70D93AB46002A40F00E87039B5648E7
:1091C0009D063FF54BAF039BDC0640F13E840A9AB7
:1091D0001346043314680A93002548E798F80030D2
:1091E0006C2B00F0C284039840F010000390FFF74E
:1091F000E5BB002A40F0EC86039B9B0640F15783B9
:109200000A9A07991368CD170846043229460A922C
:10921000C3E90001FFF79FBB3F480D92BBF1000F70
:1092200040F074815F464FF0000BCDF824B030AEB3
:1092300035E50D93002A40F0C7860D9A002A3FF4C9
:1092400056AC002301211F4604918DF898208DF81B
:109250006F309B460F93099126AE2BE5BBF1000FB3
:1092600000F00E8600270024002573E42A480393AB
:109270000D9254EA05030A974FF000077FF415AFEB
:109280000024002511E7259C64E50D9B652B40F328
:10929000AA8000220023DDE91001F7F7B5FD0028C0
:1092A00000F03681249B1D4AC9F8002001330134A7
:1092B0000122072B25942493C9F8042000F3EE83A0
:1092C00009F108091D9B0E9A934203DB039BDB0700
:1092D0007FF5B0AD249B1299139AC9F80020013391
:1092E0000C44072B2594C9F80410249300F34784F9
:1092F00009F108090E9B5D1E002D7FF79BAD084A02
:10930000249B0B92102D40F3E9811026069FDDF877
:1093100014B00DE03CD4000850D400086CD4000810
:109320001CD4000809F10809103D102D40F3D68126
:1093300001331034072B25942493C9F800A0C9F8F1
:109340000460EFDD23AA5946384602F011FC0028DC
:109350007FF4D4AB259C249B0DF1C009E4E7089B66
:10936000049A9F1A002F7FF719ADBC4A249B0B92D9
:10937000102F2BDD4A462146B94610253746069C5C
:10938000059E06E0A9F11009B9F1100F02F10802DB
:1093900018DD01331031072B25912493C2F800A06A
:1093A0005560EFDD23AA3146204602F0E1FB00289C
:1093B0007FF4A4ABA9F11009B9F1100F2599249BF2
:1093C00030AAE6DC3E460C464F46914601330B9AE6
:1093D00024933C44072B259489E8840000F33D82C4
:1093E00009F10809DAE40E9B249D012B40F30A825F
:1093F000013501340123072D25942495C9F8006017
:10940000C9F8043000F30F8209F10809129A139B7E
:10941000C9F8003001351444072D25942495C9F866
:10942000042000F30D8209F1080900230022DDE980
:109430001001F7F7E9FC0E9B002840F0C380013BC8
:10944000013501361C44072D24952594C9F8006088
:10945000C9F8043000F3F58009F10809159AC9F834
:109460000420013514441FAB072D25942495C9F819
:1094700000307FF7DDAC23AA0599069802F078FB4F
:1094800000287FF43BAB259C0DF1C009D2E423AA50
:109490000599069802F06CFB00283FF419ADFFF720
:1094A0002DBB23AA0599069802F062FB00287FF4E1
:1094B00025AB259C0DF1C009A9E423AA05990698BE
:1094C00002F056FB00287FF419AB259C0DF1C00972
:1094D00050E423AA0599069802F04AFB00287FF47D
:1094E0000DAB259C0DF1C00954E4BBF1000F8DF8C4
:1094F0006F70C0F2DF8222F08003039354EA050309
:109500007FF4D3ADBBF1000F3FF48CAE0027B7E67C
:109510001D9D002D40F3D1820F9B0E9A9342A8BF50
:109520001346002B1D460DDD249BC9F80060013356
:109530002C44072B2594C9F80450249300F3A983E5
:1095400009F108090F9B002DA8BF5B1B002B1D46CE
:1095500040F3F880414A249B0B92102D40F3838204
:1095600022461027DDF818B0059C05E009F108092E
:10957000103D102D40F3768201331032072B2592D7
:109580002493C9F800A0C9F80470EFDD23AA21468E
:10959000584602F0EDFA00287FF4B0AA259A249BE1
:1095A0000DF1C009E4E723AA0599069802F0E0FA54
:1095B00000287FF4A3AA9DF86F70259C0DF1C009C7
:1095C000FFF7C8BB5E1E002E7FF748AF234B0B93FF
:1095D000102E2CDDCDF824801027B046DDF818B011
:1095E000059E06E0A8F11008B8F1100F09F108096E
:1095F0001ADD01351034072D25942495C9F800A0F3
:10960000C9F80470EEDD23AA3146584602F0B0FADC
:1096100000287FF473AAA8F11008B8F1100F259C58
:10962000249D0DF1C009E4DC4646DDF824800B9B47
:1096300001353444072D2594249589E848007FF7A7
:109640000BAF23AA0599069802F092FA00287FF43E
:1096500055AA259C249D0DF1C009FFE61CD40008E5
:10966000039911F0100200F0D3810A988DF86F3041
:10967000BBF1000F046800F104074FF0000526DB82
:109680000A4622F08002039254EA05020A971F4616
:109690007FF4E8AACEE4039BD8062AD4039B59069C
:1096A00027D50A99B1F900400431E51722462B4627
:1096B0000A91FFF7C4BA0A998DF86F30BBF1000F19
:1096C0000C6801F104074FF0000580F24C820A9704
:1096D0001F4654EA05037FF4C5AAB0E401330B9A90
:1096E00024932C44072B259489E824007FF7A0AB12
:1096F000C1E60A9A146813460433E51722460A9312
:10970000002A2B4673F10003BFF69EAA64424FF075
:109710002D0765EB4505BBF1000F8DF86F70FFF667
:10972000A1AA039B23F080030393FFF79BBA23AA0C
:109730000599069802F01CFA00287FF4DFA9259C01
:109740000DF1C0090F9A1D9B324417460E9A9342A1
:1097500047DB039AD50744D40E990E44F51BCB1A68
:109760009D42A8BF1D46002D2E460DDD249AC9F846
:10977000007001322C44072A2594C9F80450249221
:1097800000F3FE8209F10809002EACBF9D1B1D46A7
:10979000002D7FF74FABBA4A249B0B92102D9DDD15
:1097A0001026069FDDF814B004E009F10809103D09
:1097B000102D93DD01331034072B25942493C9F821
:1097C00000A0C9F80460F0DD23AA5946384602F02B
:1097D000CFF900287FF492A9259C249B0DF1C009A4
:1097E000E5E7249A12981399C9F80010013204444D
:1097F000072A2594C9F80400249200F3B48209F1E1
:109800000809A9E7039BD8073FF5F2AD01350134FC
:109810000123072D25942495C9F80060C9F8043068
:109820007FF71AAE0DE723AA0599069802F0A0F972
:1098300000287FF463A9259C249D0DF1C009E5E56E
:1098400023AA0599069802F093F900287FF456A9F7
:10985000259C249D0DF1C009E7E523AA05990698EA
:1098600002F086F900287FF449A9259C0DF1C00972
:10987000FFF794BA039911F0400300F0B9800A98F9
:109880008DF86F200346BBF1000F03F10403048839
:109890004FF00005C0F2C08121F08001039154EA2D
:1098A00005010A933FF4DAAC1746FFF753B9039B5F
:1098B000DF060BD4039B5E0608D50A9A13680432B0
:1098C0000A92BDF81C201A80FFF745B80A9A13685F
:1098D00004320A92079A1A60FFF73DB8DDE91001D9
:1098E00002460B46F7F7C2FA002840F0FD820D9BB6
:1098F000BBF1FF3F23F0200700F06782472F00F005
:109900008281119B039A002B42F480720B92C0F269
:1099100078829DED107B8DED187B002304930D9BC9
:10992000662B00F05582462B00F04581452F0CBF79
:109930000BF101055D4621AA1EAB019200932A4658
:109940001DAB02219DED180B069800F0F5FB0D9B59
:10995000672B064640F06B82039BDA0740F1B98221
:10996000741900220023DDE91801F7F74DFA0028E9
:1099700040F08D81219B9C4206D930215A1C2192B6
:109980001970219B9C42F9D89B1B472F0E9300F026
:1099900077810D9B652B40F359820D9B662B1D9B98
:1099A0000F9300F060820F9A0E998A42C0F23282C1
:1099B000039BD90700F18F8222EAE27309926722A2
:1099C0000D92049A002A40F02F8104930B9B03937D
:1099D00093469DF86F70FFF769B927F0070797ED79
:1099E000007B07F108038DED107B0A93FFF78ABA1D
:1099F0000A998DF86F30BBF1000F0C6801F1040774
:109A00004FF0000580F2AC800A970027FFF7A2B85C
:109A1000039911F040033FF44EAE0A988DF86F2081
:109A20000346BBF1000F03F1040304884FF0000567
:109A3000C0F2EF8021F08001039154EA05010A93FE
:109A400017467FF40FA9FFF7F5BA039B0A9A13F0A4
:109A5000400F134600F0E280043314880A93002577
:109A6000FFF705BB144601330B9A24932C44072BB4
:109A7000259489E824003FF75AAE09F1080961E608
:109A80001CD400080027BB458DF86F70FFF6F8ABBB
:109A9000039B23F080030393FFF7C0BB23AA059920
:109AA000069802F065F800287FF428A8259C0DF19F
:109AB000C00907E40A9FFFF7DCBB249BB84AC9F83A
:109AC0000020013301340122072B25942493C9F887
:109AD000042000F38B8009F108092DB90E9B1BB9F6
:109AE000039BDF077FF5A6A9249B1299139AC9F857
:109AF000002001330C44072B2594C9F8041024934B
:109B000000F3CD8109F108096D42002D40F3AA80D0
:109B1000A44A0B92102D40F3C98022461027DDF88D
:109B200018B0059C05E009F10809103D102D40F31F
:109B3000BC8001331032072B25922493C9F800A072
:109B4000C9F80470EFDD23AA2146584602F010F848
:109B500000287EF4D3AF259A249B0DF1C009E4E7D9
:109B6000039AFFF739BA039A8BE5039B43F020036E
:109B7000039308F1010898F80030FEF71FBF23AAED
:109B80000599069801F0F4FF00287EF4B7AF259CF4
:109B90000DF1C009FFF7AEBB4021069801F008FAAD
:109BA000059A10601061002800F0F381059A4023A7
:109BB0005361FEF7C0BE21AA1EAB019200935A4624
:109BC0001DAB03219DED180B069800F0B5FA5D461C
:109BD00006460D9B462B06EB05047FF4C2AE337898
:109BE000302B00F087811D9D2C44BAE623AA0599ED
:109BF000069801F0BDFF00287EF480AF1D9D259CD6
:109C00000DF1C00969E7BBF1000F08BF4FF0010B70
:109C100077E60A9317465CE50A93F6E60433146880
:109C20000A930025FFF723BA2D2704930B9B039378
:109C30008DF86F704FF0000BFFF739B83046F7F72B
:109C40001FF8A34603460990FFF7A2BA23AA059975
:109C5000069801F08DFF00287EF450AF259C249BD0
:109C60000DF1C0090E99C9F8006001330C44072BAF
:109C700025942493C9F804107FF7DAA8FFF7FBBBFB
:109C80001D9BDD1C1EDB9B451CDB0F938BE62346D7
:109C90007AE623AA0599069801F06AFF00287EF467
:109CA0002DAF259C0DF1C0094CE4144601330B9AED
:109CB00024932C44072B259489E82400C6DC09F161
:109CC0000809CFE70D9A023A0D92013B002B9DF84F
:109CD00034201D93B8BF5B428DF87C20B4BF2D2289
:109CE0002B22092B8DF87D2040F3EB800DF18B00AA
:109CF00004462D4A82FB0321DA17C2EBA10202EBD4
:109D00008201A3EB410303F13001092A134604F851
:109D1000011DEEDC21463033DAB201F8012D884214
:109D200040F234810DF17E01234601E013F8012B4E
:109D300001F8012B9842F9D1431C1B1B0DF17E0247
:109D400013441FAA9B1A0E9A1593012A13440993D0
:109D500040F3E780099B129A1344002209930F9263
:109D600023EAE3732DE623AA0599069801F000FF84
:109D700000287EF4C3AE1D9B259C0DF1C009EBE4C9
:109D800023AA0599069801F0F3FE00287EF4B6AEEA
:109D90001D9B0E9A259CD31A0DF1C009F4E400BF57
:109DA0006CD400081CD4000867666666062D2B4636
:109DB00028BF0623099323EAE373B3460A970F9655
:109DC00037460493864EFEF771BF4FF0060B98E5B9
:109DD00021AA1EAB019200935A461DAB03219DEDB3
:109DE000180B069800F0A8F95D46064600EB0B0438
:109DF000F5E62D278DF86F70FFF7ABB80393FFF7EB
:109E000054B9DDE9101202F1004319932D23189182
:109E1000049384E5129A0E9B13440F9A0993002A27
:109E200040F38980672223EAE3730D92C9E50D9B15
:109E3000472B7FF495AD039BDB073FF5CAAE219B13
:109E4000472FA3EB06030E933FF41AAF1D9B3CE78D
:109E500025EAE5730A970493099583460F909DF8C8
:109E60006F70FEF723BF002B6DDDBBF1000F4FD1EC
:109E7000039AD4074CD41A46099223EAE373A0E567
:109E8000039BDB075F4605D540AE302306F8413D16
:109E9000FEF702BFCDF824B030AEFEF700BF23AA14
:109EA0000599069801F064FE00287EF427AE1D9DFA
:109EB000259C249B0DF1C00926E6A0460025FEF74F
:109EC0007FBD303330228DF87F308DF87E2020AB7F
:109ED00037E7219B58E5129A0F9B13446722099399
:109EE0000D9223EAE3736CE53E4E3F4B9DF86F7095
:109EF000FFF731B800220023DDE91801F6F784FFEF
:109F000000287FF470AEC5F101051D952C4428E5AD
:109F10000F9B129A9D1805EB0B03099323EAE37339
:109F20004FE5039B13F001037FF414AF0F93099BDC
:109F300023EAE37345E50F9B099AC3F101031A4431
:109F4000134609926EE7BBF1000F02D1039BD807BD
:109F500007D5129B5D1C05EB0B03099323EAE37302
:109F60002FE5012309932CE50A9898F8013005683C
:109F70000430002D0A90A046BEF620AD4FF0FF350C
:109F8000FEF71CBD8DF86F10FEF7C9BD0DF17E0305
:109F9000D7E6069A0C2313604FF0FF30FEF7B7BDEB
:109FA0008DF86F10FEF738BE8DF86F10FEF79ABF70
:109FB0008DF86F10FFF74DB88DF86F10FFF71BB8D5
:109FC0008DF86F10FEF7EDBF8DF86F10FFF735B904
:109FD0008DF86F10FFF710B98DF86F10FFF7EEB81E
:109FE00064D4000838D4000834D40008024B13B1FC
:109FF000024800F005B87047000000006DAF00088F
:10A00000002301461A46184601F032BE02690B6968
:10A01000934200F38D802DE9F04F03F1FF3801F1F9
:10A02000140700F1140B57F828205BF828304FEA8A
:10A03000880483B00132B3FBF2F90BEB0403009404
:10A0400007EB040A0193B9F1000F39D00025BC4693
:10A05000DE462B465CF8046BDEF80020B4B209FB48
:10A060000455360C2C0C09FB0644ADB25B1BA6B2A2
:10A0700013FA82F3C6EB124606EB23469BB243EA81
:10A080000643E2454EF8043B4FEA14454FEA2643A7
:10A09000E0D2009B5BF8033093B9019C231F9B45E2
:10A0A0000CD254F8043C4BB9A4F1080302E01A683E
:10A0B000043B1AB99B4508F1FF38F8D3C0F810806B
:10A0C000044601F039FC00282EDB09F101095D4648
:10A0D000002357F8041B28688AB29A1A090C12FA4E
:10A0E00080F2C1EB104303EB224391B241EA0341FA
:10A0F000BA4545F8041B4FEA2343EAD25BF828200F
:10A100000BEB880382B91A1F93450BD253F8042C2A
:10A1100042B9083B02E01A68043B1AB99B4508F1B2
:10A12000FF38F8D3C4F81080484603B0BDE8F08F7C
:10A1300000207047000000002DE9F04F57EC106B35
:10A140009BB0046C249D009181460592039310EE10
:10A1500010AABB4654B1426C626001239340A360D5
:10A16000214601F007FA0023C9F84030BBF1000F87
:10A170005C4634DB00232B60A14B1A4623409342FC
:10A1800016D00022002350465946F6F73DFE5646AB
:10A190005F46804648B3039A01231360259B002B3A
:10A1A00000F0BE809748186001381BB0BDE8F08F02
:10A1B000039A42F20F731360BAF1000F00F09A8015
:10A1C0009148259B002BF0D0C378002B00F0AA808B
:10A1D00000F10803259A13601BB0BDE8F08F01233E
:10A1E0002BF000442B60A346C6E718AA19A947EC38
:10A1F000106B484601F04CFC250D0A9040F083801E
:10A20000189D199E2E4406F23243202B40F388827B
:10A21000C3F1400306F212409C402AFA00F02043AA
:10A22000F6F75EF90123741EA1F1F8710F93002275
:10A23000764BF6F717F86CA3D3E90023F6F7C6F9C7
:10A240006BA3D3E90023F6F70FF8064620460F4626
:10A25000F6F756F968A3D3E90023F6F7B7F90246F3
:10A260000B4630463946F5F7FFFF06460F46F6F730
:10A2700013FE00220490002330463946F6F7CEFD47
:10A28000002840F02882049E162E00F22182604BA6
:10A2900003EBC603D3E9000152465B46F6F7DCFD4B
:10A2A000002800F04282731E049300230D932D1B9F
:10A2B000B5F1010800F12A8200230793049B002BCB
:10A2C000C0F21B8298440C9300230693009B092B39
:10A2D0002AD8052B40F34486043B00930026009BBC
:10A2E000023B032B00F22386DFE813F02B0324024A
:10A2F00036035004444B474AC4F31300002814BFEC
:10A30000184610465DE7CBF3130343F07F51A5F2E7
:10A31000FF345046CDF83C8041F44011189D86E74B
:10A320003D4842E7C31C55E70021C9F844104846A0
:10A330000C46009101F0F8F84FF0FF3308930E93AC
:10A3400001230990C9F8400005940B93199B002B39
:10A35000C0F2D080049A0E2A00F3CC802C4B03EB81
:10A36000C20393ED007B059B002B8DED007BC0F2BB
:10A37000FE8256465F46DDE900AB304652465B46FC
:10A380003946F6F74DFAF6F787FD0446F6F7B8F8C2
:10A3900052465B46F6F71AF90B46024639463046F6
:10A3A000F5F760FF099D04F130032B70089B012B2A
:10A3B00006460F4605F1010561D00022174BF6F75E
:10A3C00005F90022002306460F46F6F71DFD00287A
:10A3D0007DD1CDF81490DDF820A0DDF824B0DDE9C2
:10A3E000008928E0AFF3008061436F63A787D23F05
:10A3F000B3C8608B288AC63FFB799F501344D33F74
:10A400000000F07F6DD400088CD400080000F83FF5
:10A4100090D4000880D400086CD4000800002440C8
:10A42000F6F7D4F80022002306460F46F6F7ECFCB8
:10A43000002840F0AE8342464B4630463946F6F798
:10A44000EFF9F6F729FD0446F6F75AF842464B466F
:10A45000F6F7BCF802460B4630463946F5F702FFE0
:10A4600004F1300E05F801EBCBEB050ED6450646A0
:10A470000F464FF00002AE4BD2D1DDF814903246B9
:10A480003B4630463946F5F7EFFE06460F46024694
:10A490000B46DDE90001F6F7C1FC40B932463B4608
:10A4A000DDE90001F6F7B0FC88B1E3070FD515F838
:10A4B000014C099A6B1E04E09A4200F0FC8313F8E9
:10A4C000014D392C03F10105F6D001341C700A99B5
:10A4D000484601F04FF80022049B2A70039A01338A
:10A4E0001360259B002B00F09B8309981D601BB017
:10A4F000BDE8F08F0B9A002A00F00E81009A012A25
:10A5000040F35782089B069A5F1EBA42C0F28B83C3
:10A51000D71B089B002BC0F28084079D089B079ADD
:10A5200001211A4448460792984401F0BBF80646B8
:10A5300065B1B8F1000F09DD4545079A2B46A8BF64
:10A540004346D21A0792ED1AC3EB0808069B002B6C
:10A5500040F3F5820B9A002A00F00282002F00F0EF
:10A56000FF8131463A46484601F03EF90A9A0146D3
:10A570000646484601F0A0F80A990446484600F00D
:10A58000F9FF069BDB1B069340F0E9810121484659
:10A5900001F088F80C9B0690002B00F01582014614
:10A5A0001A46484601F020F9009B0690012B40F323
:10A5B000F3820027069A136902EB8303186901F0FE
:10A5C00023F8C0F12000404410F01F0000F0FA8191
:10A5D000C0F12003042B40F3BD84C0F11C00079B95
:10A5E0000344079305448044079B002B05DD214667
:10A5F0001A46484601F048F90446B8F1000F05DD57
:10A6000042460699484601F03FF906900D9B002B03
:10A6100040F07A82089B002B40F393820B9B002B27
:10A6200040F0F481DDF824B0089FDDF818805D4625
:10A6300002E000F0A9FF044641462046FFF7E6FC91
:10A6400000F1300A05F801ABCBEB0503BB424FF03C
:10A650000A024FF0000321464846EADB099B089AAC
:10A66000012AACBF9B1801331D464FF0000B214659
:10A670000122484601F008F906990A9001F05CF9B8
:10A68000002840F3058315F8012C09996B1E04E09E
:10A690008B4200F0748213F8012D392A03F1010571
:10A6A000F6D001321A700699484600F063FF002E7A
:10A6B0003FF40DAFBBF1000F05D0B34503D05946B1
:10A6C000484600F057FF3146484600F053FFFEE68B
:10A6D00001230D93EBE5DDF810804046F5F710FF00
:10A6E00002460B4630463946F6F78EFB00287FF4CB
:10A6F000CAAD08F1FF330493C5E5079A049BD21A4B
:10A700005B420693002307920C93DFE5C8F1000338
:10A7100007934FF00008D1E5069F079D0B9E07E7C2
:10A72000C3F120040AFA04F07AE50D90BFE500BFFA
:10A730000000244000230B93049B059A13440E93BE
:10A740000133002B089340F37D82089C25460021AD
:10A75000172DC9F844100BD9012204235B0003F123
:10A760001400A842114602F10102F7D9C9F84410B9
:10A77000484600F0D9FE0E2C0990C9F840003FF67B
:10A78000E5AD002E3FF4E2AD04990029CDE910AB10
:10A7900040F39A82904B01F00F020E1103EBC203BB
:10A7A000F006D3E9004540F146828C4B50465946AD
:10A7B000D3E90823F6F734F8CDE9120106F00F06C5
:10A7C0004FF0030A86B1854FF10709D52046294687
:10A7D000D7E90023F5F7FAFE0AF1010A04460D460F
:10A7E000761007F10807EFD122462B46DDE912016A
:10A7F000F6F716F806460F460D9B43B10022784B3C
:10A8000030463946F6F70AFB002840F01A835046D6
:10A81000F5F776FE32463B46F5F7D8FE714B00223F
:10A82000F5F722FD089B0446A1F15075002B00F0BE
:10A83000DB81049B1693089B12930B9B002B00F06B
:10A840009482129A644B684903EBC20353E90223D2
:10A850000020F5F7E5FF22462B46F5F703FD82467B
:10A860008B4630463946F6F717FB0446F5F748FEA7
:10A8700002460B4630463946F5F7F4FC3034099D64
:10A88000E4B206460F462C7002460B465046594627
:10A890000135F6F7E1FA002850D132463B46002058
:10A8A0004F49F5F7DFFC02460B4650465946F6F78E
:10A8B000D3FA002840F00883129A012A40F3F78166
:10A8C000129B099ACDF84880134498460DE0002069
:10A8D0004349F5F7C7FC52465B46F6F79FFA002856
:10A8E00040F0F282454500F0E08150465946002292
:10A8F0003E4BF5F76BFE00223C4B82468B463046C2
:10A900003946F5F763FE0F460646F6F7C5FA0446E4
:10A91000F5F7F6FD02460B4630463946F5F7A2FC40
:10A920003034E4B252465B4605F8014B06460F460A
:10A93000F6F774FA32463B460028C8D0169B0493BB
:10A94000C5E500230B93059B002B40F380811D463A
:10A950001C460E930893FAE601230B93F3E70A943F
:10A96000069A0A99484600F03FFF04460EE6089B07
:10A97000002B3FF7FEAC40F04F8100221C4BDDE97D
:10A980000001F5F723FE5B465246F6F75BFA089B9B
:10A9900006931E46002800F0EA80059B099DDB43D4
:10A9A00004930699484600F0E5FD002E3FF48FAD74
:10A9B00089E60F9A002A00F0388203F23343069F9B
:10A9C000079DACE51C200AE6009B012B40F380822A
:10A9D0000C9F0120F7E500BF90D4000858D500086F
:10A9E0000000F03F00001C400000E03F0000244059
:10A9F00000001440314600230A22484600F0C4FDFE
:10AA00000E9B002B064640F38D820893002D05DD3A
:10AA100031462A46484600F037FF0646002F40F0F0
:10AA20007C81B046089B099A013BD31808930AF031
:10AA300001030A931746DDF818B020465946FFF780
:10AA4000E5FA31460546204600F076FF4246594673
:10AA50008246484600F092FFC268834605F1300303
:10AA6000002A49D101462046079300F065FF594668
:10AA70000590484600F07EFD059A079B2AB900998B
:10AA800019B90A99002900F03582BAF1000FC0F215
:10AA9000E38005D1009919B90A99002900F0DC80FA
:10AAA000002A00F34E81089A3B7007F1010A974291
:10AAB000554600F05281214600230A22484600F004
:10AAC00063FD4645044631464FF000034FF00A024D
:10AAD00048460BD000F058FD4146064600230A22A6
:10AAE000484600F051FD57468046A4E700F04CFD73
:10AAF0005746064680469EE701464846059300F0C5
:10AB000039FD0122059BC0E70699204600F014FF9D
:10AB10000028BFF67FAD2146049C0023013C0A2299
:10AB20004846049400F030FD0B9B0446002B7FF454
:10AB300061AF0E9B002B40F3ED81089372E50A9CF8
:10AB400024E5009B022B7FF769AD089B002B40F0AA
:10AB50009D8106990522484600F016FD01460690A3
:10AB6000204600F0E9FE00280A947FF716AF049A09
:10AB700009993123013204920B704D1C11E7049A9C
:10AB800001320492099A312313708CE501230B934F
:10AB9000D2E5DDF814909AE4BAF1000F7FF409AD24
:10ABA000CBF31303002B40F03E812BF000473F0D09
:10ABB0003F052FB1079B0133079308F101080127D7
:10ABC0000C9B0120002B3FF4FEACF3E45046F5F75C
:10ABD00097FC32463B46F5F7F9FC0022BF4BF5F7F0
:10ABE00043FB0446A1F15075304639460022BC4B68
:10ABF000F5F738FB22462B4606460F46F6F72CF9AA
:10AC0000002840F0AE80224605F100433046394628
:10AC1000F6F704F900284AD0002306931E46BCE646
:10AC20000998FFF7C2BA069B0C9A0697FB1A1A44BA
:10AC30000C9200276DE49DED107B4FF0020A8DED24
:10AC4000127BBFE51C460021C9F8441090E50124A1
:10AC50000E9408940594F6E7002A9A4611DD2146E1
:10AC60000122484600F010FE0699044600F064FEFA
:10AC7000002840F34881BAF1390F00F0098105F14D
:10AC8000310AB34687F800A07D1C46460A940AE5BF
:10AC900004D11AF0010F01D0F5E4154615F8013C76
:10ACA000302B05F1FF32F8D0FDE4DDF84880DDE916
:10ACB00010ABFFF74BBB099930220A70049A15F8C4
:10ACC000014C0132049200E4049B5C42002C00F031
:10ACD000B380844B04F00F0203EBC203D3E90023DB
:10ACE000DDE91001F5F772FC241106460F4600F06D
:10ACF00016817D4D4FF0020AE20709D530463946EC
:10AD0000D5E90023F5F762FC0AF1010A06460F4671
:10AD1000641005F10805EFD16EE57168484600F052
:10AD200003FC33699A1C0546920006F10C010C30B5
:10AD3000F5F7FEFE29460122484600F0A5FD8046B3
:10AD400070E6392B00F0A48003F1010AB34687F8BE
:10AD500000A07D1C46460A94A5E4B3469A464646A2
:10AD600085E4002306931E4601E7129B5D495A1EA7
:10AD700001EBC2012B461792D1E900012246F5F7FB
:10AD800025FCCDE9140139463046F6F785F804462E
:10AD9000F5F7B6FB0B46024639463046F5F762FA40
:10ADA000129B0F4609993034012B06460C7001F1B5
:10ADB000010520D0129B099A13449A46AB46002203
:10ADC0004A4B30463946F5F701FC0F460646F6F782
:10ADD00063F80446F5F794FB303402460B463046E0
:10ADE0003946F5F73FFA0BF8014BDA4506460F46B0
:10ADF000E5D1179B1D4400223D4BDDE91401F5F719
:10AE000033FA32463B46F6F709F8002848D0169B3D
:10AE1000049315F8014CFFF74CBB079B089A9D1A49
:10AE20000023FFF77CBB0027CAE6189B069F079DFF
:10AE3000C3F13603FFF773BBDDE910674FF0020A79
:10AE4000DAE4089B002B3FF4C1AE0E9B002B7FF78A
:10AE50002EAF0022254B30463946F5F7B7FB0646A4
:10AE60000F460AF10100F5F74BFB32463B46F5F77A
:10AE7000ADFB0022194BF5F7F7F9049A0E9B1293DC
:10AE8000013A0446A1F150751692D6E40A9484E57D
:10AE90003922B3460A9446463A707D1CFFF7F5BB4B
:10AEA000DDE9142300201249F5F7DCF932463B4670
:10AEB000F5F7D2FF08B9FAE6154615F8013C302B34
:10AEC00005F1FF32F8D039E5169B0493FFF7F1BA8C
:10AED000BAF1000F7FF47CAD62E600BF00001C40B9
:10AEE0000000144090D4000858D500080000244009
:10AEF0000000E03F392BD3469A46C9D0BBF1000F82
:10AF00003FF7BDAEBDE67FF4BCAE1AF0010F3FF4D3
:10AF1000B8AEB0E6009B022B25DC0E9B0DE64FF091
:10AF2000020A69E4009B022B1DDC0E9B6DE50024E8
:10AF3000C9F844402146484600F0F6FA4FF0FF3386
:10AF400008930E93012309900594C9F840000B93D0
:10AF5000FFF7FCB93FF448ABC0F13C00FFF73FBB43
:10AF60000126FFF7BCB90E9B0893EEE538B5074DF7
:10AF7000074C2C1BA41005D0013C55F8043D984704
:10AF8000002CF9D1BDE8384001F0A8BAB4D60008C9
:10AF9000B0D60008044A054B1268506B002808BF61
:10AFA0001846F030704700BF3004002044080020ED
:10AFB0002DE9F04F01F10B05162D83B0064640F246
:10AFC0009F8035F0070500F1BF80A94200F2BC80E8
:10AFD00000F0A6FAB5F5FC7FC0F09C826B0A00F089
:10AFE000BA80042B00F28381A80900F1390E4FEAE0
:10AFF0004E033830C44F07EB8303A3F108015C68AC
:10B00000A14207D1ACE0002A80F2AC80E468A14202
:10B0100000F0A680636823F003035A1B0F2AF2DDB9
:10B02000B9493C6901F1080E744500F0B3816368C9
:10B0300023F003035A1B0F2A00F39981002AC1F859
:10B0400014E0C1F810E080F29E80B3F5007F80F03C
:10B050006781DB0803F1010C01229B1002FA03F364
:10B060004A6851F83C80C4F8088001EBCC091A43C7
:10B07000A9F10803E3604A6041F83C40C8F80C407D
:10B08000831001249C40944200F28A80144206D12D
:10B0900020F003006400144200F10400FAD007EB32
:10B0A000C009CC468046DCF80C108C4507D173E112
:10B0B000002A80F28181C9688C4500F06D814B685F
:10B0C00023F003035A1B0F2AF2DD0C46D1F80CC003
:10B0D00054F8088F4B1945F001054D6042F001010D
:10B0E000C8F80CC03046CCF808807B613B61C3F8DF
:10B0F0000CE0C3F808E059609A5000F013FA1FE022
:10B10000102921D800F00CFA1025062302207E4FCA
:10B1100007EB8303A3F108025C68944200F04581C9
:10B120006368E168A56823F00303234430465A6846
:10B13000E96042F001028D605A6000F0F3F90834D2
:10B14000204603B0BDE8F08F00240C232046336076
:10B1500003B0BDE8F08F80234FF0400E3F2049E759
:10B1600070465DE72344E1685A68A56842F0010231
:10B17000E96030468D605A6000F0D4F9083420460A
:10B1800003B0BDE8F08F234430465A6842F0010214
:10B190005A6000F0C7F90834204603B0BDE8F08FCC
:10B1A000BC68636823F00308A84504D3C5EB080313
:10B1B0000F2B00F38C80554BDFF860911A68D9F89B
:10B1C000003001332A4404EB080A00F0608102F5E4
:10B1D00080520F3222F47F6222F00F021146304675
:10B1E000019200F0B3FCB0F1FF3F8346019A00F0FA
:10B1F0005881824500F2FC80454B1968DA451144BC
:10B20000196000F05381D9F80000DFF810E1013037
:10B210001BBFCAEB0B0A5144CEF800B019601BF0FB
:10B22000070100F01781C1F10800C1F58051834486
:10B2300008315A44C2F30B02C2EB010949463046B9
:10B24000019300F083FC431C019B00F03F81CBEB9A
:10B2500000024A4442F001021968C7F808B04944A4
:10B26000BC42CBF804201960DFF8A49016D0B8F1E6
:10B270000F0F40F2FD806268A8F10C0323F0070372
:10B28000E01802F001024FF0050E1A430F2B626026
:10B29000C0F804E0C0F808E000F21C811D4BBC6857
:10B2A0001A68914288BF19601B4B1A689142626804
:10B2B00088BF196022F003029542A2EB050301D872
:10B2C0000F2B04DC304600F02DF9002438E762191A
:10B2D00043F0010345F0010565603046BA605360F4
:10B2E00000F020F90834204603B0BDE8F08F142B9D
:10B2F00071D9542B00F2A480280B00F16F0E4FEA95
:10B300004E036E3076E600BF34040020F0090020C2
:10B31000F4090020EC090020E80900204008002082
:10B320005A0A042A5ED9142A00F2B38002F15C01A1
:10B3300049005B3207EB810C57F82110DFF8DC8104
:10B34000ACF1080C8C4500F088804A6822F00302BA
:10B35000934202D289688C45F7D1D1F80CC07A6843
:10B36000C4F80CC0A160CCF80840CC6088E6631932
:10B3700042F0010745F00105656030464B610B6105
:10B38000C3F80CE0C3F808E05F609A50083400F09E
:10B39000C9F8D5E64A6873E608F1010818F0030F0A
:10B3A0000CF1080C7FF47FAE30E0DC68A34208BFEC
:10B3B00002303FF435AEB3E60B440C465A68C96818
:10B3C00054F8085F42F001025A603046E9608D602F
:10B3D00000F0A8F8B4E603F15C0E03F15B004FEA5D
:10B3E0004E0307E69A0902F1390149003832A1E714
:10B3F000BC424A4B3FF400AF9C68626822F00302F3
:10B400005AE759F80839994540F0828010F0030F47
:10B4100000F1FF30F5D17B6823EA04037B60640010
:10B420009C423FF6BDAE002C3FF4BAAE1C424046F3
:10B430007FF435AE64001C4200F10400FAD02EE621
:10B44000B3F5AA7F18D8E80B00F1780E4FEA4E0347
:10B450007730CFE54FF48051EBE60121D8F8043086
:10B46000921001FA02F21A43C8F80420614677E705
:10B470000123CBF8043025E740F25452934220D800
:10B48000A80C00F17D0E4FEA4E037C30B2E510327D
:10B49000A4E6542A26D81A0B02F16F0149006E3235
:10B4A00048E7BC68626822F0030205E7CAF30B00B4
:10B4B00000287FF4A8AE4244BB6842F001025A6003
:10B4C000ECE6FE234FF07F0E7E2093E501224FF045
:10B4D0000009C1E604F10801304600F099FCD9F8F2
:10B4E0000010DBE6B2F5AA7F05D8DA0B02F178018D
:10B4F000490077321EE740F254518A4205D89A0C2F
:10B5000002F17D0149007C3214E7FE217E2211E721
:10B510007B6884E7E808431C5B00F8E534040020FE
:10B52000704700BF704700BFC36C70B505460C463E
:10B530004BB153F8240080B1026843F82420002363
:10B540000361C36070BD2122042100F0E3FBE864C5
:10B5500003460028EDD1002070BD012101FA04F658
:10B56000721D2846920000F0D5FB0028F3D04460FD
:10B570008660E4E731B1C36C4A6853F82200086082
:10B5800043F82210704700BFF0B50C6983B00D4638
:10B59000064601F1140E0027DEF8000081B202FB1E
:10B5A00001310B0C000C02FB003389B2013701EBB7
:10B5B0000341BC424EF8041B4FEA1343ECDC3BB1A1
:10B5C000AA68944207DA05EB8402013453612C61C6
:10B5D000284603B0F0BD6968019301313046FFF79A
:10B5E000A3FF2A69023205F10C01074692000C30D4
:10B5F000F5F79EFAF26C6968019B52F82100286009
:10B6000042F821503D46DEE7030C1B04B3B90004A9
:10B61000102310F07F4F04BF0002083310F0704F6A
:10B6200004BF0001043310F0404F04BF8000023318
:10B63000002807DB420003D4202070470023E8E7FE
:10B64000581C704718467047036813F0070207D06C
:10B65000D90720D49A0720D49B08036002207047A2
:10B6600099B209B91B0C102213F0FF0F04BF1B0A7B
:10B670000832190704BF1B090432990704BF9B084D
:10B680000232D90704D45B0801D12020704701326F
:10B69000036010467047002070475B08036001207C
:10B6A000704700BF10B50C460121FFF73DFF012296
:10B6B0004461026110BD00BF2DE9F04F0D691769AB
:10B6C000BD4283B00C46164604DA2A4634463D464F
:10B6D0000E461746A368616805EB07089845C8BF82
:10B6E0000131FFF721FF00F1140C0CEB8809CC4568
:10B6F000009005D26346002143F8041B9945FBD80E
:10B7000006F1140202EB870A04F11403524503EB1D
:10B71000850E54D2CDF80490994652F8043B1FFA96
:10B7200083FBBBF1000F20D000204F466646054644
:10B7300000E01E4657F8044B3068A1B283B20BFB01
:10B740000131240C000C4B190BFB040000EB1340DF
:10B7500099B2334641EA0041BE454FEA104543F8ED
:10B76000041BE6D8756052F8043C5FEA134B20D006
:10B77000DCF80030674618464D46002100E03746A9
:10B780002C88000C0BFB040001449CB23E4644EAAA
:10B79000014346F8043B786855F8044B83B2240C07
:10B7A0000BFB043404EB1143AE454FEA1341E6D8DA
:10B7B0007B6092450CF1040CAFD8DDF80490B8F131
:10B7C000000F0BDD59F8043CA9F104091BB105E099
:10B7D00059F8043D13B9B8F10108F9D10098C0F83F
:10B7E000108003B0BDE8F08F12F003032DE9F041A3
:10B7F000144607462ED10E46A4101CD0BD6C95B33E
:10B80000E3074FF0000806D4641014D02868A8B1EC
:10B810000546E307F8D52A4631463846FFF74CFF80
:10B82000B6B17268FB6C641053F82210316043F8B3
:10B8300022600646EAD13046BDE8F0812A46294614
:10B840003846FFF739FF2860C0F800800546E0E77A
:10B850000646D9E75A1E0B4D002355F82220FFF764
:10B8600093FE0646C8E701213846FFF75DFE40F229
:10B87000712101220023416102610546B864036021
:10B88000BEE700BF80D500082DE9F04791460A6960
:10B890008B684FEA691404EB020808F101059D4228
:10B8A0000E468246496804DD5B009D4201F10101BC
:10B8B000FADC5046FFF738FE002C00F1140238DDA8
:10B8C00002EB8403002142F8041B9342FBD134694C
:10B8D00006F1140119F01F0901EB840E21D0C9F102
:10B8E000200200240F6807FA09FC4CEA04049C4675
:10B8F00043F8044B51F8044B8E4524FA02F4F1D876
:10B90000CCF804400CB108F10205DAF84C3072684A
:10B91000013D53F822100561316043F82260BDE813
:10B92000F087043B51F8042B43F8042F8E45F9D8D7
:10B93000EBE71346CBE700BF02690B69D21A13D1BC
:10B940009B0014301431194410B4034401E09842B0
:10B950000CD253F8044D51F8042D9442F7D009D37A
:10B9600001205DF8044B70471046704700205DF8D9
:10B97000044B70474FF0FF30F3E700BF2DE9F84369
:10B980000B690F4611695B1A002B904617D189008D
:10B9900007F1140208F114055318294401E09A42F2
:10B9A0005ED253F8046D51F8044DA642F7D060D230
:10B9B0003B46144647464FF00109984606E05DDBDA
:10B9C00007F1140502F114044FF000097968FFF73C
:10B9D000ABFDD8F810303E69C0F80C9004EB830C36
:10B9E000A64605EB860700F1140400235EF8041B4D
:10B9F00055F8048B8AB213FA88F3090C9A1AC1EB32
:10BA0000184303EB224392B242EA0342F44544F85E
:10BA1000042B4FEA2343E9D8AF4217D9A44629465D
:10BA200051F804EB13FA8EF2131403EB1E4392B297
:10BA300042EA03428F424CF8042B4FEA2343EFD8EB
:10BA4000ED433D4425F0030504352C44043C22B964
:10BA500054F8043D013E002BFAD00661BDE8F8839E
:10BA60000021FFF761FD0122002302614361BDE86F
:10BA7000F8832C464FF000091546A7E73B4607F12F
:10BA8000140408F1140547464FF0010998469DE754
:10BA90002DE9F04357EC106B83B0884601213C46FA
:10BAA000C7F30A551746FFF73FFDC4F31304814659
:10BAB0000DB144F4801401941EB302A840F8086D3F
:10BAC000FFF7C2FD002834D19DE80C00C9F814200E
:10BAD000002B0CBF01210221C9F81830C9F8101041
:10BAE000DDB909EB8103A0F23240C8F80000186903
:10BAF000FFF78AFDC0EB41103860484603B0BDE84F
:10BB0000F08301A8FFF7A0FD019BC9F814300121C3
:10BB10002030C9F81010002DE3D0A5F233450544BC
:10BB2000C0F13500C8F800503860484603B0BDE8A1
:10BB3000F0839DE80C00C0F1200103FA01F10A43F3
:10BB4000C3400193C9F81420C2E700BF38B5074CC1
:10BB50000023054608462360FBF7B4F8431C00D0D9
:10BB600038BD2368002BFBD02B6038BDB4210020EA
:10BB70002DE9F04F936883B09046002B72D0834636
:10BB80004FF00009166808688B680D464C46002C7B
:10BB900045D09C421F469A4646D3AB8913F4906F1A
:10BBA0002DD06F69296907EB4707C1EB000A07EB46
:10BBB000D777601C7F105044B8423A4684BF07468E
:10BBC0003A465B0533D511465846FFF7F1F9002890
:10BBD00037D0524629690190F4F7AAFFAA89019B40
:10BBE00022F4906242F08002AA81CAEB070203EBC2
:10BBF0000A006F612B612860AA602746A246524660
:10BC0000494600F003FAD8F80820AB682868DB1B27
:10BC10005044141BAB602860C8F8084014B3D6F831
:10BC2000009074680836B2E72746A246E7E7584610
:10BC300000F050FA03460028D7D12969584600F091
:10BC4000E7F80C23CBF80030AB89002243F0400327
:10BC50004FF0FF30AB81C8F80820C8F8042003B0CB
:10BC6000BDE8F08F0020C8F8040003B0BDE8F08FF5
:10BC70002DE9F047254C2568D5F848410646884609
:10BC800092469946C4B360681F2817DC431C76B1FE
:10BC900004EB80050122C5F888A0D4F88811824001
:10BCA0001143022EC4F88811C5F808911ED0023045
:10BCB000636044F820800020BDE8F087144B03B394
:10BCC0004FF4C870AFF300800446D0B1D5F84831C6
:10BCD000002780E88800C5F8484138460123C4F8A9
:10BCE0008871C4F88C71002EE1D0D1E7D4F88C11A2
:10BCF0000A43C4F88C21DAE705F5A674C5F8484173
:10BD0000C1E74FF0FF30BDE8F08700BF18D400084E
:10BD10000000000010B502FB01F1FFF749F90446ED
:10BD2000D8B150F8042C22F00302043A242A18D87F
:10BD3000132A14D900231B2A0360436016D9242A2E
:10BD40008360C36011BF00F110020361436100F121
:10BD500018020023136053609360204610BD024612
:10BD6000F7E70021FCF7C2FC204610BD00F10802F5
:10BD7000EFE700BFF8B5234F0C460646FFF7D0FBB0
:10BD8000BB685D6825F00305291B01F6EF7121F4FE
:10BD90007F6121F00F01A1F58054B4F5805F07DBCE
:10BDA00000213046FFF7D2FEBB682B44984204D0F6
:10BDB0003046FFF7B7FB0020F8BD61423046FFF781
:10BDC000C5FE01300DD0104BBA6819682D1B45F027
:10BDD00001053046091B55601960FFF7A3FB0120E0
:10BDE000F8BD00213046FFF7B1FEBA68831A0F2B69
:10BDF000DEDD064C0449246843F00103001B536058
:10BE00000860D5E734040020F40900204008002031
:10BE1000002945D02DE9F0410D468046FFF780FB13
:10BE200055F8047C6A4927F00103A5F10804E218DB
:10BE30008E685068B24220F0030062D0FE07506066
:10BE40000BD455F8087CE41B01F1080EA568754574
:10BE50003B446FD0E768EF60BD6015186D68ED0773
:10BE600042D543F001026260E350B3F5007F18D27F
:10BE7000DB085A1C4D6851F83270A76001209B10F6
:10BE800000FA03F301EBC2001D430838E0604D6087
:10BE900041F83240FC604046BDE8F041FFF742BB4C
:10BEA00070475A0A042A53D89A0902F139077F00C9
:10BEB00002F1380501EB870051F827204449083882
:10BEC00090424DD0516821F003018B4202D292681A
:10BED0009042F7D1D068E060A2608460D4604046B0
:10BEE000BDE8F041FFF71EBB95683A4FBD420344E1
:10BEF0003FD0D068E86043F0010285606260E350A3
:10BF0000B3E7FF07034407D455F8082CA41A1344D9
:10BF1000A068E268C26090602F4A126843F0010096
:10BF2000934260608C60B6D32C4B40461968FFF793
:10BF300021FFB0E711184968C90744D49168D26855
:10BF4000CA60034443F0010091606060E350A2E7DF
:10BF5000142A17D802F15C077F0002F15B05A9E7FC
:10BF6000AA104B68012505FA02F213434B60024602
:10BF7000B1E743F001024C610C61E560A5606260CD
:10BF8000E35088E7542A06D81A0B02F16F077F00A6
:10BF900002F16E058EE7B2F5AA7F06D8DA0B02F140
:10BFA00078077F0002F1770584E740F2545082421F
:10BFB00006D89A0C02F17D077F0002F17C0579E733
:10BFC000FE277E2576E743F001026260E35062E7D8
:10BFD000340400203C0400203C080020F00900202C
:10BFE00082B049B15AB16BB113780B601278101C52
:10BFF00018BF012002B0704701A9002AF3D11046F2
:10C0000002B070476FF00100F4E700BF8842F0B55E
:10C010000DD98B1898420AD28118002A51D09A1A49
:10C0200013F8014D01F8014D9342F9D1F0BD0F2AEB
:10C0300048D941EA00039B0746D100F1100401F101
:10C040001003154653F8106C44F8106C53F80C6C40
:10C0500044F80C6C53F8086C44F8086C103D53F825
:10C06000046C44F8046C0F2D03F1100304F1100468
:10C07000E8D8A2F1100323F00F0302F00F0E1033E3
:10C08000BEF1030F1944034421D91E1F0D46744607
:10C09000043C55F8047B46F8047F032CF8D8AEF135
:10C0A000040424F0030404342344214402F0030272
:10C0B00062B1013B0A4411F8014B03F8014F8A4277
:10C0C000F9D1F0BD0346F3E70346F2E7F0BD72464F
:10C0D000EEE700BF2DE9F04F174683B0002900F0CE
:10C0E000C1800E46814607F10B05FFF719FA56F895
:10C0F00004EC162D2EF00304A6F1080840D81022F7
:10C100001546AF4241D8944275DAC94B996808EB9D
:10C1100004008842416800F0D98021F00103034403
:10C120005B68DB077DD51EF0010F35D039464846E8
:10C13000FEF73EFF0746E0B156F8043C23F001034A
:10C140004344A0F108029A4200F04481221F242AAD
:10C1500000F23181132A00F204810346324611684D
:10C1600019605168596092689A6031464846FFF7F5
:10C170004FFE4846FFF7D6F9384603B0BDE8F08FCA
:10C1800025F00705002D2A46BBDA0C230020C9F84C
:10C19000003003B0BDE8F08F56F8083CC3EB080A46
:10C1A000DAF8043023F0030C04EB0C039342BDDBFC
:10C1B0005746DAF80C1057F8080F221F242AC160DE
:10C1C000886000F21781132A40F212813168CAF8A0
:10C1D00008107168CAF80C101B2A00F22B8108366F
:10C1E0000AF110023168116071685160B1689160A4
:10C1F0003E461C46D046631B0F2B1DD8D8F8043092
:10C2000003F0010323434444C8F80430636843F057
:10C21000010363604846FFF785F9304603B0BDE887
:10C22000F08F21F003012144914221DBC368826831
:10C230000C46D3609A60DEE7D8F8042008EB0501CD
:10C2400002F00102154343F001020B44C8F8045008
:10C250004A605A6842F0010208315A604846FFF7C6
:10C26000D7FDD7E7114603B0BDE8F04FFEF7A0BEFB
:10C270001EF0010F7FF45AAF56F8083CC3EB080AD2
:10C28000DAF8043023F0030C01EB0C0E96458BDB3F
:10C29000C36882685746D3609A6057F8081FDAF877
:10C2A0000C30CB60221F242A996000F29980132A57
:10C2B00062D93368CAF808307368CAF80C301B2A90
:10C2C00000F2A08008360AF1100356E021F0030BBB
:10C2D000A34405F11000834559DA1EF0010F7FF4E5
:10C2E00025AF56F8081CC1EB080ADAF8041021F053
:10C2F000030CE34458453FF757AF5746DAF80C10A4
:10C3000057F8080F221F242AC160886000F2B48009
:10C31000132A40F2A5803168CAF808107168CAF87B
:10C320000C101B2A00F2AF8008360AF110023168A7
:10C33000116071685160B16891600AEB0501C5EB4D
:10C340000B0242F0010299604A60DAF8043003F00F
:10C3500001031D434846CAF80450FFF7E3F8384686
:10C360005CE733680360736843601B2A27D800F1D9
:10C37000080306F10802F2E63B4632681A6072686A
:10C380005A60B2689A603E467446D04633E708EB7E
:10C390000501C5EB0B0B4BF0010299604A6056F8A2
:10C3A000043C03F001031D43484646F8045CFFF7D4
:10C3B000B9F8304632E73146FFF728FED5E6B368D4
:10C3C0008360F368C360242A28D000F1100306F1CB
:10C3D0001002C4E650F8043C23F003031C440AE7AF
:10C3E000314638467446D046FFF710FE3E4602E717
:10C3F0003A46F7E6314638461C46D046FFF706FE79
:10C400003E46F8E6B368CAF81030F368CAF814304C
:10C41000242A1BD010360AF11803AEE733690361F2
:10C420007369436106F1180200F1180397E600BF33
:10C4300034040020B168CAF81010F168CAF814106A
:10C44000242A0FD010360AF11802CBE63369CAF855
:10C4500018307369CAF81C3018360AF120038CE7CB
:10C460003A4664E73269CAF818207269CAF81C2093
:10C4700018360AF12002B5E6314638460193FFF737
:10C48000C5FD019B59E7B168CAF81010F168CAF8F8
:10C490001410242A03D010360AF1180247E7326933
:10C4A000CAF818207269CAF81C2018360AF120024E
:10C4B0003DE700BF21B1FF2A04D80A700120704770
:10C4C000084670478A2303604FF0FF30704700BF73
:10C4D000F8B500BFF8BC08BC9E467047F8B500BF71
:08C4E000F8BC08BC9E46704741
:10C4E8007761726E696E673A2048414C20696E69BF
:10C4F80074206572726F720A000000000A202D2DE8
:10C508002D204D505520616C69676E6D656E7420E5
:10C518004552524F522C204572726F72436F6465B8
:10C528003A000000202D2D2D0A0000002D6F6B2DE4
:10C538000A00000025316420253364202533640A6D
:10C548000000000025316420253364202533642051
:10C55800253130640A0000000A202D205265706FD2
:10C568007274207468652076697369626C652062EC
:10C578006C696E6B696E67206672657175656E634E
:10C5880079202D0A00000000202D20456E73757259
:10C5980065206F6E6C79204F4E4520626C696E6B1A
:10C5A800696E67206C6967687420697320696E20FA
:10C5B8006669656C64206F66207669657721202D31
:10C5C8000A000000202D2073657474696E6720448A
:10C5D80056532062696173657320746F20646566C1
:10C5E80061756C74203720282142443729202D207A
:10C5F800746F20616C6C6F77206869676820667259
:10C60800657175656E63696573202D0A0000000009
:10C61800202D20707265737320616E79206B6579A7
:10C62800207768656E20646F6E65202D0A00000013
:10C638000A202D2D2D20646F6E65202D2D2D206351
:10C648006F6E73696465722072657365740A0000A1
:10C658006D65616E5444203D20256C6475730A0035
:10C668006D6544565331323820560000312E39005A
:10C6780020696E69566174696F6E2C2068747470D5
:10C688003A2F2F7777772E696E69766174696F6EA6
:10C698002E636F6D000000002D42460A0000000066
:10C6A80053656C6563742064656661756C7420629B
:10C6B800696173207365743A2070617273696E677B
:10C6C800206572726F720A002D4554530A000000EB
:10C6D8002D45544D300A00002D45544D2B0A0000BD
:10C6E8002D4554490A0000002D4546582B0A0000E4
:10C6F8002D4546582D0A00002D4546592B0A0000A5
:10C708002D4546592D0A00002D45462B0A000000EC
:10C718002D45462D0A0000002D45502B0A0000002B
:10C728002D45502D0A0000002D4550410A000000FB
:10C738002D455358592B0A002D455358592D0A0099
:10C748002D4C2D0A000000002D4C2B0A0000000083
:10C758002D4C2E0A000000002D4C410A000000005C
:10C768002D542E3D30757320286F6666290A000007
:10C778002D542A3D30757320286F6666290A0000FB
:10C788002D544200547261636B696E6720426C7568
:10C798007272696E672057696E646F772070617274
:10C7A80073696E67206572726F720A0041424F5258
:10C7B80054202D20746F6F206D616E79206465663A
:10C7C80061756C74206672657175656E63696573F1
:10C7D80020646566696E6564210A0A5245534554AA
:10C7E800206D6963726F636F6E74726F6C6C6572C3
:10C7F800210A0000436F6E6669677572656420657B
:10C8080044565320616E6420313720646566617533
:10C818006C7420626C696E6B696E672066726571F4
:10C8280075656E636965730A000000002D546F66B4
:10C83800660A00006572726F722070617273696EA9
:10C8480067204C454420747261636B696E6720648D
:10C858006174610A000000002D54523D3075732048
:10C86800286F6666290A00006572726F722070610F
:10C878007273696E67204C454420747261636B69FA
:10C888006E67207265706F7274696E672074696D67
:10C89800652064656C74610A00000000756E72653D
:10C8A800636F676E697A656420747261636B696E21
:10C8B8006720636F6D6D616E640A00005365743A9A
:10C8C8002070617273696E67206572726F720A00F8
:10C8D8002D424425630A00002D42256C643D256CD9
:10C8E800640A00002D45543D256C640A00000000D0
:10C8F8002D45443D256C640A000000002D45256C3B
:10C90800640A00002D542E3D256C7575732028256A
:10C918006C75487A290A00002D542A3D256C7575D6
:10C92800732028256C75487A290A00002D5444255F
:10C93800633D256C757573202B2F2D256C757573CC
:10C948002028256C75487A290A0000002D544425B2
:10C95800633D30757320286F6666290A0000000061
:10C968002D5444256C753D256C757573202B2F2D22
:10C97800256C7575732028256C75487A290A00007E
:10C988002D5444256C753D30757320286F666629D3
:10C998000A0000002D54523D256C7575732028251A
:10C9A8006C75487A290A0000537570706F72746547
:10C9B8006420436F6D6D616E64733A0A0000000075
:10C9C800202B2F2D20202020202020202020202D2B
:10C9D80020656E61626C652F64697361626C6520A5
:10C9E8006576656E742073656E64696E672028616C
:10C9F8006C736F20452B2F2D20666F72206C656736
:10CA080061637920726561736F6E73290A00000093
:10CA18002021457820202020202020202020202D83
:10CA28002073706563696679206576656E74206425
:10CA380061746120666F726D61742C203F3F4520E0
:10CA4800746F2073686F77206F7074696F6E730AE4
:10CA580000000000202145465B2B2C2D5D20202066
:10CA68002020202D206669727374206576656E74A7
:10CA7800206F6E6C79202864697363617264206327
:10CA88006F6E7365637574697665206576656E7417
:10CA980073206F662073616D6520706F6C617269B9
:10CAA8007479290A00000000202145505B2B2C2DA9
:10CAB8002C415D202020202D206576656E74207025
:10CAC8006F6C617269747920706F736974697665C7
:10CAD8002F6E656761746976652F616C6C0A00005A
:10CAE800202145465B582F595D5B2B2F2D5D202D4E
:10CAF80020666C69702058206F7220592061646428
:10CB080072657373205B302E2E313237202D3E2014
:10CB18003132372E2E305D0A0000000020214553A7
:10CB280058592020202020202020202D2073776194
:10CB38007020582F59206164647265737365730A95
:10CB480000000000202145443D6E202020202020A8
:10CB58002020202D2074656D706F72616C20646FC9
:10CB6800776E2D73616D706C696E672C2073656EBE
:10CB780064206576657279206E277468206576650D
:10CB88006E740A00202145545B3D745D20202020EE
:10CB98002020202D207365742F72657365742074AE
:10CBA8006865206576656E742074696D6520737498
:10CBB800616D70205B746F20745D0A0020214554FC
:10CBC8004D5B302C2B5D20202020202D2073796E8A
:10CBD8006368726F6E697A652074696D652C206D63
:10CBE8006173746572206D6F64652028303A7374C0
:10CBF8006F702C202B3A72756E290A00202145543B
:10CC080053202020202020202020202D2073796EE2
:10CC18006368726F6E697A652074696D652C20731C
:10CC28006C617665206D6F64650A000020214554AB
:10CC380049202020202020202020202D20696E74CB
:10CC480065726E616C20636C6F636B6564207469D8
:10CC58006D650A00202154523D7420202020202098
:10CC68002020202D20736574204C45442074726167
:10CC7800636B696E67207265706F7274696E672086
:10CC8800696E74657276616C20746F207420696EA9
:10CC980020757320283020746F2064697361626C7A
:10CCA80065290A0020202020202020202020202064
:10CCB8002020202020547261636B696E67204461D4
:10CCC800746120526573706F6E73653A202D5469D4
:10CCD8005959597958585878525243432020202896
:10CCE800696E20484558290A000000002021544454
:10CCF8005B695D3D742020202020202D2073657401
:10CD080020747261636B696E672074696D652D6448
:10CD1800656C74612069205B302E2E005D20746F75
:10CD2800207420696E20757320283020746F206469
:10CD3800697361626C65290A000000002021544D66
:10CD480020202020202020202020202D206D6561FB
:10CD5800737572652F6964656E7469667920626C93
:10CD6800696E6B696E67206C6967687420667265A6
:10CD78007175656E63790A0020215442782020205D
:10CD8800202020202020202D2073657420626C75BF
:10CD98007272696E672077696E646F772073697A3B
:10CDA8006520746F202B2F2D7820286465666175A7
:10CDB8006C742030290A00002021542E3D74202054
:10CDC800202020202020202D2073657420626C6F85
:10CDD8006220747261636B696E67207265706F722E
:10CDE80074696E6720696E74657276616C20746F01
:10CDF800207420696E20757320283020746F206499
:10CE0800697361626C65290A000000002021542AB8
:10CE18003D742020202020202020202D20736574A0
:10CE2800207065616B20747261636B696E67207234
:10CE380065706F7274696E6720696E746572766169
:10CE48006C20746F207420696E2075732028302040
:10CE5800746F2064697361626C65290A00000000C0
:10CE6800202142723D622020202020202020202DD9
:10CE780020736574206269617320726567697374D1
:10CE8800657220725B302E2E31315D20746F2076F2
:10CE9800616C756520625B302E2E3136373737323C
:10CEA80031352028325E3234295D0A00202142467D
:10CEB80020202020202020202020202D20666C7576
:10CEC800736820626961732073657474696E67732F
:10CED80020746F204456530A000000002021424469
:10CEE80078202020202020202020202D2073656CF1
:10CEF80065637420616E6420666C75736820646570
:10CF08006661756C7420626961732073657420783A
:10CF18005B302E2E375D0A00203F425B785D202073
:10CF2800202020202020202D206765742062696140
:10CF380073207265676973746572207820637572EF
:10CF480072656E742076616C75650A0020214C2D1F
:10CF58002F2B2F2E2F615B3D745D202D204C4544D7
:10CF6800206F66662F6F6E2F626C696E6B696E67D5
:10CF78002F616C61726D205B696E206D735D0A00B4
:10CF88002052202020202020202020202020202D5A
:10CF980020726573657420626F6172640A00000014
:10CFA8002070526F67202020202020202020202D54
:10CFB80020656E74657220626F6F74206C6F616497
:10CFC80065720A00203F56202020202020202020A3
:10CFD8002020202D20646973706C61792066697245
:10CFE8006D776172652076657273696F6E0A0000ED
:10CFF800203F3F2020202020202020202020202DDE
:10D0080020646973706C61792068656C700A00002F
:10D01800202145302020202D20322062797465732C
:10D0280020706572206576656E742C2062696E6169
:10D0380072792031595959595959592E7058585897
:10D048005858585820286E6F2074696D652073747D
:10D05800616D7021290A0000202145312020202DF2
:10D06800203F20627974657320706572206576654B
:10D078006E74202861732045302C20666F6C6C6FAD
:10D088007765642062792064656C74612074696DC9
:10D0980065207374616D70290A00000020214532F3
:10D0A8002020202D203420627974657320706572E9
:10D0B800206576656E74202861732045302C2066C3
:10D0C8006F6C6C6F776564206279203136626974A1
:10D0D8002074696D65207374616D70290A00000001
:10D0E800202145332020202D203520627974657356
:10D0F80020706572206576656E74202861732045FE
:10D10800302C20666F6C6C6F7765642062792032F2
:10D11800346269742074696D65207374616D702957
:10D128000A000000202145342020202D20362062CE
:10D138007974657320706572206576656E74202831
:10D1480061732045302C20666F6C6C6F77656420A6
:10D1580062792033326269742074696D6520737452
:10D16800616D70290A0000002021453520202D20FE
:10D178003130206279746573207065722065766538
:10D188006E742C2041534349493A2070205959590B
:10D19800205858583C6E65776C696E653E0A0000E9
:10D1A8002021453620202D20323120627974657384
:10D1B80020706572206576656E742B74732C20411F
:10D1C800534349493A2070205959592058585820F2
:10D1D800747474747474747474743C6E65776C6964
:10D1E8006E653E0A000000004442474D43555F49C2
:10D1F80044434F444520547970653A2000000000AC
:10D2080020205265763A200043686970556E69712E
:10D21800756549443A200000466C61736853697A21
:10D22800653A20005061636B616765436F64653AD6
:10D238002000000067657420747261636B696E6713
:10D248002064656C74612C2070617273696E67204C
:10D258006572726F720A00002D547261636B696E99
:10D268006720617661696C61626C65206368616ED4
:10D278006E656C733A2000004765743A20706172DD
:10D2880073696E67206572726F720A002D544425A7
:10D29800633D25356C757573202B2F2D25356C75E1
:10D2A8007573202825346C75487A29205B25356CE0
:10D2B800752F25356C755D0A00000000444D41202E
:10D2C80066696C6C20636F756E743A203078000064
:10D2D800206F66203078000044656275673A200048
:10D2E80073657474696E6720616C6C206269617320
:10D2F800657320746F207A65726F0A00656E7465B5
:10D3080072696E6720726570726F6772616D6D69A0
:10D318006E67206D6F64650A0000000043757272C5
:10D32800656E74204853492074756E696E673A209B
:10D33800307800000A0A4853492074756E696E6790
:10D348003A203078000000002D7453746172742DF7
:10D358000A0000002D7453746F702D0A000000003D
:10D3680043616C6962726174696F6E20646F6E6587
:10D378000A000000526573746F726564206F7269E9
:10D3880067696E616C204853492074756E696E67D1
:10D398003A203078000000003F0A0000634C6F63B9
:10D3A8006B43616C6962726174696F6E00000000A2
:10D3B80030313233343536373839414243444546C3
:10D3C8004865617020616E6420737461636B2063CB
:10D3D8006F6C6C6973696F6E0A00000000000000D2
:10D3E800000000000102030406070809000000000D
:10D3F80001020304000610160006101601040208B4
:10D408000010101004101010021010100800000076
:10D41800080000203030303030303030303030309C
:10D4280030303030494E4600696E66004E414E003D
:10D438006E616E0030313233343536373839414217
:10D448004344454600000000303132333435363726
:10D45800383961626364656600000000286E756C87
:10D468006C290000300000002020202020202020EF
:10D478002020202020202020496E66696E6974795A
:10D48800000000004E614E00000000000000F03F68
:10D498000000000000002440000000000000594087
:10D4A8000000000000408F40000000000088C340DA
:10D4B80000000000006AF8400000000080842E414F
:10D4C80000000000D01263410000000084D797419B
:10D4D8000000000065CDCD41000000205FA00242A1
:10D4E800000000E876483742000000A2941A6D4216
:10D4F800000040E59C30A2420000901EC4BCD64209
:10D5080000003426F56B0C430080E03779C34143B3
:10D5180000A0D8855734764300C84E676DC1AB4329
:10D52800003D9160E458E143408CB5781DAF154447
:10D5380050EFE2D6E41A4B4492D54D06CFF0804422
:10D54800F64AE1C7022DB544B49DD9794378EA4437
:10D558000080E03779C34143176E05B5B5B89346E7
:10D56800F5F93FE9034F384D321D30F94877825AB3
:10D578003CBF737FDD4F15750500000019000000E2
:10D588007D00000043000000504F53495800000040
:10D598002E000000002020202020202020202828E5
:10D5A800282828202020202020202020202020205B
:10D5B800202020202088101010101010101010109B
:10D5C80010101010100404040404040404040410CB
:10D5D8001010101010104141414141410101010159
:10D5E8000101010101010101010101010101010123
:10D5F800101010101010424242424242020202022F
:10D6080002020202020202020202020202020202F2
:10D6180010101010200000000000000000000000A2
:10D6280000000000000000000000000000000000F2
:10D6380000000000000000000000000000000000E2
:10D6480000000000000000000000000000000000D2
:10D6580000000000000000000000000000000000C2
:10D6680000000000000000000000000000000000B2
:10D6780000000000000000000000000000000000A2
:10D688000000000000000000000000000000000092
:08D6980000000000000000008A
:08D6A0007838FF7F0100000053
:08D6A800ED9F000825020008B7
:04D6B000010200086B
:10D6B4000024F4000000000000000000F402002038
:10D6C4005C030020C40300200000000000000000F0
:10D6D4000000000000000000000000000000000046
:10D6E4000000000000000000000000000000000036
:10D6F4000000000000000000000000000000000026
:10D704000000000000000000000000000000000015
:10D714000000000000000000000000000000000005
:10D7240000000000000000000000000000000000F5
:10D7340000000000000000000000000000000000E5
:10D7440000000000000000000000000000000000D5
:10D7540000000000000000000000000000000000C5
:10D7640001000000000000000E33CDAB34126DE662
:10D77400ECDE05000B0000000000000000000000CB
:10D784000000000000000000000000000000000095
:10D794000000000000000000000000000000000085
:10D7A4000000000000000000000000000000000075
:10D7B4000000000000000000000000000000000065
:10DAE40008000020000000000000000034040020B2
:10DAF400340400203C0400203C04002044040020A2
:10DB0400440400204C0400204C0400205404002051
:10DB1400540400205C0400205C0400206404002001
:10DB2400640400206C0400206C04002074040020B1
:10DB3400740400207C0400207C0400208404002061
:10DB4400840400208C0400208C0400209404002011
:10DB5400940400209C0400209C040020A4040020C1
:10DB6400A4040020AC040020AC040020B404002071
:10DB7400B4040020BC040020BC040020C404002021
:10DB8400C4040020CC040020CC040020D4040020D1
:10DB9400D4040020DC040020DC040020E404002081
:10DBA400E4040020EC040020EC040020F404002031
:10DBB400F4040020FC040020FC04002004050020E0
:10DBC400040500200C0500200C050020140500208D
:10DBD400140500201C0500201C050020240500203D
:10DBE400240500202C0500202C05002034050020ED
:10DBF400340500203C0500203C050020440500209D
:10DC0400440500204C0500204C050020540500204C
:10DC1400540500205C0500205C05002064050020FC
:10DC2400640500206C0500206C05002074050020AC
:10DC3400740500207C0500207C050020840500205C
:10DC4400840500208C0500208C050020940500200C
:10DC5400940500209C0500209C050020A4050020BC
:10DC6400A4050020AC050020AC050020B40500206C
:10DC7400B4050020BC050020BC050020C40500201C
:10DC8400C4050020CC050020CC050020D4050020CC
:10DC9400D4050020DC050020DC050020E40500207C
:10DCA400E4050020EC050020EC050020F40500202C
:10DCB400F4050020FC050020FC05002004060020DB
:10DCC400040600200C0600200C0600201406002088
:10DCD400140600201C0600201C0600202406002038
:10DCE400240600202C0600202C06002034060020E8
:10DCF400340600203C0600203C0600204406002098
:10DD0400440600204C0600204C0600205406002047
:10DD1400540600205C0600205C06002064060020F7
:10DD2400640600206C0600206C06002074060020A7
:10DD3400740600207C0600207C0600208406002057
:10DD4400840600208C0600208C0600209406002007
:10DD5400940600209C0600209C060020A4060020B7
:10DD6400A4060020AC060020AC060020B406002067
:10DD7400B4060020BC060020BC060020C406002017
:10DD8400C4060020CC060020CC060020D4060020C7
:10DD9400D4060020DC060020DC060020E406002077
:10DDA400E4060020EC060020EC060020F406002027
:10DDB400F4060020FC060020FC06002004070020D6
:10DDC400040700200C0700200C0700201407002083
:10DDD400140700201C0700201C0700202407002033
:10DDE400240700202C0700202C07002034070020E3
:10DDF400340700203C0700203C0700204407002093
:10DE0400440700204C0700204C0700205407002042
:10DE1400540700205C0700205C07002064070020F2
:10DE2400640700206C0700206C07002074070020A2
:10DE3400740700207C0700207C0700208407002052
:10DE4400840700208C0700208C0700209407002002
:10DE5400940700209C0700209C070020A4070020B2
:10DE6400A4070020AC070020AC070020B407002062
:10DE7400B4070020BC070020BC070020C407002012
:10DE8400C4070020CC070020CC070020D4070020C2
:10DE9400D4070020DC070020DC070020E407002072
:10DEA400E4070020EC070020EC070020F407002022
:10DEB400F4070020FC070020FC07002004080020D1
:10DEC400040800200C0800200C080020140800207E
:10DED400140800201C0800201C080020240800202E
:10DEE400240800202C0800202C0800200000020038
:10DEF400FFFFFFFF430000000000000000000000DF
:10DF0400000000000000000000000000000000000D
:10DF140000000000430000000000000000000000BA
:10DF240000000000000000000000000000000000ED
:10DF3400000000004300000000000000000000009A
:10DF440000000000000000000000000000000000CD
:10DF5400000000004300000000000000000000007A
:10DF640000000000000000000000000000000000AD
:10DF7400000000004300000000000000000000005A
:10DF8400000000000000000000000000000000008D
:10DF9400000000004300000000000000000000003A
:10DFA400000000000000000000000000000000006D
:10DFB400000000004300000000000000000000001A
:10DFC400000000000000000000000000000000004D
:10DFD40000000000B5C40008E1BF00080000000014
:10DFE4009CD5000898D50008F0CC0008F0CC0008B7
:10DFF400F0CC0008F0CC0008F0CC0008F0CC00080D
:10E00400F0CC0008F0CC0008F0CC0008FFFFFFFFC4
:10E01400FFFFFFFFFFFFFFFFFFFF00000100415371
:10E024004349490000000000000000000000000017
:10E034000000000000000000000000000000415348
:10E0440043494900000000000000000000000000F7
:10E0540000000000000000000000000000000000BC
:0400000508006C2162
:00000001FF
